:020000040800F2
:1000000000000220D5160008B1140008B914000839
:10001000C1140008C9140008D11400080000000031
:10002000000000000000000000000000D9140008DB
:10003000E714000800000000F5140008031500088C
:1000400025170008251700082517000825170008A0
:100050002517000825170008251700082517000890
:100060002517000825170008251700082517000880
:100070002517000825170008251700082517000870
:1000800025170008251700082517000800000000A4
:10009000000000000000000000000000251700081C
:1000A0002517000825170008251700082517000840
:1000B0002517000825170008251700082517000830
:1000C0002517000825170008251700082517000820
:1000D0002517000825170008251700080000000054
:1000E0002517000825170008251700080000000044
:1000F00000000000000000000000000025170008BC
:100100000000000025170008251700082517000823
:1001100000000000000000000000000000000000DF
:1001200025170008251700082517000825170008BF
:10013000251700080000000000000000000000007B
:100140000000000000000000000000001115000881
:10015000251700082517000825170008251700088F
:100160002517000825170008000000000000000007
:10017000000000000000000000000000000000007F
:10018000000000002517000800000000000000002B
:080190002517000825170008DF
:1001A00010B5054C237833B9044B13B10448AFF3B1
:1001B00000800123237010BDC40200200000000055
:1001C00078B6000808B5034B1BB103490348AFF3E9
:1001D000008008BD00000000C802002078B60008BA
:1001E00001F0FF01102A2BDB10F0070F08D010F8E8
:1001F000013B013A8B422DD010F0070F42B3F6D1EC
:10020000F0B441EA012141EA014122F007047FF004
:1002100000070023F0E80256083C85EA010586EA5B
:10022000010685FA47F5A3FA87F586FA47F6A5FA97
:1002300087F68EB9EED1F0BC01F0FF0102F00702A3
:1002400032B110F8013B013A83EA010313B1F8D14E
:100250000020704701387047002D06BF354603382F
:10026000073815F0010F07D1013015F4807F02BF68
:10027000013015F4C03F0130F0BC0138704700BFB9
:10028000034613F8012B002AFBD1181A01387047D6
:1002900081F0004102E000BF83F0004330B54FEA37
:1002A00041044FEA430594EA050F08BF90EA020FA4
:1002B0001FBF54EA000C55EA020C7FEA645C7FEA37
:1002C000655C00F0E2804FEA5454D4EB5555B8BF5A
:1002D0006D420CDD2C4480EA020281EA030382EACB
:1002E000000083EA010180EA020281EA0303362D5D
:1002F00088BF30BD11F0004F4FEA01314FF4801C30
:100300004CEA113102D0404261EB410113F0004F41
:100310004FEA03334CEA133302D0524263EB4303F8
:1003200094EA050F00F0A780A4F10104D5F1200E96
:100330000DDB02FA0EFC22FA05F2801841F10001F1
:1003400003FA0EF2801843FA05F359410EE0A5F1C5
:1003500020050EF1200E012A03FA0EFC28BF4CF0F6
:10036000020C43FA05F3C01851EBE37101F00045AC
:1003700007D54FF0000EDCF1000C7EEB00006EEBB9
:100380000101B1F5801F1BD3B1F5001F0CD3490843
:100390005FEA30004FEA3C0C04F101044FEA44529A
:1003A00012F5800F80F09A80BCF1004F08BF5FEA21
:1003B000500C50F1000041EB045141EA050130BD01
:1003C0005FEA4C0C404141EB0101013C28BFB1F513
:1003D000801FE9D291F0000F04BF01460020B1FA5E
:1003E00081F308BF2033A3F10B03B3F120020CDA31
:1003F0000C3208DD02F1140CC2F10C0201FA0CF00F
:1004000021FA02F10CE002F11402D8BFC2F1200C73
:1004100001FA02F120FA0CFCDCBF41EA0C01904029
:10042000E41AA2BF01EB0451294330BD6FEA040472
:100430001F3C1CDA0C340EDC04F11404C4F120025D
:1004400020FA04F001FA02F340EA030021FA04F36F
:1004500045EA030130BDC4F10C04C4F1200220FAC6
:1004600002F001FA04F340EA0300294630BD21FA04
:1004700004F0294630BD94F0000F83F4801306BFCA
:1004800081F480110134013D4EE77FEA645C18BFBE
:100490007FEA655C29D094EA050F08BF90EA020F55
:1004A00005D054EA000C04BF1946104630BD91EA4D
:1004B000030F1EBF0021002030BD5FEA545C05D150
:1004C0004000494128BF41F0004130BD14F580048F
:1004D0003CBF01F5801130BD01F0004545F0FE4103
:1004E00041F470014FF0000030BD7FEA645C1ABF38
:1004F000194610467FEA655C1CBF0B46024650EA6F
:10050000013406BF52EA033591EA030F41F400219A
:1005100030BD00BF90F0000F04BF0021704730B520
:100520004FF4806404F132044FF000054FF00001F5
:1005300050E700BF90F0000F04BF0021704730B5B6
:100540004FF4806404F1320410F0004548BF40428B
:100550004FF000013EE700BF42004FEAE2014FEAE0
:1005600031014FEA02701FBF12F07F4393F07F4FBB
:1005700081F06051704732F07F4208BF704793F0BE
:100580007F4F04BF41F40021704730B54FF46074D1
:1005900001F0004521F000411CE700BF50EA0102D4
:1005A00008BF704730B54FF000050AE050EA01027D
:1005B00008BF704730B511F0004502D5404261EBED
:1005C00041014FF4806404F132045FEA915C3FF42E
:1005D000D8AE4FF003025FEADC0C18BF03325FEACB
:1005E000DC0C18BF033202EBDC02C2F1200300FA7C
:1005F00003FC20FA02F001FA03FE40EA0E0021FAA1
:1006000002F11444BDE600BF70B54FF0FF0C4CF48E
:10061000E06C1CEA11541DBF1CEA135594EA0C0F40
:1006200095EA0C0F00F0DEF82C4481EA030621EA7B
:100630004C5123EA4C5350EA013518BF52EA0335B6
:1006400041F4801143F4801338D0A0FB02CE4FF068
:100650000005E1FB02E506F00042E0FB03E54FF098
:100660000006E1FB03569CF0000F18BF4EF0010E90
:10067000A4F1FF04B6F5007F64F5407404D25FEA8C
:100680004E0E6D4146EB060642EAC62141EA55513F
:100690004FEAC52040EA5E504FEACE2EB4F1FD0C81
:1006A00088BFBCF5E06F1ED8BEF1004F08BF5FEAFF
:1006B000500E50F1000041EB045170BD06F00046B1
:1006C00046EA010140EA020081EA0301B4EB5C045E
:1006D000C2BFD4EB0C0541EA045170BD41F4801156
:1006E0004FF0000E013C00F3AB8014F1360FDEBF7B
:1006F000002001F0004170BDC4F10004203C35DA57
:100700000C341BDC04F11404C4F1200500FA05F3D9
:1007100020FA04F001FA05F240EA020001F000427A
:1007200021F0004110EBD37021FA04F642EB0601F0
:100730005EEA430E08BF20EAD37070BDC4F10C041A
:10074000C4F1200500FA04F320FA05F001FA04F2DE
:1007500040EA020001F0004110EBD37041F10001CA
:100760005EEA430E08BF20EAD37070BDC4F12005D5
:1007700000FA05F24EEA020E20FA04F301FA05F23D
:1007800043EA020321FA04F001F0004121FA04F2E5
:1007900020EA020000EBD3705EEA430E08BF20EAB5
:1007A000D37070BD94F0000F0FD101F000464000EF
:1007B00041EB010111F4801F08BF013CF7D041EA71
:1007C000060195F0000F18BF704703F00046520075
:1007D00043EB030313F4801F08BF013DF7D043EA46
:1007E0000603704794EA0C0F0CEA135518BF95EAFC
:1007F0000C0F0CD050EA410618BF52EA4306D1D183
:1008000081EA030101F000414FF0000070BD50EAA1
:10081000410606BF1046194652EA430619D094EA2B
:100820000C0F02D150EA013613D195EA0C0F05D115
:1008300052EA03361CBF104619460AD181EA030169
:1008400001F0004141F0FE4141F470014FF0000021
:1008500070BD41F0FE4141F4780170BD70B54FF0BC
:10086000FF0C4CF4E06C1CEA11541DBF1CEA13553C
:1008700094EA0C0F95EA0C0F00F0A7F8A4EB05041E
:1008800081EA030E52EA03354FEA013100F0888015
:100890004FEA03334FF0805545EA131343EA1263DE
:1008A0004FEA022245EA111545EA10654FEA002693
:1008B0000EF000419D4208BF964244F1FD0404F54C
:1008C000407402D25B084FEA3202B61A65EB0305A8
:1008D0005B084FEA32024FF480104FF4002CB6EB65
:1008E000020E75EB030E22BFB61A754640EA0C00E5
:1008F0005B084FEA3202B6EB020E75EB030E22BF25
:10090000B61A754640EA5C005B084FEA3202B6EB65
:10091000020E75EB030E22BFB61A754640EA9C0024
:100920005B084FEA3202B6EB020E75EB030E22BFF4
:10093000B61A754640EADC0055EA060E18D04FEAB2
:10094000051545EA16754FEA06164FEAC30343EA52
:1009500052734FEAC2025FEA1C1CC0D111F4801F1F
:100960000BD141EA00014FF000004FF0004CB6E718
:1009700011F4801F04BF01430020B4F1FD0C88BFB7
:10098000BCF5E06F3FF6AFAEB5EB030C04BFB6EBC2
:10099000020C5FEA500C50F1000041EB045170BDB5
:1009A0000EF0004E4EEA113114EB5C04C2BFD4EBE2
:1009B0000C0541EA045170BD41F480114FF0000E66
:1009C000013C90E645EA060E8DE60CEA135594EAE2
:1009D0000C0F08BF95EA0C0F3FF43BAF94EA0C0FE5
:1009E0000AD150EA01347FF434AF95EA0C0F7FF45A
:1009F00025AF104619462CE795EA0C0F06D152EAAE
:100A000003353FF4FDAE1046194622E750EA410691
:100A100018BF52EA43067FF4C5AE50EA41047FF4A2
:100A20000DAF52EA43057FF4EBAE12E74FF0FF3C07
:100A300006E000BF4FF0010C02E000BF4FF0010CD8
:100A40004DF804CD4FEA410C7FEA6C5C4FEA430C51
:100A500018BF7FEA6C5C1BD001B050EA410C0CBFA0
:100A600052EA430C91EA030F02BF90EA020F002002
:100A7000704710F1000F91EA030F58BF994208BF69
:100A800090422CBFD8176FEAE37040F00100704726
:100A90004FEA410C7FEA6C5C02D150EA013C07D17D
:100AA0004FEA430C7FEA6C5CD6D152EA033CD3D0C8
:100AB0005DF8040B704700BF8446104662468C46C2
:100AC0001946634600E000BF01B5FFF7B7FF0028F5
:100AD00048BF10F1000F01BD4DF808EDFFF7F4FF1E
:100AE0000CBF012000205DF808FB00BF4DF808EDA9
:100AF000FFF7EAFF34BF012000205DF808FB00BFCC
:100B00004DF808EDFFF7E0FF94BF012000205DF8ED
:100B100008FB00BF4DF808EDFFF7CEFF94BF0120A2
:100B200000205DF808FB00BF4DF808EDFFF7C4FF9B
:100B300034BF012000205DF808FB00BF4FEA410CE4
:100B40007FEA6C5C02D150EA013C0AD14FEA430CC7
:100B50007FEA6C5C02D152EA033C02D14FF0000004
:100B600070474FF0010070474FEA410212F5001242
:100B700015D211D56FF47873B3EB625212D94FEAE4
:100B8000C12343F0004343EA505311F0004F23FACE
:100B900002F018BF404270474FF00000704750EA23
:100BA000013005D111F0004008BF6FF000407047E0
:100BB0004FF00000704700BF53B94AB9002908BF81
:100BC00000281CBF4FF0FF314FF0FF3000F06AB932
:100BD000ADF1080C6DE904CE00F006F8DDF804E094
:100BE000DDE9022304B070472DE9F047089D0C466B
:100BF000002B4ED194468C458646B2FA82F262D9D9
:100C00004AB1C2F12003914020FA03F30CFA02FC2E
:100C1000194300FA02FE4FEA1C471FFA8CF6B1FB9B
:100C2000F7F44FEA1E4307FB141143EA014304FBA8
:100C300006F199420AD91CEB030304F1FF3080F05E
:100C40001281994240F20F81023C6344591A1FFA03
:100C50008EF3B1FBF7F007FB101143EA014300FBF1
:100C600006F69E420AD91CEB030300F1FF3180F027
:100C7000FC809E4240F2F980634402389B1B40EAAC
:100C8000044000211DB1D3400022C5E90032BDE877
:100C9000F0878B4205D90DB1C5E900010021084656
:100CA000F5E7B3FA83F1002946D1A34202D390427B
:100CB000C0F0F080861A64EB03030120002DE6D01B
:100CC000C5E90063E3E7002A40F09080A1EB0C0443
:100CD0004FEA1C481FFA8CF70121B4FBF8F64FEAE3
:100CE0001E4308FB164443EA044307FB06F0984200
:100CF00008D91CEB030306F1FF3402D2984200F23C
:100D0000CD8026461C1A1FFA8EF3B4FBF8F008FBC0
:100D1000104443EA044300FB07F79F4208D91CEB49
:100D2000030300F1FF3402D29F4200F2B08020465C
:100D3000DB1B40EA0640A5E7C1F120068B4022FA02
:100D400006F71F4320FA06FC04FA01F343EA0C03FA
:100D5000F44000FA01F8380C4FEA1349B4FBF0FEF6
:100D60001FFA87FC00FB1E4449EA04440EFB0CF901
:100D7000A14502FA01F20AD93C190EF1FF3A80F0BE
:100D80008480A14540F28180AEF1020E3C44A4EB88
:100D900009041FFA83F9B4FBF0F300FB134449EA9A
:100DA000044403FB0CFCA44507D93C1903F1FF30B4
:100DB00067D2A44565D9023B3C4443EA0E40A0FB00
:100DC0000293A4EB0C049C42CE469C4651D34ED0D9
:100DD00055B1B8EB0E0364EB0C0404FA06F6CB40F5
:100DE0001E43CC40C5E90064002150E7C2F1200356
:100DF00020FA03F10CFA02FC24FA03F394400C43AA
:100E00004FEA1C4800FA02FE1FFA8CF7B3FBF8F019
:100E100008FB1031230C43EA014300FB07F1994220
:100E200008D91CEB030300F1FF362CD299422AD9D2
:100E3000023863445B1AA4B2B3FBF8F108FB113328
:100E400044EA034401FB07F3A34208D91CEB040462
:100E500001F1FF3613D2A34211D902396444E41AD6
:100E600041EA004139E70446F0E6084606E7C8458E
:100E7000AED2B9EB020E63EB070C0138A8E731469E
:100E8000EDE7034699E73046D4E7D6467FE763446B
:100E900002384DE70646234608460FE7023E634404
:100EA00030E700BF704700BF80B500AF01222021AE
:100EB000044800F065FF00221021024800F060FFA6
:100EC00000BF80BD0004024080B485B000AF03467F
:100ED000FB71FB79642B01D96423FB71FB790A4A0E
:100EE0001268D26A02FB03F3084AA2FB03235B09E0
:100EF000FB60054B1B68FA689A6300BF1437BD4658
:100F00005DF8047B704700BFE00200201F85EB51B5
:100F100090B599B002AF00F007FC00F079F800F04E
:100F2000A9F900F0DDF807F03DF800F04FF90421D1
:100F3000324802F069FE3C21314802F0BBFF002339
:100F40007B654FF47A73FB64142387F85330FFF703
:100F5000ABFF1420FFF7B8FF294B1B685B6ABB642B
:100F6000BB6C07EE903AF8EE677A9FED267A27EE93
:100F7000877ADFED256AC7EE267AC7ED117A204B16
:100F80001B6800225A6297F85340786CFFF7E4FA26
:100F900002460B46381DCDE9002323461B4A40215B
:100FA00008F02AFA3B1D1846FFF76AF903469AB281
:100FB0003B1D1146184607F0B3F800F01BFC024633
:100FC0007B6DD31AFA6C9A4213D897F853300533D5
:100FD00087F8533097F85330642B02D9642387F88D
:100FE000533097F853301846FFF76EFF00F002FCBD
:100FF00078650A2000F00AFCAEE700BFE00200209E
:1010000028030020000070420040284490B60008E9
:1010100080B594B000AF07F12003302200211846BC
:1010200008F061FA07F10C0300221A605A609A6016
:10103000DA601A610023BB60274B1B6C264A43F021
:1010400080531364244B1B6C03F08053BB60BB685C
:1010500000237B60214B1B68204A43F4404313600C
:101060001E4B1B6803F440437B607B6801233B629B
:101070004FF480337B620223BB634FF48003FB6336
:1010800019233B6490237B640223BB640323FB642A
:1010900007F12003184602F0DFF80346002B01D0C9
:1010A00000F038F90F23FB6002233B6100237B61D2
:1010B0004FF48053BB610023FB6107F10C03022155
:1010C000184602F041FB0346002B01D000F022F944
:1010D00000BF5037BD4680BD003802400070004060
:1010E00080B58EB000AF07F1280300221A605A6065
:1010F0009A60DA6007F1200300221A605A603B1DF3
:1011000000221A605A609A60DA601A615A619A6124
:101110002D4B4FF080421A602B4B47225A602A4BCE
:1011200000229A60284B44F62062DA60264B0022A7
:101130001A61254B00229A61234802F0BDFC034648
:10114000002B01D000F0E6F84FF48053BB6207F1AA
:10115000280319461C4802F0FDFF0346002B01D06E
:1011600000F0D8F8184802F0F6FC0346002B01D036
:1011700000F0D0F800233B6200237B6207F12003DC
:101180001946114803F086FB0346002B01D000F0FE
:10119000C1F860237B600023BB600023FB60002359
:1011A0007B613B1D04221946074802F011FF0346EC
:1011B000002B01D000F0AEF8034800F041F900BF69
:1011C0003837BD4680BD00BFE002002080B58CB03E
:1011D00000AF07F10C0324220021184608F083F920
:1011E0003B1D00221A605A60204B214A1A601F4B97
:1011F00000225A601D4B00229A601C4B4FF6FF7272
:10120000DA601A4B00221A61184B00229A610323FC
:10121000FB6000233B6101237B610023BB61002352
:10122000FB6100233B6201237B620023BB6200233E
:10123000FB6207F10C0319460C4802F095FD0346CA
:10124000002B01D000F066F800237B600023BB6018
:101250003B1D1946054803F01DFB0346002B01D03A
:1012600000F058F800BF3037BD4680BD280300208D
:101270000004004080B588B000AF07F10C030022E5
:101280001A605A609A60DA601A610023BB601F4BD3
:101290001B6B1E4A43F0800313631C4B1B6B03F054
:1012A0008003BB60BB6800237B60184B1B6B174A35
:1012B00043F001031363154B1B6B03F001037B60C9
:1012C0007B6800233B60114B1B6B104A43F0020309
:1012D00013630E4B1B6B03F002033B603B68002261
:1012E00030210B4800F04CFD3023FB6001233B61B3
:1012F00000237B610023BB6107F10C0319460448FE
:1013000000F0BAFB00BF2037BD4680BD0038024068
:101310000004024080B400AF72B600BF00BFFDE71A
:1013200080B483B000AF00237B60104B5B6C0F4A2E
:1013300043F4804353640D4B5B6C03F480437B6048
:101340007B6800233B60094B1B6C084A43F08053C9
:101350001364064B1B6C03F080533B603B6800BF7B
:101360000C37BD465DF8047B704700BF0038024073
:1013700080B485B000AF78607B681B68B3F1804FA4
:101380000DD10023FB60094B1B6C084A43F001039D
:101390001364064B1B6C03F00103FB60FB6800BF8A
:1013A0001437BD465DF8047B704700BF003802402B
:1013B00080B58AB000AF786007F1140300221A608C
:1013C0005A609A60DA601A617B681B68194A934216
:1013D0002BD100233B61184B1B6C174A43F00203CF
:1013E0001364154B1B6C03F002033B613B69002344
:1013F000FB60114B1B6B104A43F0010313630E4B50
:101400001B6B03F00103FB60FB68C0237B610223BD
:10141000BB610023FB6100233B6202237B6207F177
:1014200014031946054800F027FB00BF2837BD46C6
:1014300080BD00BF000400400038024000000240B0
:1014400080B588B000AF786007F10C0300221A6005
:101450005A609A60DA601A617B681B68B3F1804F4A
:101460001DD10023BB60104B1B6B0F4A43F00203DE
:1014700013630D4B1B6B03F00203BB60BB680823B7
:10148000FB6002233B6100237B610023BB610123DE
:10149000FB6107F10C031946044800F0EDFA00BFA8
:1014A0002037BD4680BD00BF003802400004024026
:1014B00080B400AF00BFFDE780B400AF00BFFDE720
:1014C00080B400AF00BFFDE780B400AF00BFFDE710
:1014D00080B400AF00BFFDE780B400AF00BFBD46E1
:1014E0005DF8047B704780B400AF00BFBD465DF877
:1014F000047B704780B400AF00BFBD465DF8047B3D
:10150000704780B500AF00F061F900BF80BD0000FA
:1015100080B500AF024800F090FD00BF80BD00BF65
:101520005818002080B400AF01231846BD465DF86E
:10153000047B704780B582B000AF7860396008F0F6
:1015400025F8034616221A604FF0FF331846083775
:10155000BD4680BD80B582B000AF78604FF0FF31EE
:101560007868FFF7E7FF00BFFDE780B586B000AF02
:10157000F860B9607A6000237B610AE0AFF3008015
:101580000146BB685A1CBA60CAB21A707B69013343
:101590007B617A697B689A42F0DB7B681846183772
:1015A000BD4680BD80B586B000AFF860B9607A6096
:1015B00000237B6109E0BB685A1CBA601B7818469F
:1015C000AFF300807B6901337B617A697B689A4263
:1015D000F1DB7B6818461837BD4680BD80B483B008
:1015E00000AF78604FF0FF3318460C37BD465DF80A
:1015F000047B704780B483B000AF786039603B688B
:101600004FF400525A60002318460C37BD465DF86F
:10161000047B704780B483B000AF78600123184624
:101620000C37BD465DF8047B704780B485B000AFD1
:10163000F860B9607A60002318461437BD465DF83B
:10164000047B704780B586B000AF7860144A154BB4
:10165000D31A7B617B693B61134B1B68002B02D162
:10166000114B124A1A60104B1A687B6813443A698E
:101670009A4207D207F08AFF03460C221A604FF005
:10168000FF3309E0084B1B68FB60074B1A687B6857
:101690001344054A1360FB6818461837BD4680BDE1
:1016A000000002200004000070030020A820002099
:1016B00080B400AF064BD3F88830054A43F470037A
:1016C000C2F8883000BFBD465DF8047B704700BF9C
:1016D00000ED00E0DFF834D0FFF7EAFF0C480D49D9
:1016E0000D4A002302E0D458C4500433C4188C427D
:1016F000F9D30A4A0A4C002301E013600432A242E3
:10170000FBD307F049FFFFF703FC704700000220FE
:1017100000000020C402002088BA0008C402002093
:10172000A8200020FEE7000080B500AF0E4B1B682C
:101730000D4A43F4007313600B4B1B680A4A43F4D1
:1017400080631360084B1B68074A43F4807313607F
:10175000032000F04FF90F2000F008F8FFF7E0FD3C
:101760000023184680BD00BF003C024080B582B017
:1017700000AF7860124B1A68124B1B7819464FF471
:101780007A73B3FBF1F3B2FBF3F3184600F067F999
:101790000346002B01D001230EE07B680F2B0AD8F3
:1017A000002279684FF0FF3000F02FF9064A7B687D
:1017B0001360002300E0012318460837BD4680BDB2
:1017C00000000020080000200400002080B400AFCA
:1017D000064B1B781A46064B1B681344044A1360D9
:1017E00000BFBD465DF8047B704700BF08000020C5
:1017F0007403002080B400AF034B1B681846BD463D
:101800005DF8047B704700BF7403002080B584B08E
:1018100000AF7860FFF7EEFFB8607B68FB60FB68A5
:10182000B3F1FF3F05D00A4B1B781A46FB681344FF
:10183000FB6000BFFFF7DEFF0246BB68D31AFA6801
:101840009A42F7D800BF00BF1037BD4680BD00BF29
:101850000800002080B485B000AF78607B6803F09A
:101860000703FB600C4BDB68BB60BA684FF6FF03F5
:101870001340BB60FB681A02BB68134343F0BF63AD
:1018800043F40033BB60044ABB68D36000BF143725
:10189000BD465DF8047B704700ED00E080B400AF0A
:1018A000044BDB681B0A03F007031846BD465DF8CE
:1018B000047B704700ED00E080B483B000AF0346C6
:1018C000FB7197F90730002B0BDBFB7903F01F024C
:1018D000074997F907305B09012000FA02F241F845
:1018E000232000BF0C37BD465DF8047B704700BF66
:1018F00000E100E080B483B000AF03463960FB71C3
:1019000097F90730002B0ADB3B68DAB20C4997F9EC
:1019100007301201D2B20B4483F800230AE03B687F
:10192000DAB20849FB7903F00F03043B1201D2B28B
:101930000B441A7600BF0C37BD465DF8047B704738
:1019400000E100E000ED00E080B489B000AFF86095
:10195000B9607A60FB6803F00703FB61FB69C3F1C0
:101960000703042B28BF0423BB61FB690433062B48
:1019700002D9FB69033B00E000237B614FF0FF329B
:10198000BB6902FA03F3DA43BB681A407B699A40E9
:101990004FF0FF317B6901FA03F3D9437B680B40B9
:1019A000134318462437BD465DF8047B704700009A
:1019B00080B582B000AF78607B68013BB3F1807F77
:1019C00001D301230FE00A4A7B68013B53600F21DA
:1019D0004FF0FF30FFF78EFF054B00229A60044B5B
:1019E00007221A60002318460837BD4680BD00BF95
:1019F00010E000E080B582B000AF78607868FFF753
:101A000029FF00BF0837BD4680BD80B586B000AF56
:101A10000346B9607A60FB7300237B61FFF73EFFEA
:101A200078617A68B9687869FFF78EFF024697F99E
:101A30000F3011461846FFF75DFF00BF1837BD464F
:101A400080BD80B582B000AF0346FB7197F90730C7
:101A50001846FFF731FF00BF0837BD4680BD80B58F
:101A600082B000AF78607868FFF7A2FF034618469F
:101A70000837BD4680BD000080B489B000AF7860F3
:101A8000396000237B6100233B610023BB6100239D
:101A9000FB6159E10122FB6902FA03F37B613B68B8
:101AA0001B687A6913403B613A697B699A4240F04E
:101AB00048813B685B6803F00303012B05D03B685A
:101AC0005B6803F00303022B30D17B689B68BB612A
:101AD000FB695B00032202FA03F3DB43BA6913409C
:101AE000BB613B68DA68FB695B0002FA03F3BA6921
:101AF0001343BB617B68BA699A607B685B68BB61B2
:101B00000122FB6902FA03F3DB43BA691340BB61AC
:101B10003B685B681B0903F00102FB6902FA03F3EF
:101B2000BA691343BB617B68BA695A603B685B68FA
:101B300003F00303032B17D07B68DB68BB61FB69F1
:101B40005B00032202FA03F3DB43BA691340BB6173
:101B50003B689A68FB695B0002FA03F3BA691343B6
:101B6000BB617B68BA69DA603B685B6803F00303BA
:101B7000022B23D1FB69DA087B68083253F8223044
:101B8000BB61FB6903F007039B000F2202FA03F31A
:101B9000DB43BA691340BB613B681A69FB6903F018
:101BA00007039B0002FA03F3BA691343BB61FB69A5
:101BB000DA087B680832B96943F822107B681B6831
:101BC000BB61FB695B00032202FA03F3DB43BA69E2
:101BD0001340BB613B685B6803F00302FB695B0079
:101BE00002FA03F3BA691343BB617B68BA691A60EE
:101BF0003B685B6803F44033002B00F0A2800023B5
:101C0000FB60574B5B6C564A43F480435364544B20
:101C10005B6C03F48043FB60FB68524AFB699B08E2
:101C2000023352F82330BB61FB6903F003039B00CE
:101C30000F2202FA03F3DB43BA691340BB617B68EE
:101C4000494A934219D07B68484A934213D07B6833
:101C5000474A93420DD07B68464A934207D07B683F
:101C6000454A934201D1042308E0072306E00323F9
:101C700004E0022302E0012300E00023FA6902F0FD
:101C8000030292009340BA691343BB613549FB6973
:101C90009B080233BA6941F82320384B9B68BB612B
:101CA0003B69DB43BA691340BB613B685B6803F483
:101CB0008013002B03D0BA693B691343BB612F4AE1
:101CC000BB6993602D4BDB68BB613B69DB43BA6941
:101CD0001340BB613B685B6803F40013002B03D027
:101CE000BA693B691343BB61244ABB69D360234B88
:101CF0005B68BB613B69DB43BA691340BB613B680E
:101D00005B6803F40033002B03D0BA693B691343CB
:101D1000BB611A4ABB695360184B1B68BB613B69C6
:101D2000DB43BA691340BB613B685B6803F48033F3
:101D3000002B03D0BA693B691343BB610F4ABB69EF
:101D40001360FB690133FB61FB690F2B7FF6A2AEC9
:101D500000BF00BF2437BD465DF8047B704700BF5D
:101D600000380240003801400000024000040240F8
:101D700000080240000C024000100240003C0140FC
:101D800080B483B000AF78600B467B8013467B70D5
:101D90007B78002B03D07A887B689A6103E07B888C
:101DA0001A047B689A6100BF0C37BD465DF8047B5E
:101DB000704780B586B002AF78607B68002B01D198
:101DC000012301E17B681B68BB607B6893F8953455
:101DD000DBB2002B06D17B68002283F8942478685C
:101DE00006F0E6FA7B68032283F89524BB68B3F11A
:101DF000A04F02D17B6800229A717B681B6818464D
:101E000002F0CDFE7B6818687B681A7C8DF8002094
:101E100004330ECB02F0ACFD0346002B05D07B68EB
:101E2000022283F895240123CEE07B681B68002101
:101E3000184602F0C5FE0346002B05D07B6802223F
:101E400083F895240123BFE00023FB734AE0FA7B6B
:101E500079681346DB0013449B000B4415330122C1
:101E60001A70FA7B79681346DB0013449B000B441D
:101E70001433FA7B1A70FA7BFB7B98B279681346AD
:101E8000DB0013449B000B442E3302461A80FA7B7E
:101E900079681346DB0013449B000B44183300227F
:101EA0001A70FA7B79681346DB0013449B000B44DD
:101EB0001C3300221A60FA7B79681346DB00134456
:101EC0009B000B44203300221A60FA7B796813468A
:101ED000DB0013449B000B44243300221A60FB7B7D
:101EE0000133FB737B681B79FA7B9A42AFD30023E3
:101EF000FB7344E0FA7B79681346DB0013449B00D4
:101F00000B4403F2552300221A70FA7B79681346BA
:101F1000DB0013449B000B4403F51573FA7B1A7026
:101F2000FA7B79681346DB0013449B000B4403F5EE
:101F3000167300221A70FA7B79681346DB0013448B
:101F40009B000B4403F5177300221A60FA7B796833
:101F50001346DB0013449B000B4403F51873002267
:101F60001A60FA7B79681346DB0013449B000B442C
:101F700003F5197300221A60FB7B0133FB737B6846
:101F80001B79FA7B9A42B5D37B6818687B681A7C08
:101F90008DF8002004330ECB02F05EFE0346002BCA
:101FA00005D07B68022283F8952401230CE07B682E
:101FB00000225A747B68012283F895247B681B6891
:101FC000184603F0A8FE002318461037BD4680BD12
:101FD00080B584B000AF78607B681B68FB607B686D
:101FE00093F89434012B01D1022322E07B68012273
:101FF00083F89424FB68DB6803F04003002B09D0CE
:102000007B685B7B012B05D1FB689B6B43F48032C3
:10201000FB689A637B681B68184602F0AFFD7B681B
:102020001B68184603F056FE7B68002283F8942450
:10203000002318461037BD4680BD90B58DB000AF67
:1020400078607B681B683B623B6AFB617B681B684E
:10205000184603F014FF0346002B40F08C847B6885
:102060001B68184603F078FE0346002B00F08284BC
:10207000FB6903F500639B681B0AC3F30D027B68D1
:10208000C3F8D4247B681B68184603F065FE03463A
:1020900003F00203022B07D17B681B685A697B6837
:1020A0001B6802F002025A617B681B68184603F045
:1020B00053FE034603F01003102B61D17B681B68AD
:1020C0009A697B681B6822F010029A613B6A1B6A5E
:1020D000BB61BB6903F00F021346DB0013449B0096
:1020E00003F514737A68134404337B61BB695B0C9A
:1020F00003F00F03022B24D1BA6947F6F0731340A3
:10210000002B35D07B69D968BB691B099BB2C3F32F
:102110000A039BB21A46386A03F08AFC7B69DA68C4
:10212000BB691B09C3F30A031A447B69DA607B6944
:102130005A69BB691B09C3F30A031A447B695A61D4
:1021400016E0BB695B0C03F00F03062B10D17B6814
:1021500003F29C4308221946386A03F069FC7B6944
:102160005A69BB691B09C3F30A031A447B695A61A4
:102170007B681B689A697B681B6842F010029A6151
:102180007B681B68184603F0E7FD034603F4002351
:10219000B3F5002F40F0A78000237B627B681B68AB
:1021A000184603F0ECFDB86299E0BB6A03F0010346
:1021B000002B00F08E807B681B687A6AD2B21146D1
:1021C000184603F010FE38613B6903F00103002B51
:1021D0000CD07B6A5A01FB69134403F530631A463D
:1021E00001239360796A786800F0A4FE3B6903F0EC
:1021F0000803002B0CD07B6A5A01FB69134403F5DA
:1022000030631A4608239360796A786800F07AFF91
:102210003B6903F01003002B08D07B6A5A01FB696D
:10222000134403F530631A46102393603B6903F0AF
:102230000203002B30D03B6A5B6903F08003802BE4
:1022400009D1FB6903F500635B68FA6902F5006276
:1022500043F4806353607A6A1346DB0013449B00A7
:1022600003F514737A68134404337B617B69DB786C
:10227000012B08D17B690022DA707B6ADBB2194638
:10228000786806F091F97B6A5A01FB69134403F5FB
:1022900030631A46022393603B6903F02003002B4E
:1022A00008D07B6A5A01FB69134403F530631A4670
:1022B000202393603B6903F40053002B09D07B6A11
:1022C0005A01FB69134403F530631A464FF4005377
:1022D00093607B6A01337B62BB6A5B08BB62BB6A4B
:1022E000002B7FF462AF7B681B68184603F034FD57
:1022F000034603F48023B3F5802F40F0DB807B6836
:102300001B68184603F055FDB86200237B62CDE0E0
:10231000BB6A03F00103002B00F0C2807B681B68DE
:102320007A6AD2B21146184603F07BFD38613B69E8
:1023300003F00103002B57D07B6A03F00F03012247
:1023400002FA03F3FB60FB6903F500635A6BFB6859
:10235000DB43F96901F5006113404B637B6A5A0165
:10236000FB69134403F510631A46012393607B68ED
:102370009B79012B32D179687A6A1346DB001344CA
:102380009B000B442033196878687A6A1346DB0097
:1023900013449B0003441C331B68194478687A6A11
:1023A0001346DB0013449B000344203319607B6A0F
:1023B000002B13D179687A6A1346DB0013449B0023
:1023C0000B4424331B68002B08D17B6818687B689A
:1023D00003F29C431A46012103F082FD7B6ADBB2C3
:1023E0001946786806F065F83B6903F00803002B8E
:1023F00008D07B6A5A01FB69134403F510631A463F
:10240000082393603B6903F01003002B08D07B6A1C
:102410005A01FB69134403F510631A4610239360B5
:102420003B6903F04003002B08D07B6A5A01FB692B
:10243000134403F510631A46402393603B6903F08D
:102440000203002B23D0796A386A02F069FD7A6AA8
:102450001346DB0013449B0010337A6813440433A3
:102460007B617B69DB78012B08D17B690022DA7004
:102470007B6ADBB21946786806F0A8F87B6A5A01D5
:10248000FB69134403F510631A46022393603B690A
:1024900003F08003002B03D0796A786800F0BDFC5C
:1024A0007B6A01337B62BB6A5B08BB62BB6A002B41
:1024B0007FF42EAF7B681B68184603F04DFC034683
:1024C00003F00043B3F1004F22D1FB6903F5006331
:1024D0005B68FA6902F5006223F0010353607B68D0
:1024E00093F8CC34012B08D17B68002283F8CC24EC
:1024F0000021786800F0A4FE02E0786806F046F853
:102500007B681B685A697B681B6802F000425A614D
:102510007B681B68184603F01FFC034603F4006346
:10252000B3F5006F12D1FB6903F500639B6803F0FC
:102530000103012B02D1786806F002F87B681B6862
:102540005A697B681B6802F400625A617B681B68E9
:10255000184603F001FC034603F48053B3F5805F93
:1025600040F0B780FB6903F500635B68FA6902F528
:10257000006223F0010353607B681B68102118463A
:1025800002F0CEFC0023FB6246E0FB6A5A01FB69C5
:10259000134403F510631A464FF67F339360FB6ACA
:1025A0005A01FB69134403F510631B68FA6A510171
:1025B000FA690A4402F5106223F400131360FB6AFF
:1025C0005A01FB69134403F530631A464FF67F3313
:1025D0009360FB6A5A01FB69134403F530631B687F
:1025E000FA6A5101FA690A4402F5306223F40013D1
:1025F0001360FB6A5A01FB69134403F530631B68DF
:10260000FA6A5101FA690A4402F5306243F0006344
:102610001360FB6A0133FB627B681B791A46FB6A15
:102620009342B2D3FB6903F50063DB69FA6902F5F3
:10263000006243F00113D3617B68DB7B002B16D073
:10264000FB6903F50063D3F88430FA6902F5006290
:1026500043F00B03C2F88430FB6903F500635B6C45
:10266000FA6902F5006243F00B03536415E0FB695D
:1026700003F500635B69FA6902F5006243F40053F5
:1026800043F02B035361FB6903F500631B69FA698F
:1026900002F5006243F00B031361FB6903F500636D
:1026A0001B68FA6902F5006223F4FE6313607B681D
:1026B00018687B6899797B6803F29C431A4603F09B
:1026C0000FFC7B681B685A697B681B6802F48052A8
:1026D0005A617B681B68184603F03EFB034603F40F
:1026E0000053B3F5005F23D17B681B68184603F0E5
:1026F000D4FB7B681B68184602F08BFC03461A4625
:102700007B68DA717B681C6801F0CAF901467B6856
:10271000DB791A46204602F08FF9786805F0F1FE61
:102720007B681B685A697B681B6802F400525A6117
:102730007B681B68184603F00FFB034603F0080391
:10274000082B0AD1786805F0CEFE7B681B685A69B1
:102750007B681B6802F008025A617B681B68184698
:1027600003F0FAFA034603F08003802B23D13B6A7F
:102770009B6923F080023B6A9A6101237B6214E02B
:1027800079687A6A1346DB0013449B000B4403F21A
:1027900057231B78012B05D17B6ADBB21946786879
:1027A00000F00AFB7B6A01337B627B681B791A4667
:1027B0007B6A9342E4D37B681B68184603F0CCFA2B
:1027C000034603F48013B3F5801F3CD101237B62E1
:1027D0002BE07B6A5A01FB69134403F510631B6805
:1027E000BB6179687A6A1346DB0013449B000B4493
:1027F00018331B78012B15D1BB69002B12DA7968CD
:102800007A6A1346DB0013449B000B441733012202
:102810001A707B6ADBB263F07F03DBB2194678681B
:1028200000F0CAFA7B6A01337B627B681B791A4627
:102830007B6A9342CDD37B681B685A697B681B68AF
:1028400002F480125A617B681B68184603F084FA10
:10285000034603F40013B3F5001F56D101237B6236
:1028600045E07B6A5A01FB69134403F530631B683A
:10287000BB6179687A6A1346DB0013449B000B4402
:1028800003F516731B78012B2ED1BB69002B2BDAB5
:10289000BB6903F480327B68D3F8D43403F00103BE
:1028A0009A4221D179687A6A1346DB0013449B006F
:1028B0000B4403F2572301221A703B6A9B6943F0D1
:1028C00080023B6A9A613B6A5B6903F08003002BDC
:1028D0000AD1FB6903F500635B68FA6902F50062DF
:1028E00043F40073536008E07B6A01337B627B68CA
:1028F0001B791A467B6A9342B3D37B681B685A697B
:102900007B681B6802F400125A617B681B681846DA
:1029100003F022FA034603F08043B3F1804F0AD15B
:10292000786805F065FE7B681B685A697B681B68E0
:1029300002F080425A617B681B68184603F00CFA6B
:10294000034603F00403042B15D17B681B685B6806
:10295000BB61BB6903F00403002B02D0786805F06B
:1029600055FE7B681B6859687B681B68BA690A4317
:102970005A6000E000BF3437BD4690BD80B582B0DC
:1029800000AF78600B46FB707B6893F89434012BA2
:1029900001D1022312E07B68012283F894247B6832
:1029A000FA785A747B681B68FA781146184603F067
:1029B0006BF97B68002283F89424002318460837BB
:1029C000BD4680BD80B584B000AF78600846114632
:1029D0001A460346FB700B463B801346BB70002330
:1029E000FB7297F90330002B0FDAFB7803F00F022C
:1029F0001346DB0013449B0010337A6813440433FE
:102A0000FB60FB6801225A700FE0FB7803F00F02B5
:102A10001346DB0013449B0003F514737A681344D8
:102A20000433FB60FB6800225A70FB7803F00F034D
:102A3000DAB2FB681A703B88C3F30A02FB689A603B
:102A4000FB68BA781A71FB685B78002B04D0FB68CE
:102A50001B781A46FB685A83BB78022B02D1FB68AD
:102A600000225A717B6893F89434012B01D1022320
:102A70000EE07B68012283F894247B681B68F96868
:102A8000184602F0EBFA7B68002283F89424FB7A64
:102A900018461037BD4680BD80B584B000AF786061
:102AA0000B46FB7097F90330002B0FDAFB7803F02D
:102AB0000F021346DB0013449B0010337A68134463
:102AC0000433FB60FB6801225A700FE0FB7803F0CF
:102AD0000F021346DB0013449B0003F514737A685E
:102AE00013440433FB60FB6800225A70FB7803F048
:102AF0000F03DAB2FB681A707B6893F89434012BE9
:102B000001D102230EE07B68012283F894247B68C4
:102B10001B68F968184602F029FB7B68002283F8DD
:102B20009424002318461037BD4680BD80B586B07A
:102B300000AFF8607A603B600B46FB72FB7A03F0F3
:102B40000F021346DB0013449B0003F51473FA686D
:102B5000134404337B617B697A68DA607B693A6885
:102B60001A617B6900225A617B6900225A70FB7AE4
:102B700003F00F03DAB27B691A70FB689B79012BB3
:102B800002D17A687B69DA61FB681868FB689B7917
:102B90001A46796902F0C6FB002318461837BD466D
:102BA00080BD80B483B000AF78600B46FB70FB78CB
:102BB00003F00F0279681346DB0013449B000B44BB
:102BC00003F51A731B6818460C37BD465DF8047B85
:102BD000704780B586B000AFF8607A603B600B4606
:102BE000FB72FB7A03F00F021346DB0013449B00D9
:102BF0001033FA68134404337B617B697A68DA60C6
:102C00007B693A681A617B6900225A617B690122FB
:102C10005A70FB7A03F00F03DAB27B691A70FB6813
:102C20009B79012B02D17A687B69DA61FB681868AD
:102C3000FB689B791A46796902F074FB00231846F9
:102C40001837BD4680BD80B584B000AF78600B46B4
:102C5000FB70FB7803F00F037A681279934201D975
:102C600001234FE097F90330002B0FDAFB7803F0D4
:102C70000F021346DB0013449B0010337A681344A1
:102C80000433FB60FB6801225A700DE0FA781346AA
:102C9000DB0013449B0003F514737A681344043378
:102CA000FB60FB6800225A70FB6801229A70FB7877
:102CB00003F00F03DAB2FB681A707B6893F8943460
:102CC000012B01D102231DE07B68012283F89424AB
:102CD0007B681B68F968184602F002FFFB7803F076
:102CE0000F03002B09D17B6818687B6899797B6892
:102CF00003F29C431A4603F0F3F87B68002283F842
:102D00009424002318461037BD4680BD80B584B09A
:102D100000AF78600B46FB70FB7803F00F037A6816
:102D20001279934201D9012342E097F90330002B35
:102D30000FDAFB7803F00F021346DB0013449B000D
:102D400010337A6813440433FB60FB6801225A7025
:102D50000FE0FB7803F00F021346DB0013449B00E7
:102D600003F514737A6813440433FB60FB68002294
:102D70005A70FB6800229A70FB7803F00F03DAB2F6
:102D8000FB681A707B6893F89434012B01D10223FD
:102D90000EE07B68012283F894247B681B68F96845
:102DA000184602F00BFF7B68002283F8942400236E
:102DB00018461037BD4680BD80B584B000AF78603E
:102DC0000B46FB7097F90330002B0CDAFB7803F00D
:102DD0000F021346DB0013449B0010337A68134440
:102DE0000433FB600CE0FB7803F00F021346DB00BA
:102DF00013449B0003F514737A6813440433FB6097
:102E00007B681B68F968184602F02AFD0346FB72CE
:102E1000FB7A18461037BD4680BD80B58AB002AF38
:102E2000786039607B681B687B617B693B613A68CD
:102E30001346DB0013449B0010337A6813440433B9
:102E4000FB60FB685A69FB681B699A4201D9012340
:102E50006BE0FB681A69FB685B69D31AFB61FB686E
:102E60009B68FA699A4202D9FB689B68FB61FB691F
:102E700003339B08BB612AE0FB681A69FB685B6946
:102E8000D31AFB61FB689B68FA699A4202D9FB6816
:102E90009B68FB61FB6903339B08BB61FB68D968D6
:102EA0003B68DAB2FB6998B27B689B790093034672
:102EB000786902F07FFDFB68DA68FB691A44FB68F9
:102EC000DA60FB685A69FB691A44FB685A613B681F
:102ED0005A013B69134403F510639B699BB2BA69BD
:102EE0009A4209D8FB685A69FB681B699A4203D267
:102EF000FB681B69002BBFD1FB681A69FB685B6923
:102F00009A4211D83B6803F00F03012202FA03F33F
:102F1000BB603B6903F500635A6BBB68DB433969EF
:102F200001F5006113404B63002318462037BD466E
:102F300080BD000080B588B000AF786039607B68E4
:102F40001B68FB61FB69BB61FB693C3304331B6895
:102F50007B613B685A01BB69134403F530639B688E
:102F60003B617B689B79012B7BD13B6903F00803B4
:102F7000002B15D07B69614A934240F2B9803B69CE
:102F800003F40043002B00F0B3803B685A01BB6997
:102F9000134403F530631A464FF400439360A7E0EF
:102FA0003B6903F02003002B09D03B685A01BB6941
:102FB000134403F530631A462023936098E03B697D
:102FC00003F02803002B40F093807B694B4A934227
:102FD0000FD93B6903F40043002B0AD03B685A0128
:102FE000BB69134403F530631A464FF40043936002
:102FF0007EE03A681346DB0013449B0003F514732C
:103000007A6813440433FB60FB681A6A3B68590111
:10301000BB690B4403F530631B69C3F31203D21A77
:10302000FB685A613B68002B14D1FB681B69002BBD
:1030300009D17B6818687B6803F29C431A4601211A
:1030400002F04EFF06E0FB68DA68FB685B691A4431
:10305000FB68DA603B68DBB21946786805F00EFA67
:1030600046E07B69264A934224D13B6903F400433E
:10307000002B0AD03B685A01BB69134403F5306347
:103080001A464FF40043936032E03B6903F020039B
:10309000002B08D03B685A01BB69134403F5306329
:1030A0001A46202393603B68DBB21946786805F026
:1030B000E5F91DE03B68002B14D179683A681346A6
:1030C000DB0013449B000B4403F519731B68002BB2
:1030D00008D17B6818687B6803F29C431A4600217C
:1030E00002F0FEFE3B68DBB21946786805F0C6F9CF
:1030F000002318462037BD4680BD00BF0A30544F1C
:103100000A31544F80B586B000AF786039607B6873
:103110001B687B617B693B617B693C3304331B68C3
:10312000FB603B685A013B69134403F530639B68BD
:10313000BB60FB68154A93420ED9BB6803F4004399
:10314000002B09D03B685A013B69134403F53063F7
:103150001A464FF400439360786805F07DF9FB68E8
:103160000A4A93420CD97B689B79012B08D17B6872
:1031700018687B6803F29C431A46012102F0B0FEF6
:10318000002318461837BD4680BD00BF0A30544F93
:1031900080B485B000AF78600B46FB7013463B806F
:1031A0007B681B685B6ABB60FB78002B07D13B88A0
:1031B00019047B681B68BA680A439A6228E07B6836
:1031C0001B689B6A1B0CBA681344BB600023FB732B
:1031D0000DE07B681A68FB7B40339B0013445B68FF
:1031E0001B0CBA681344BB60FB7B0133FB73FA7B97
:1031F000FB78013B9A42ECD33B8818047B68196842
:10320000FB78013BBA68024340339B000B445A6091
:10321000002318461437BD465DF8047B704780B420
:1032200083B000AF78600B467B807B681B687A8830
:103230005A62002318460C37BD465DF8047B704780
:1032400080B483B000AF78600B46FB7000BF0C37D2
:10325000BD465DF8047B704780B586B000AF7860EE
:103260007B68002B01D1012367E27B681B6803F0B8
:103270000103002B75D0884B9B6803F00C03042BD3
:103280000CD0854B9B6803F00C03082B12D1824BAA
:103290005B6803F48003B3F5800F0BD17E4B1B6892
:1032A00003F40033002B5BD07B685B68002B57D1A5
:1032B000012342E27B685B68B3F5803F06D1764B21
:1032C0001B68754A43F4803313601DE07B685B68BC
:1032D000B3F5A02F0CD1704B1B686F4A43F48023C9
:1032E00013606D4B1B686C4A43F4803313600BE032
:1032F000694B1B68684A23F480331360664B1B6874
:10330000654A23F4802313607B685B68002B13D02D
:10331000FEF770FA386108E0FEF76CFA02463B6986
:10332000D31A642B01D9032307E25B4B1B6803F418
:103330000033002BF0D014E0FEF75CFA386108E0AF
:10334000FEF758FA02463B69D31A642B01D90323CE
:10335000F3E1514B1B6803F40033002BF0D100E084
:1033600000BF7B681B6803F00203002B63D04A4B4D
:103370009B6803F00C03002B0BD0474B9B6803F0BA
:103380000C03082B1CD1444B5B6803F48003002B17
:1033900016D1414B1B6803F00203002B05D07B685C
:1033A000DB68012B01D00123C7E13B4B1B6823F0F5
:1033B000F8027B681B69DB00374913430B603AE076
:1033C0007B68DB68002B20D0344B01221A60FEF7AB
:1033D00011FA386108E0FEF70DFA02463B69D31A8C
:1033E000022B01D90323A8E12B4B1B6803F0020336
:1033F000002BF0D0284B1B6823F0F8027B681B6978
:10340000DB00254913430B6015E0244B00221A60B2
:10341000FEF7F0F9386108E0FEF7ECF902463B6987
:10342000D31A022B01D9032387E11B4B1B6803F03E
:103430000203002BF0D17B681B6803F00803002B0C
:1034400036D07B685B69002B16D0154B01221A60C1
:10345000FEF7D0F9386108E0FEF7CCF902463B6987
:10346000D31A022B01D9032367E10B4B5B6F03F0E7
:103470000203002BF0D01BE0094B00221A60FEF77C
:10348000B9F938610EE0FEF7B5F902463B69D31A87
:10349000022B07D9032350E10038024000004742C5
:1034A000800E4742884B5B6F03F00203002BEAD18A
:1034B0007B681B6803F00403002B00F09780002357
:1034C000FB75814B1B6C03F08053002B0FD1002345
:1034D000BB607D4B1B6C7C4A43F0805313647A4B7A
:1034E0001B6C03F08053BB60BB680123FB75774BFB
:1034F0001B6803F48073002B18D1744B1B68734A4C
:1035000043F480731360FEF775F9386108E0FEF745
:1035100071F902463B69D31A022B01D903230CE14E
:103520006A4B1B6803F48073002BF0D07B689B68A8
:10353000012B06D1644B1B6F634A43F001031367F1
:103540001CE07B689B68052B0CD15F4B1B6F5E4AB0
:1035500043F0040313675C4B1B6F5B4A43F00103AA
:1035600013670BE0584B1B6F574A23F00103136797
:10357000554B1B6F544A23F0040313677B689B6809
:10358000002B15D0FEF736F938610AE0FEF732F964
:1035900002463B69D31A41F28832934201D9032390
:1035A000CBE0494B1B6F03F00203002BEED014E07D
:1035B000FEF720F938610AE0FEF71CF902463B6984
:1035C000D31A41F28832934201D90323B5E03E4B2E
:1035D0001B6F03F00203002BEED1FB7D012B05D105
:1035E000394B1B6C384A23F0805313647B689B690A
:1035F000002B00F0A180344B9B6803F00C03082BD8
:103600005CD07B689B69022B41D1314B00221A6050
:10361000FEF7F0F8386108E0FEF7ECF802463B6987
:10362000D31A022B01D9032387E0274B1B6803F031
:103630000073002BF0D17B68DA697B681B6A1A4340
:103640007B685B6A9B011A437B689B6A5B08013B52
:103650001B041A437B68DB6A1B061B4913434B6040
:103660001B4B01221A60FEF7C5F8386108E0FEF72F
:10367000C1F802463B69D31A022B01D903235CE04F
:10368000114B1B6803F00073002BF0D054E0104B7B
:1036900000221A60FEF7AEF8386108E0FEF7AAF8DB
:1036A00002463B69D31A022B01D9032345E0064B9E
:1036B0001B6803F00073002BF0D13DE07B689B6931
:1036C000012B07D1012338E0003802400070004090
:1036D000600047421B4B5B68FB607B689B69012B6A
:1036E00028D0FB6803F480027B68DB699A4221D111
:1036F000FB6803F03F027B681B6A9A421AD1FA68A2
:1037000047F6C07313407A68526A9201934211D10E
:10371000FB6803F440327B689B6A5B08013B1B0437
:103720009A4207D1FB6803F070627B68DB6A1B0674
:103730009A4201D0012300E0002318461837BD4605
:1037400080BD00BF0038024080B584B000AF786013
:1037500039607B68002B01D10123CCE0684B1B68EA
:1037600003F007033A689A420CD9654B3A68D2B223
:103770001A70634B1B6803F007033A689A4201D042
:103780000123B8E07B681B6803F00203002B20D004
:103790007B681B6803F00403002B05D0594B9B6822
:1037A000584A43F4E05393607B681B6803F00803B6
:1037B000002B05D0534B9B68524A43F460439360FF
:1037C000504B9B6823F0F0027B689B684D49134384
:1037D0008B607B681B6803F00103002B44D07B687F
:1037E0005B68012B07D1474B1B6803F40033002BA8
:1037F00019D101237FE07B685B68022B03D07B68D3
:103800005B68032B07D13F4B1B6803F00073002B51
:1038100009D101236FE03B4B1B6803F00203002B2F
:1038200001D1012367E0374B9B6823F003027B68DB
:103830005B68344913438B60FDF7DCFFF8600AE0F6
:10384000FDF7D8FF0246FB68D31A41F28832934253
:1038500001D903234FE02B4B9B6803F00C027B68DC
:103860005B689B009A42EBD1254B1B6803F0070372
:103870003A689A420CD2224B3A68D2B21A70204B64
:103880001B6803F007033A689A4201D0012332E033
:103890007B681B6803F00403002B08D0194B9B685E
:1038A00023F4E0527B68DB68164913438B607B6826
:1038B0001B6803F00803002B09D0124B9B6823F40C
:1038C00060427B681B69DB000E4913438B6000F08C
:1038D00021F802460B4B9B681B0903F00F030A49B2
:1038E000CB5C22FA03F3094A1360094B1B681846A4
:1038F000FDF73CFF002318461037BD4680BD00BFD2
:10390000003C024000380240F4B6000800000020ED
:10391000040000202DE9B04F90B000AF00237B637E
:103920000023FB6300233B630023BB63594B9B686D
:1039300003F00C03082B0DD0082B00F2A180002B04
:1039400002D0042B03D09BE0534BBB639BE0534B53
:10395000BB6398E04F4B5B6803F03F037B634D4BC9
:103960005B6803F48003002B28D04A4B5B689B09FB
:1039700000223B627A623B6AC3F308000021474B96
:1039800003FB01F2002300FB03F31344434AA0FBB3
:103990000212FA620A46BA62FA6A1344FB627B6B4D
:1039A0000022BB61FA61D7E90623D7E90A01FDF7D6
:1039B00003F902460B461346FB6353E0354B5B6845
:1039C0009B0900223B617A613B69C3F3080A4FF00F
:1039D000000B52465B464FF000004FF000015901CA
:1039E00041EAD261500102460B46B2EB0A0863EB92
:1039F0000B094FF000024FF000034FEA891343EA2E
:103A000098634FEA8812B2EB080463EB09054FF0A4
:103A100000024FF00003EB0043EA5473E200144647
:103A20001D4614EB0A033B6045EB0B037B604FF034
:103A300000024FF00003D7E9004529468B022146DA
:103A400043EA915321468A02104619467B6B0022B5
:103A5000BB60FA60D7E90223FDF7AEF802460B46D9
:103A60001346FB630B4B5B681B0C03F00303013332
:103A70005B003B63FA6B3B6BB2FBF3F3BB6302E0AF
:103A8000054BBB6300BFBB6B18464037BD46BDE866
:103A9000B08F00BF003802400024F40040787D0160
:103AA00080B400AF034B1B681846BD465DF8047B2D
:103AB000704700BF0000002080B582B000AF786082
:103AC0007B68002B01D1012341E07B6893F83D30F6
:103AD000DBB2002B06D17B68002283F83C2078689B
:103AE000FDF746FC7B68022283F83D207B681A685C
:103AF0007B6804331946104600F0F4FB7B68012212
:103B000083F846207B68012283F83E207B680122EF
:103B100083F83F207B68012283F840207B680122E4
:103B200083F841207B68012283F842207B680122D0
:103B300083F843207B68012283F844207B680122BC
:103B400083F845207B68012283F83D200023184636
:103B50000837BD4680BD80B582B000AF78607B6815
:103B6000002B01D1012341E07B6893F83D30DBB2AB
:103B7000002B06D17B68002283F83C20786800F097
:103B800039F87B68022283F83D207B681A687B68DD
:103B900004331946104600F0A5FB7B68012283F828
:103BA00046207B68012283F83E207B68012283F84F
:103BB0003F207B68012283F840207B68012283F844
:103BC00041207B68012283F842207B68012283F830
:103BD00043207B68012283F844207B68012283F81C
:103BE00045207B68012283F83D20002318460837D2
:103BF000BD4680BD80B483B000AF786000BF0C3795
:103C0000BD465DF8047B704780B584B000AF786036
:103C100039603B68002B09D17B6893F83E30DBB2FA
:103C2000012B14BF01230023DBB222E03B68042BED
:103C300009D17B6893F83F30DBB2012B14BF01231D
:103C40000023DBB215E03B68082B09D17B6893F8B1
:103C50004030DBB2012B14BF01230023DBB208E0AC
:103C60007B6893F84130DBB2012B14BF01230023A2
:103C7000DBB2002B01D0012368E03B68002B04D1AC
:103C80007B68022283F83E2013E03B68042B04D1BA
:103C90007B68022283F83F200BE03B68082B04D1AD
:103CA0007B68022283F8402003E07B68022283F8CD
:103CB00041207B681B6801223968184600F0C4FD6A
:103CC0007B681B68234A934207D17B681B685A6C48
:103CD0007B681B6842F400425A647B681B681D4A7B
:103CE000934218D07B681B68B3F1804F13D07B6878
:103CF0001B68194A93420ED07B681B68174A93428F
:103D000009D07B681B68164A934204D07B681B6805
:103D1000144A934211D17B681B689B6803F0070328
:103D2000FB60FB68062B10D07B681B681A687B68F9
:103D30001B6842F001021A6007E07B681B681A6882
:103D40007B681B6842F001021A6000231846103796
:103D5000BD4680BD00000140000400400008004056
:103D6000000C00400040014080B586B000AF786094
:103D700039607B68002B01D1012397E07B6893F8C1
:103D80003D30DBB2002B06D17B68002283F83C205B
:103D90007868FDF70DFB7B68022283F83D207B6885
:103DA0001B689B687A68126823F4804323F007033A
:103DB00093607B681A687B6804331946104600F0EC
:103DC00091FA7B681B689B687B617B681B689B69B9
:103DD0003B617B681B681B6AFB603B681B687A69F8
:103DE00013437B613B6923F4407323F003033B617E
:103DF0003B689A683B689B691B0213433A6913430B
:103E00003B613B6923F4406323F00C033B613B6956
:103E100023F4704323F0F0033B613B68DA683B68AE
:103E2000DB691B0213433A6913433B613B681B691F
:103E30001A013B681B6A1B0313433A6913433B6136
:103E4000FB6823F02203FB60FB6823F08803FB6020
:103E50003B685A683B685B691B011343FA6813436C
:103E6000FB607B681B687A699A607B681B683A69AB
:103E70009A617B681B68FA681A627B68012283F882
:103E800046207B68012283F83E207B68012283F86C
:103E90003F207B68012283F842207B68012283F85F
:103EA00043207B68012283F83D2000231846183701
:103EB000BD4680BD80B584B000AF786039607B6856
:103EC00093F83E30FB737B6893F83F30BB737B689D
:103ED00093F842307B737B6893F843303B733B68C5
:103EE000002B10D1FB7B012B02D17B7B012B01D05E
:103EF000012369E07B68022283F83E207B6802226E
:103F000083F8422031E03B68042B10D1BB7B012BAE
:103F100002D13B7B012B01D0012355E07B680222BB
:103F200083F83F207B68022283F843201DE0FB7B5F
:103F3000012B08D1BB7B012B05D17B7B012B02D14F
:103F40003B7B012B01D001233EE07B68022283F8FA
:103F50003E207B68022283F83F207B68022283F8A0
:103F600042207B68022283F843203B68002B03D069
:103F70003B68042B08D00FE07B681B6801220021FE
:103F8000184600F061FC16E07B681B6801220421E2
:103F9000184600F059FC0EE07B681B6801220021E6
:103FA000184600F051FC7B681B680122042118466A
:103FB00000F04AFC00BF7B681B681A687B681B68BE
:103FC00042F001021A60002318461037BD4680BD3A
:103FD00080B586B000AFF860B9607A600023FB75E9
:103FE000FB6893F83C30012B01D10223AEE0FB6863
:103FF000012283F83C207B680C2B00F29F8001A2F9
:1040000052F823F0394000083D4100083D410008C6
:104010003D410008794000083D4100083D4100084D
:104020003D410008BB4000083D4100083D410008FB
:104030003D410008FB400008FB681B68B968184652
:1040400000F0DCF9FB681B689A69FB681B6842F0AA
:1040500008029A61FB681B689A69FB681B6822F07A
:1040600004029A61FB681B689969BB681A69FB685E
:104070001B680A439A6164E0FB681B68B9681846CC
:1040800000F022FAFB681B689A69FB681B6842F41F
:1040900000629A61FB681B689A69FB681B6822F4DE
:1040A00080629A61FB681B689969BB681B691A0288
:1040B000FB681B680A439A6143E0FB681B68B968A8
:1040C000184600F06DFAFB681B68DA69FB681B682C
:1040D00042F00802DA61FB681B68DA69FB681B685A
:1040E00022F00402DA61FB681B68D969BB681A69AF
:1040F000FB681B680A43DA6123E0FB681B68B96848
:10410000184600F0B7FAFB681B68DA69FB681B68A1
:1041100042F40062DA61FB681B68DA69FB681B68BD
:1041200022F48062DA61FB681B68D969BB681B698D
:104130001A02FB681B680A43DA6102E00123FB757F
:1041400000BFFB68002283F83C20FB7D184618372F
:10415000BD4680BD80B584B000AF78603960002373
:10416000FB737B6893F83C30012B01D10223B4E050
:104170007B68012283F83C207B68022283F83D2083
:104180007B681B689B68BB60BB6823F07703BB60E0
:10419000BB6823F47F43BB607B681B68BA689A6086
:1041A0003B681B68B3F5005F3ED0B3F5005F00F2DB
:1041B0008780B3F5805F00F08680B3F5805F7FD89D
:1041C000702B1AD0702B7BD8602B50D0602B77D8F7
:1041D000502B3CD0502B73D8402B58D0402B6FD84D
:1041E000302B64D0302B6BD8202B60D0202B67D89D
:1041F000002B5CD0102B5AD062E07B6818683B68BB
:1042000099683B685A683B68DB6800F0FDFA7B6898
:104210001B689B68BB60BB6843F07703BB607B682F
:104220001B68BA689A604FE07B6818683B689968B9
:104230003B685A683B68DB6800F0E6FA7B681B68FD
:104240009A687B681B6842F480429A603CE07B6815
:1042500018683B6859683B68DB681A4600F05AFAF0
:104260007B681B685021184600F0B3FA2CE07B688D
:1042700018683B6859683B68DB681A4600F079FAB1
:104280007B681B686021184600F0A3FA1CE07B687D
:1042900018683B6859683B68DB681A4600F03AFAD0
:1042A0007B681B684021184600F093FA0CE07B689D
:1042B0001A683B681B681946104600F08AFA03E04A
:1042C0000123FB7300E000BF7B68012283F83D20DF
:1042D0007B68002283F83C20FB7B18461037BD46E4
:1042E00080BD000080B485B000AF786039607B6825
:1042F0001B68FB607B683A4A93420FD07B68B3F13E
:10430000804F0BD07B68374A934207D07B68364A90
:10431000934203D07B68354A934208D1FB6823F06F
:104320007003FB603B685B68FA681343FB607B6863
:104330002B4A93421BD07B68B3F1804F17D07B6828
:10434000284A934213D07B68274A93420FD07B6858
:10435000264A93420BD07B68254A934207D07B685C
:10436000244A934203D07B68234A934208D1FB68D6
:1043700023F44073FB603B68DB68FA681343FB601F
:10438000FB6823F080023B685B691343FB607B683A
:10439000FA681A603B689A687B68DA623B681A6858
:1043A0007B689A627B680E4A934203D13B681A6924
:1043B0007B681A637B6801225A617B681B6903F082
:1043C0000103012B05D17B681B6923F001027B6887
:1043D0001A6100BF1437BD465DF8047B704700BF0B
:1043E000000001400004004000080040000C0040B4
:1043F00000400140004401400048014080B487B0C3
:1044000000AF786039607B681B6A7B617B681B6AE0
:1044100023F001027B681A627B685B683B617B6802
:104420009B69FB60FB6823F07003FB60FB6823F073
:104430000303FB603B681B68FA681343FB607B69FE
:1044400023F002037B613B689B687A6913437B61BD
:104450007B681C4A93420CD17B6923F008037B6183
:104460003B68DB687A6913437B617B6923F0040353
:104470007B617B68134A934211D13B6923F48073BB
:104480003B613B6923F400733B613B685B693A69BC
:1044900013433B613B689B693A6913433B617B680B
:1044A0003A695A607B68FA689A613B685A687B6827
:1044B0005A637B687A691A6200BF1C37BD465DF893
:1044C000047B70470000014080B487B000AF786083
:1044D00039607B681B6A7B617B681B6A23F0100272
:1044E0007B681A627B685B683B617B689B69FB60E9
:1044F000FB6823F4E043FB60FB6823F44073FB603C
:104500003B681B681B02FA681343FB607B6923F05E
:1045100020037B613B689B681B017A6913437B61C5
:104520007B681E4A93420DD17B6923F080037B6137
:104530003B68DB681B017A6913437B617B6923F06D
:1045400040037B617B68154A934213D13B6923F496
:1045500080633B613B6923F400633B613B685B69BB
:104560009B003A6913433B613B689B699B003A6936
:1045700013433B617B683A695A607B68FA689A61C9
:104580003B685A687B689A637B687A691A6200BFE5
:104590001C37BD465DF8047B704700BF000001403A
:1045A00080B487B000AF786039607B681B6A7B613C
:1045B0007B681B6A23F480727B681A627B685B6885
:1045C0003B617B68DB69FB60FB6823F07003FB6089
:1045D000FB6823F00303FB603B681B68FA68134326
:1045E000FB607B6923F400737B613B689B681B0263
:1045F0007A6913437B617B681D4A93420DD17B69C5
:1046000023F400637B613B68DB681B027A69134318
:104610007B617B6923F480637B617B68144A9342EE
:1046200013D13B6923F480533B613B6923F400536E
:104630003B613B685B691B013A6913433B613B6823
:104640009B691B013A6913433B617B683A695A6075
:104650007B68FA68DA613B685A687B68DA637B6872
:104660007A691A6200BF1C37BD465DF8047B70474B
:104670000000014080B487B000AF786039607B688B
:104680001B6A3B617B681B6A23F480527B681A6259
:104690007B685B687B617B68DB69FB60FB6823F49C
:1046A000E043FB60FB6823F44073FB603B681B68DE
:1046B0001B02FA681343FB603B6923F400533B6120
:1046C0003B689B681B033A6913433B617B68104A54
:1046D000934209D17B6923F480437B613B685B692A
:1046E0009B017A6913437B617B687A695A607B68B6
:1046F000FA68DA613B685A687B681A647B683A69D1
:104700001A6200BF1C37BD465DF8047B704700BFCE
:104710000000014080B487B000AFF860B9607A60F3
:10472000FB681B6A7B61FB681B6A23F00102FB6864
:104730001A62FB689B693B613B6923F0F0033B61B4
:104740007B681B013A6913433B617B6923F00A03D1
:104750007B617A69BB6813437B61FB683A699A6144
:10476000FB687A691A6200BF1C37BD465DF8047B9E
:10477000704780B487B000AFF860B9607A60FB68BA
:104780001B6A7B61FB681B6A23F01002FB681A62DC
:10479000FB689B693B613B6923F470433B617B6829
:1047A0001B033A6913433B617B6923F0A0037B61E0
:1047B000BB681B017A6913437B61FB683A699A61A4
:1047C000FB687A691A6200BF1C37BD465DF8047B3E
:1047D000704780B485B000AF786039607B689B68B3
:1047E000FB60FB6823F07003FB603A68FB681343CF
:1047F00043F00703FB607B68FA689A6000BF1437D8
:10480000BD465DF8047B704780B487B000AFF860A8
:10481000B9607A603B60FB689B687B617B6923F4CD
:104820007F437B613B681A027B681A43BB68134372
:104830007A6913437B61FB687A699A6000BF1C3711
:10484000BD465DF8047B704780B487B000AFF86068
:10485000B9607A60BB6803F01F03012202FA03F318
:104860007B61FB681A6A7B69DB431A40FB681A624A
:10487000FB681A6ABB6803F01F03796801FA03F347
:104880001A43FB681A6200BF1C37BD465DF8047B03
:104890007047000080B485B000AF786039607B68F5
:1048A00093F83C30012B01D1022350E07B680122B8
:1048B00083F83C207B68022283F83D207B681B68DC
:1048C0005B68FB607B681B689B68BB60FB6823F0D0
:1048D0007003FB603B681B68FA681343FB607B68EE
:1048E0001B68FA685A607B681B681C4A934218D0A0
:1048F0007B681B68B3F1804F13D07B681B68184A34
:1049000093420ED07B681B68164A934209D07B689D
:104910001B68154A934204D07B681B68134A934274
:104920000CD1BB6823F08003BB603B685B68BA684E
:104930001343BB607B681B68BA689A607B6801227E
:1049400083F83D207B68002283F83C200023184632
:104950001437BD465DF8047B704700BF000001407E
:104960000004004000080040000C004000400140EE
:1049700084B080B584B000AF786007F11C0080E897
:104980000E0097F82130012B23D17B689B6B23F419
:1049900080327B689A637B68DB6823F4840323F0AE
:1049A00040037A68D3607B68DB6823F440127B683D
:1049B000DA6097F82830012B05D17B68DB6843F477
:1049C00080127B68DA60786801F0E8FA0346FB73CE
:1049D0001BE07B68DB6843F040027B68DA60786844
:1049E00001F0DCFA0346FB7397F82530002B06D163
:1049F0007B689B6B43F480327B689A6305E07B683D
:104A00009B6B23F480327B689A63BB7F012B0BD1B5
:104A10007B689B6843F006027B689A607B689B68B2
:104A200043F020027B689A60FB7B18461037BD4636
:104A3000BDE8804004B0704780B487B000AFF86034
:104A4000B9601346FB71FB79022B65D1BB68414A03
:104A5000934206D9BB68404A934202D20F237B613E
:104A600062E0BB683C4A934206D3BB683B4A934230
:104A700002D20E237B6157E0BB68384A934206D3CB
:104A8000BB68374A934202D20D237B614CE0BB687E
:104A9000334A934206D3BB68324A934202D80C236E
:104AA0007B6141E0BB682F4A934206D9BB682E4A1E
:104AB000934202D80B237B6136E0BB682A4A9342BB
:104AC00006D9BB68294A934202D80A237B612BE0AE
:104AD000BB68264A934206D9BB68254A934202D254
:104AE00009237B6120E0BB68214A934206D3BB685F
:104AF000204A934202D808237B6115E0BB681D4A17
:104B0000934206D9BB681C4A934202D207237B61B9
:104B10000AE006237B6107E0FB79002B02D1092321
:104B20007B6101E009237B61FB68DB6823F4705241
:104B3000FB68DA60FB68DA687B699B0203F47053F8
:104B40001A43FB68DA60002318461C37BD465DF83F
:104B5000047B7047BFACD800C0E1E4000024F4003F
:104B6000807306019F491A01FF2C31013FA44C01BB
:104B700000366E011FABA6010048E80180B483B087
:104B800000AF78607B689B6843F001027B689A60A5
:104B9000002318460C37BD465DF8047B704780B48F
:104BA00083B000AF78607B689B6823F001027B686C
:104BB0009A60002318460C37BD465DF8047B7047A9
:104BC00080B584B000AF78600B46FB700023FB60BB
:104BD0007B68DB6823F0C0427B68DA60FB78012BDE
:104BE00015D17B68DB6843F000527B68DA600A20ED
:104BF000FCF70CFEFB680A33FB60786801F03FF9B4
:104C00000346012B1ED0FB68C72BF0D91AE0FB78B6
:104C1000002B15D17B68DB6843F080427B68DA604B
:104C20000A20FCF7F3FDFB680A33FB60786801F0AB
:104C300026F90346002B05D0FB68C72BF0D901E00D
:104C4000012305E0FB68C82B01D1012300E000230C
:104C500018461037BD4680BD84B080B586B000AF21
:104C6000786007F1240080E80E000023FB757B6864
:104C7000FB6000233B6109E07A683B6940339B009D
:104C8000134400225A603B6901333B613B690E2BA0
:104C9000F2D997F82E30002B1CD1FB6803F5006386
:104CA0005B68FA6802F5006243F0020353607B68B8
:104CB0009B6B43F400127B689A637B689B6B23F4C5
:104CC00000227B689A637B689B6B23F480227B685D
:104CD0009A630BE07B689B6B23F400127B689A63FA
:104CE0007B689B6B43F400227B689A63FB6803F547
:104CF00060631A460023136097F82930012B0DD109
:104D000097F82730002B04D10021786800F068F96B
:104D100008E00121786800F063F903E00321786876
:104D200000F05EF91021786800F0FAF80346002BD5
:104D300001D00123FB75786800F024F90346002BAD
:104D400001D00123FB75FB6803F500631A460023BD
:104D50001361FB6803F500631A4600235361FB6887
:104D600003F500631A460023D36100233B6143E04F
:104D70003B695A01FB68134403F510631B6803F099
:104D80000043B3F1004F18D13B69002B0AD13B69B6
:104D90005A01FB68134403F510631A464FF0006391
:104DA000136013E03B695A01FB68134403F5106379
:104DB0001A464FF09043136008E03B695A01FB68C4
:104DC000134403F510631A46002313603B695A012C
:104DD000FB68134403F510631A46002313613B6913
:104DE0005A01FB68134403F510631A464FF67F33EC
:104DF00093603B6901333B6197F824301A463B6965
:104E00009342B5D300233B6143E03B695A01FB6801
:104E1000134403F530631B6803F00043B3F1004F04
:104E200018D13B69002B0AD13B695A01FB68134436
:104E300003F530631A464FF00063136013E03B69DB
:104E40005A01FB68134403F530631A464FF0904350
:104E5000136008E03B695A01FB68134403F53063B3
:104E60001A46002313603B695A01FB68134403F59B
:104E700030631A46002313613B695A01FB681344EF
:104E800003F530631A464FF67F3393603B69013375
:104E90003B6197F824301A463B699342B5D3FB68CF
:104EA00003F500631B69FA6802F5006223F480735E
:104EB00013617B6800229A617B686FF080425A61BF
:104EC00097F82630002B05D17B689B6943F01002D0
:104ED0007B689A617B689A69104B13437A68936187
:104EE00097F82A30002B05D07B689B6943F00802B5
:104EF0007B689A6197F82E30012B07D17B689B69FC
:104F000043F0804343F004037A689361FB7D1846C5
:104F10001837BD46BDE8804004B0704700383C807B
:104F200080B485B000AF786039600023FB60FB6817
:104F30000133FB60FB68B3F1706F01D903231BE001
:104F40007B681B69002BF2DA0023FB603B689B0146
:104F500043F020027B681A61FB680133FB60FB6849
:104F6000B3F1706F01D9032306E07B681B6903F07E
:104F70002003202BF0D0002318461437BD465DF8DF
:104F8000047B704780B485B000AF78600023FB607D
:104F9000FB680133FB60FB68B3F1706F01D9032339
:104FA00018E07B681B69002BF2DA0023FB607B684A
:104FB00010221A61FB680133FB60FB68B3F1706F6C
:104FC00001D9032306E07B681B6903F01003102B53
:104FD000F0D0002318461437BD465DF8047B7047B7
:104FE00080B485B000AF78600B46FB707B68FB60D7
:104FF000FB6803F500631A68FB78F96801F5006146
:1050000013430B60002318461437BD465DF8047B3C
:10501000704780B487B000AF78607B683B613B69C4
:1050200003F500639B6803F00603FB60FB68002B3D
:1050300002D10023FB750AE0FB68022B02D0FB685B
:10504000062B02D10223FB7501E00F23FB75FB7DCC
:1050500018461C37BD465DF8047B704780B485B0A8
:1050600000AF786039607B68FB603B681B78BB6091
:105070003B685B78012B3AD1FB6803F50063DA6982
:105080003B681B7803F00F03012101FA03F39BB285
:10509000F96801F500611343CB61BB685A01FB68F5
:1050A000134403F510631B6803F40043002B55D130
:1050B000BB685A01FB68134403F510631A683B6828
:1050C0009B68C3F30A013B681B799B041943BB68C7
:1050D0009B050B431343BA685101FA680A4402F571
:1050E000106243F0805343F40043136036E0FB68E2
:1050F00003F50063DA693B681B7803F00F030121B5
:1051000001FA03F31B04F96801F500611343CB6155
:10511000BB685A01FB68134403F530631B6803F452
:105120000043002B1AD1BB685A01FB68134403F5F6
:1051300030631A683B689B68C3F30A013B681B79BC
:105140009B040B431343BA685101FA680A4402F501
:10515000306243F0805343F4004313600023184649
:105160001437BD465DF8047B7047000080B485B0FD
:1051700000AF786039607B68FB603B681B78BB6080
:105180003B685B78012B61D1BB685A01FB68134413
:1051900003F510631B6803F00043B3F1004F1FD108
:1051A000BB685A01FB68134403F510631B68BA68B7
:1051B0005101FA680A4402F5106243F0006313607B
:1051C000BB685A01FB68134403F510631B68BA6897
:1051D0005101FA680A4402F5106243F080431360FB
:1051E000FB6803F50063DA6B3B681B7803F00F0381
:1051F000012101FA03F39BB2DB43F96801F5006179
:105200001340CB63FB6803F50063DA693B681B78E6
:1052100003F00F03012101FA03F39BB2DB43F968AA
:1052200001F500611340CB61BB685A01FB68134470
:1052300003F510631A68BB685901FB680B4403F55A
:1052400010631946354B13400B6060E0BB685A0190
:10525000FB68134403F530631B6803F00043B3F1AC
:10526000004F1FD1BB685A01FB68134403F530633C
:105270001B68BA685101FA680A4402F5306243F0CB
:1052800000631360BB685A01FB68134403F5306385
:105290001B68BA685101FA680A4402F5306243F0AB
:1052A00080431360FB6803F50063DA6B3B681B788F
:1052B00003F00F03012101FA03F31B04DB43F96838
:1052C00001F500611340CB63FB6803F50063DA6905
:1052D0003B681B7803F00F03012101FA03F31B0461
:1052E000DB43F96801F500611340CB61BB685A01EB
:1052F000FB68134403F530631A68BB685901FB6807
:105300000B4403F530631946054B13400B60002333
:1053100018461437BD465DF8047B7047007833ECBF
:105320000078F3EF80B58AB002AFF860B960134639
:10533000FB71FB68FB61BB681B78BB61BB685B787A
:10534000012B40F07F81BB681B69002B32D1BB6908
:105350005A01FB69134403F510631B69BA695101D3
:10536000FA690A4402F5106223F0FF5323F4C013D4
:105370001361BB695A01FB69134403F510631B6990
:10538000BA695101FA690A4402F5106243F4002334
:105390001361BB695A01FB69134403F510631B6970
:1053A000BA695101FA690A4402F51062DB0CDB04A8
:1053B000136197E0BB695A01FB69134403F510635D
:1053C0001B69BA695101FA690A4402F51062DB0CE3
:1053D000DB041361BB695A01FB69134403F51063D5
:1053E0001B69BA695101FA690A4402F5106223F097
:1053F000FF5323F4C0131361BB69002B1AD1BB68A0
:105400001A69BB689B689A4203D9BB689A68BB68F3
:105410001A61BB695A01FB69134403F510631B69E8
:10542000BA695101FA690A4402F5106243F4002393
:10543000136144E0BB681A69BB689B6813445A1E39
:10544000BB689B68B2FBF3F3FB82BB695A01FB6943
:10545000134403F510631A69FB8AD904A44B0B406B
:10546000B9694801F969014401F5106113430B6101
:10547000BB681B79012B22D1BB695A01FB6913441C
:1054800003F510631B69BA695101FA690A4402F510
:10549000106223F0C0431361BB695A01FB691344D6
:1054A00003F510631A69FB8A5B0703F0C043B9690F
:1054B0004801F969014401F5106113430B61BB69AF
:1054C0005A01FB69134403F510631A69BB681B6931
:1054D000C3F31203B9694801F969014401F5106188
:1054E00013430B61FB79012B4BD1BB68DB69002BAC
:1054F00009D0BB695A01FB69134403F510631A46CE
:10550000BB68DB695361BB681B79012B28D1FB6940
:1055100003F500639B6803F48073002B10D1BB6913
:105520005A01FB69134403F510631B68BA69510102
:10553000FA690A4402F5106243F0005313600FE069
:10554000BB695A01FB69134403F510631B68BA6910
:105550005101FA690A4402F5106243F08053136066
:10556000BB695A01FB69134403F510631B68BA69F0
:105570005101FA690A4402F5106243F004431360D2
:1055800066E1BB695A01FB69134403F510631B68AC
:10559000BA695101FA690A4402F5106243F0044302
:1055A0001360BB681B79012B15D0BB681B69002BEE
:1055B00000F04E81FB6903F500635A6BBB681B78F2
:1055C00003F00F03012101FA03F3F96901F500610A
:1055D00013434B633CE1FB6903F500639B6803F4F1
:1055E0008073002B10D1BB695A01FB69134403F58A
:1055F00010631B68BA695101FA690A4402F5106226
:1056000043F0005313600FE0BB695A01FB69134478
:1056100003F510631B68BA695101FA690A4402F57F
:10562000106243F080531360BB68D968BB681A7876
:10563000BB681B6998B2FB7900930346F86800F0D9
:10564000B9F905E1BB695A01FB69134403F53063FD
:105650001B69BA695101FA690A4402F53062DB0C30
:10566000DB041361BB695A01FB69134403F5306322
:105670001B69BA695101FA690A4402F5306223F0E4
:10568000FF5323F4C0131361BB69002B32D1BB68F5
:105690001B69002B03D0BB689A68BB681A61BB68A2
:1056A0009A68BB681A62BB695A01FB69134403F527
:1056B00030631A69BB681B6AC3F31203B9694801F6
:1056C000F969014401F5306113430B61BB695A016B
:1056D000FB69134403F530631B69BA695101FA6928
:1056E0000A4402F5306243F40023136162E000BF14
:1056F0000000F81FBB681B69002B23D1BB695A014E
:10570000FB69134403F530631A69BB689B68C3F3F4
:105710001203B9694801F969014401F53061134385
:105720000B61BB695A01FB69134403F530631B69C4
:10573000BA695101FA690A4402F5306243F4002360
:10574000136137E0BB681A69BB689B6813445A1E33
:10575000BB689B68B2FBF3F3FB82BB689B68FA8A69
:1057600003FB02F2BB681A62BB695A01FB6913446E
:1057700003F530631A69FB8AD904384B0B40B969C9
:105780004801F969014401F5306113430B61BB69BC
:105790005A01FB69134403F530631A69BB681B6A3D
:1057A000C3F31203B9694801F969014401F5306195
:1057B00013430B61FB79012B0DD1BB68DB68002B18
:1057C00009D0BB68D968BB695A01FB69134403F56A
:1057D00030630A465A61BB681B79012B28D1FB69EB
:1057E00003F500639B6803F48073002B10D1BB6941
:1057F0005A01FB69134403F530631B68BA69510110
:10580000FA690A4402F5306243F0005313600FE076
:10581000BB695A01FB69134403F530631B68BA691D
:105820005101FA690A4402F5306243F08053136073
:10583000BB695A01FB69134403F530631B68BA69FD
:105840005101FA690A4402F5306243F004431360DF
:10585000002318462037BD4680BD00BF0000F81F5A
:1058600080B487B000AF786039600023FB6000230C
:10587000FB757B683B613B685B78012B4AD13B68D9
:105880001B785A013B69134403F510631B6803F04E
:105890000043B3F1004F40F086803B681B785A010B
:1058A0003B69134403F510631B683A681278510191
:1058B0003A690A4402F5106243F0006313603B68E2
:1058C0001B785A013B69134403F510631B683A685F
:1058D000127851013A690A4402F5106243F080439C
:1058E0001360FB680133FB60FB6842F21072934265
:1058F00002D90123FB7556E03B681B785A013B69CE
:10590000134403F510631B6803F00043B3F1004F29
:10591000E7D048E03B681B785A013B69134403F524
:1059200030631B6803F00043B3F1004F3BD13B6889
:105930001B785A013B69134403F530631B683A68CE
:10594000127851013A690A4402F5306243F000636B
:1059500013603B681B785A013B69134403F53063BD
:105960001B683A68127851013A690A4402F53062BC
:1059700043F080431360FB680133FB60FB6842F235
:105980001072934202D90123FB750CE03B681B782F
:105990005A013B69134403F530631B6803F000436D
:1059A000B3F1004FE7D0FB7D18461C37BD465DF8CC
:1059B000047B704780B489B000AFF860B9601146CD
:1059C0001A460B46FB711346BB80FB687B61BB68C4
:1059D000FB6197F82830002B23D1BB8803339B0849
:1059E0003B610023BB6118E0FB791A037B69134418
:1059F00003F580531A46FB691B681360FB6901338A
:105A0000FB61FB690133FB61FB690133FB61FB69EE
:105A10000133FB61BB690133BB61BA693B699A42DF
:105A2000E2D3002318462437BD465DF8047B704757
:105A300080B48BB000AFF860B9601346FB80FB68A0
:105A4000BB61BB687B62FB889B089BB27B61FB8868
:105A500003F00303FB8300233B6214E0BB6903F5FF
:105A600080531A687B6A1A607B6A01337B627B6AA7
:105A700001337B627B6A01337B627B6A01337B6229
:105A80003B6A01333B623A6A7B699A42E6D3FB8BFD
:105A9000002B1ED000233B62BB6903F580531A46DE
:105AA00007F1100312681A603A693B6ADBB2DB0047
:105AB00022FA03F3DAB27B6A1A703B6A01333B6263
:105AC0007B6A01337B62FB8B013BFB83FB8B002BEF
:105AD000EAD17B6A18462C37BD465DF8047B7047D7
