:020000040800F2
:10000000000002204D160008B5150008BD150008B7
:10001000C5150008CD150008D51500080000000022
:10002000000000000000000000000000DD150008D6
:10003000EB15000800000000F9150008071600087D
:100040009D1600089D1600089D1600089D160008C4
:100050009D1600089D1600089D1600089D160008B4
:100060009D1600089D1600089D1600089D160008A4
:100070009D1600089D1600089D1600089D16000894
:100080009D1600089D1600089D160008000000003F
:100090000000000000000000000000009D160008A5
:1000A0009D1600089D1600089D1600089D16000864
:1000B0009D1600089D1600089D1600089D16000854
:1000C0009D1600089D1600089D1600089D16000844
:1000D0009D160008151600089D1600080000000077
:1000E0009D1600089D1600089D16000800000000DF
:1000F0000000000000000000000000009D16000845
:10010000000000009D1600089D1600089D160008BE
:1001100000000000000000000000000000000000DF
:100120009D1600089D1600089D1600089D160008E3
:100130009D16000800000000000000000000000004
:100140000000000000000000000000009D160008F4
:100150009D1600089D1600089D1600089D160008B3
:100160009D1600089D160008000000000000000019
:10017000000000000000000000000000000000007F
:10018000000000009D1600080000000000000000B4
:080190009D1600089D160008F1
:1001980010B5054C237833B9044B13B10448AFF3B9
:1001A80000800123237010BD100000200000000013
:1001B8007447000808B5034B1BB103490348AFF364
:1001C800008008BD000000001400002074470008EB
:1001D80081F0004102E000BF83F0004330B54FEAF0
:1001E80041044FEA430594EA050F08BF90EA020F5D
:1001F8001FBF54EA000C55EA020C7FEA645C7FEAF0
:10020800655C00F0E2804FEA5454D4EB5555B8BF12
:100218006D420CDD2C4480EA020281EA030382EA83
:10022800000083EA010180EA020281EA0303362D15
:1002380088BF30BD11F0004F4FEA01314FF4801CE8
:100248004CEA113102D0404261EB410113F0004FFA
:100258004FEA03334CEA133302D0524263EB4303B1
:1002680094EA050F00F0A780A4F10104D5F1200E4F
:100278000DDB02FA0EFC22FA05F2801841F10001AA
:1002880003FA0EF2801843FA05F359410EE0A5F17E
:1002980020050EF1200E012A03FA0EFC28BF4CF0AF
:1002A800020C43FA05F3C01851EBE37101F0004565
:1002B80007D54FF0000EDCF1000C7EEB00006EEB72
:1002C8000101B1F5801F1BD3B1F5001F0CD34908FC
:1002D8005FEA30004FEA3C0C04F101044FEA445253
:1002E80012F5800F80F09A80BCF1004F08BF5FEADA
:1002F800500C50F1000041EB045141EA050130BDBA
:100308005FEA4C0C404141EB0101013C28BFB1F5CB
:10031800801FE9D291F0000F04BF01460020B1FA16
:1003280081F308BF2033A3F10B03B3F120020CDAE9
:100338000C3208DD02F1140CC2F10C0201FA0CF0C7
:1003480021FA02F10CE002F11402D8BFC2F1200C2C
:1003580001FA02F120FA0CFCDCBF41EA0C019040E2
:10036800E41AA2BF01EB0451294330BD6FEA04042B
:100378001F3C1CDA0C340EDC04F11404C4F1200216
:1003880020FA04F001FA02F340EA030021FA04F328
:1003980045EA030130BDC4F10C04C4F1200220FA7F
:1003A80002F001FA04F340EA0300294630BD21FABD
:1003B80004F0294630BD94F0000F83F4801306BF83
:1003C80081F480110134013D4EE77FEA645C18BF77
:1003D8007FEA655C29D094EA050F08BF90EA020F0E
:1003E80005D054EA000C04BF1946104630BD91EA06
:1003F800030F1EBF0021002030BD5FEA545C05D109
:100408004000494128BF41F0004130BD14F5800447
:100418003CBF01F5801130BD01F0004545F0FE41BB
:1004280041F470014FF0000030BD7FEA645C1ABFF0
:10043800194610467FEA655C1CBF0B46024650EA27
:10044800013406BF52EA033591EA030F41F4002153
:1004580030BD00BF90F0000F04BF0021704730B5D9
:100468004FF4806404F132044FF000054FF00001AE
:1004780050E700BF90F0000F04BF0021704730B56F
:100488004FF4806404F1320410F0004548BF404244
:100498004FF000013EE700BF42004FEAE2014FEA99
:1004A80031014FEA02701FBF12F07F4393F07F4F74
:1004B80081F06051704732F07F4208BF704793F077
:1004C8007F4F04BF41F40021704730B54FF460748A
:1004D80001F0004521F000411CE700BF50EA01028D
:1004E80008BF704730B54FF000050AE050EA010236
:1004F80008BF704730B511F0004502D5404261EBA6
:1005080041014FF4806404F132045FEA915C3FF4E6
:10051800D8AE4FF003025FEADC0C18BF03325FEA83
:10052800DC0C18BF033202EBDC02C2F1200300FA34
:1005380003FC20FA02F001FA03FE40EA0E0021FA59
:1005480002F11444BDE600BF70B54FF0FF0C4CF447
:10055800E06C1CEA11541DBF1CEA135594EA0C0FF9
:1005680095EA0C0F00F0DEF82C4481EA030621EA34
:100578004C5123EA4C5350EA013518BF52EA03356F
:1005880041F4801143F4801338D0A0FB02CE4FF021
:100598000005E1FB02E506F00042E0FB03E54FF051
:1005A8000006E1FB03569CF0000F18BF4EF0010E49
:1005B800A4F1FF04B6F5007F64F5407404D25FEA45
:1005C8004E0E6D4146EB060642EAC62141EA5551F8
:1005D8004FEAC52040EA5E504FEACE2EB4F1FD0C3A
:1005E80088BFBCF5E06F1ED8BEF1004F08BF5FEAB8
:1005F800500E50F1000041EB045170BD06F000466A
:1006080046EA010140EA020081EA0301B4EB5C0416
:10061800C2BFD4EB0C0541EA045170BD41F480110E
:100628004FF0000E013C00F3AB8014F1360FDEBF33
:10063800002001F0004170BDC4F10004203C35DA0F
:100648000C341BDC04F11404C4F1200500FA05F392
:1006580020FA04F001FA05F240EA020001F0004233
:1006680021F0004110EBD37021FA04F642EB0601A9
:100678005EEA430E08BF20EAD37070BDC4F10C04D3
:10068800C4F1200500FA04F320FA05F001FA04F297
:1006980040EA020001F0004110EBD37041F1000183
:1006A8005EEA430E08BF20EAD37070BDC4F120058E
:1006B80000FA05F24EEA020E20FA04F301FA05F2F6
:1006C80043EA020321FA04F001F0004121FA04F29E
:1006D80020EA020000EBD3705EEA430E08BF20EA6E
:1006E800D37070BD94F0000F0FD101F000464000A8
:1006F80041EB010111F4801F08BF013CF7D041EA2A
:10070800060195F0000F18BF704703F0004652002D
:1007180043EB030313F4801F08BF013DF7D043EAFE
:100728000603704794EA0C0F0CEA135518BF95EAB4
:100738000C0F0CD050EA410618BF52EA4306D1D13B
:1007480081EA030101F000414FF0000070BD50EA5A
:10075800410606BF1046194652EA430619D094EAE4
:100768000C0F02D150EA013613D195EA0C0F05D1CE
:1007780052EA03361CBF104619460AD181EA030122
:1007880001F0004141F0FE4141F470014FF00000DA
:1007980070BD41F0FE4141F4780170BD70B54FF075
:1007A800FF0C4CF4E06C1CEA11541DBF1CEA1355F5
:1007B80094EA0C0F95EA0C0F00F0A7F8A4EB0504D7
:1007C80081EA030E52EA03354FEA013100F08880CE
:1007D8004FEA03334FF0805545EA131343EA126397
:1007E8004FEA022245EA111545EA10654FEA00264C
:1007F8000EF000419D4208BF964244F1FD0404F505
:10080800407402D25B084FEA3202B61A65EB030560
:100818005B084FEA32024FF480104FF4002CB6EB1D
:10082800020E75EB030E22BFB61A754640EA0C009D
:100838005B084FEA3202B6EB020E75EB030E22BFDD
:10084800B61A754640EA5C005B084FEA3202B6EB1E
:10085800020E75EB030E22BFB61A754640EA9C00DD
:100868005B084FEA3202B6EB020E75EB030E22BFAD
:10087800B61A754640EADC0055EA060E18D04FEA6B
:10088800051545EA16754FEA06164FEAC30343EA0B
:1008980052734FEAC2025FEA1C1CC0D111F4801FD8
:1008A8000BD141EA00014FF000004FF0004CB6E7D1
:1008B80011F4801F04BF01430020B4F1FD0C88BF70
:1008C800BCF5E06F3FF6AFAEB5EB030C04BFB6EB7B
:1008D800020C5FEA500C50F1000041EB045170BD6E
:1008E8000EF0004E4EEA113114EB5C04C2BFD4EB9B
:1008F8000C0541EA045170BD41F480114FF0000E1F
:10090800013C90E645EA060E8DE60CEA135594EA9A
:100918000C0F08BF95EA0C0F3FF43BAF94EA0C0F9D
:100928000AD150EA01347FF434AF95EA0C0F7FF412
:1009380025AF104619462CE795EA0C0F06D152EA66
:1009480003353FF4FDAE1046194622E750EA41064A
:1009580018BF52EA43067FF4C5AE50EA41047FF45B
:100968000DAF52EA43057FF4EBAE12E74FEA4102BE
:10097800B2F1E04324BFB3F5001CDCF1FE5C0DD9F5
:1009880001F0004C4FEAC0024CEA5070B2F1004F3F
:1009980040EB830008BF20F00100704711F0804F42
:1009A80021D113F13872BCBF01F00040704741F407
:1009B80080114FEA5252C2F11802C2F1200C10FA0B
:1009C8000CF320FA02F018BF40F001004FEAC123EF
:1009D8004FEAD32303FA0CFC40EA0C0023FA02F393
:1009E8004FEA4303CCE77FEA625307D150EA013369
:1009F8001EBF4FF0FE4040F44000704701F0004039
:100A080040F0FE4040F40000704700BF53B94AB9B7
:100A1800002908BF00281CBF4FF0FF314FF0FF30FE
:100A280000F06AB9ADF1080C6DE904CE00F006F8E3
:100A3800DDF804E0DDE9022304B070472DE9F04752
:100A4800089D0C46002B4ED194468C458646B2FA3A
:100A580082F262D94AB1C2F12003914020FA03F32D
:100A68000CFA02FC194300FA02FE4FEA1C471FFA6F
:100A78008CF6B1FBF7F44FEA1E4307FB141143EA67
:100A8800014304FB06F199420AD91CEB030304F164
:100A9800FF3080F01281994240F20F81023C63449A
:100AA800591A1FFA8EF3B1FBF7F007FB101143EA4E
:100AB800014300FB06F69E420AD91CEB030300F132
:100AC800FF3180F0FC809E4240F2F9806344023896
:100AD8009B1B40EA044000211DB1D3400022C5E918
:100AE8000032BDE8F0878B4205D90DB1C5E9000198
:100AF80000210846F5E7B3FA83F1002946D1A3425D
:100B080002D39042C0F0F080861A64EB0303012000
:100B1800002DE6D0C5E90063E3E7002A40F09080A5
:100B2800A1EB0C044FEA1C481FFA8CF70121B4FB17
:100B3800F8F64FEA1E4308FB164443EA044307FB52
:100B480006F0984208D91CEB030306F1FF3402D2E1
:100B5800984200F2CD8026461C1A1FFA8EF3B4FB89
:100B6800F8F008FB104443EA044300FB07F79F42F0
:100B780008D91CEB030300F1FF3402D29F4200F2B4
:100B8800B0802046DB1B40EA0640A5E7C1F12006FD
:100B98008B4022FA06F71F4320FA06FC04FA01F3F9
:100BA80043EA0C03F44000FA01F8380C4FEA134901
:100BB800B4FBF0FE1FFA87FC00FB1E4449EA04441C
:100BC8000EFB0CF9A14502FA01F20AD93C190EF103
:100BD800FF3A80F08480A14540F28180AEF1020E98
:100BE8003C44A4EB09041FFA83F9B4FBF0F300FBBF
:100BF800134449EA044403FB0CFCA44507D93C19F7
:100C080003F1FF3067D2A44565D9023B3C4443EA6F
:100C18000E40A0FB0293A4EB0C049C42CE469C46DB
:100C280051D34ED055B1B8EB0E0364EB0C0404FA63
:100C380006F6CB401E43CC40C5E90064002150E7CE
:100C4800C2F1200320FA03F10CFA02FC24FA03F3A0
:100C580094400C434FEA1C4800FA02FE1FFA8CF736
:100C6800B3FBF8F008FB1031230C43EA014300FB07
:100C780007F1994208D91CEB030300F1FF362CD287
:100C880099422AD9023863445B1AA4B2B3FBF8F13B
:100C980008FB113344EA034401FB07F3A34208D9D4
:100CA8001CEB040401F1FF3613D2A34211D9023917
:100CB8006444E41A41EA004139E70446F0E608468C
:100CC80006E7C845AED2B9EB020E63EB070C013854
:100CD800A8E73146EDE7034699E73046D4E7D6461C
:100CE8007FE7634402384DE70646234608460FE788
:100CF800023E634430E700BF704700BF80B500AFD5
:100D080001222021044801F0F7FA002210210248AC
:100D180001F0F2FA00BF80BD0004024080B485B043
:100D280000AF0346FB71FB79642B01D96423FB7187
:100D3800FB790A4A1268D26A02FB03F3084AA2FB4B
:100D480003235B09FB60054B1B68FA689A6300BFC5
:100D58001437BD465DF8047B704700BF740000205F
:100D68001F85EB5180B500AF00F096FC00F02EF81F
:100D780000F094F900F068F900F090F800F0E0F85D
:100D880001220F490F4802F0A1FD00210E4801F091
:100D9800CDFF04210C4801F0C9FFFFF7AFFF642025
:100DA800FFF7BCFF4FF47A7000F0E8FC0520FFF76E
:100DB800B5FF41F2883000F0E1FC00BFEFE700BF6B
:100DC80004010020BC0000207400002080B594B00D
:100DD80000AF07F1200330220021184603F09AFCE7
:100DE80007F10C0300221A605A609A60DA601A61EF
:100DF8000023BB60274B1B6C264A43F080531364C7
:100E0800244B1B6C03F08053BB60BB6800237B60E2
:100E1800214B1B68204A43F4404313601E4B1B6858
:100E280003F440437B607B6802233B620123FB623F
:100E380010233B630223BB630023FB6308233B644B
:100E480048237B640223BB640423FB6407F120036B
:100E5800184601F06BFA0346002B01D000F06CFA3B
:100E68000F23FB6002233B6100237B614FF4805317
:100E7800BB610023FB6107F10C030221184601F056
:100E8800CDFC0346002B01D000F056FA00BF5037C6
:100E9800BD4680BD003802400070004080B584B077
:100EA80000AF3B4600221A605A609A60DA60214B14
:100EB800214A1A601F4B00225A601E4B00229A607A
:100EC8001C4B00221A611B4B00221A76194B002278
:100ED80083F82020174B0022DA62164B174A9A62D1
:100EE800144B0022DA60134B0122DA61114B002205
:100EF80083F830200F4B01225A610E4800F062FC43
:100F08000346002B01D000F017FA01233B600123B0
:100F18007B600023BB603B461946064800F096FC00
:100F28000346002B01D000F007FA00BF1037BD467A
:100F380080BD00BF2C000020002001400100000FF0
:100F480080B58EB000AF07F1280300221A605A60FE
:100F58009A60DA6007F1200300221A605A603B1D8C
:100F680000221A605A609A60DA601A615A619A61BE
:100F7800344B4FF080421A60324B47225A60314B53
:100F880000229A602F4B44F62062DA602D4B002233
:100F98001A612C4B00229A612A4801F01FFE034671
:100FA800002B01D000F0C8F94FF48053BB6207F161
:100FB80028031946234802F02BF80346002B01D0DA
:100FC80000F0BAF91F4801F058FE0346002B01D083
:100FD80000F0B2F900233B6200237B6207F1200393
:100FE8001946184802F0B4FB0346002B01D000F064
:100FF800A3F960237B604FF4FA73BB600023FB60A6
:1010080000237B613B1D002219460E4801F03EFF7C
:101018000346002B01D000F08FF90023BB603B1D75
:1010280004221946074801F031FF0346002B01D07E
:1010380000F082F9034800F011FA00BF3837BD46C6
:1010480080BD00BF7400002080B500AF114B124A6C
:101058001A60104B4FF416525A600E4B00229A60D9
:101068000C4B0022DA600B4B00221A61094B0C2250
:101078005A61084B00229A61064B0022DA61054842
:1010880002F0D4FB0346002B01D000F055F900BF55
:1010980080BD00BFBC0000200010014080B588B0B2
:1010A80000AF07F10C0300221A605A609A60DA60F8
:1010B8001A610023BB60184B1B6B174A43F00103EE
:1010C8001363154B1B6B03F00103BB60BB68002364
:1010D8007B60114B1B6B104A43F0020313630E4BEA
:1010E8001B6B03F002037B607B68002230210B48F6
:1010F80001F002F93023FB6001233B6100237B618F
:101108000023BB6107F10C031946044800F070FF87
:1011180000BF2037BD4680BD0038024000040240B1
:1011280080B582B000AF78607B681B687A4A9342CA
:1011380040F0E980794B1B784E2B0AD101222021FF
:10114800774801F0D9F800221021754801F0D4F849
:10115800D4E0724B1B78592B0AD100222021704809
:1011680001F0CAF8012210216D4801F0C5F8C5E068
:101178006A4B1B78452B0AD100222021684801F0D0
:10118800BBF800221021664801F0B6F8B6E0634BC0
:101198001B78412B55D1634B93F900301A46624BAB
:1011A8001B689A4224DD604B1B685AB25D4B1A706B
:1011B8005C4B93F900302D331846FFF75BF954A3C5
:1011C800D3E90023FFF7EAFA02460B461046194610
:1011D800FFF7CCFB0346554A1360544BD3ED007A16
:1011E800534B1B68FCEEE77A17EE902A5A6385E0AA
:1011F8004C4B93F90030DBB20133DBB25AB2494BA6
:101208001A70484B93F900302D331846FFF732F91E
:101218003FA3D3E90023FFF7C1FA02460B46104665
:101228001946FFF7A3FB0346404A13603F4BD3ED33
:10123800007A3F4B1B68FCEEE77A17EE902A5A6358
:101248005CE0364B1B78422B58D1364B93F9003073
:101258001A46354B1B685B429A4227DA324B1B68A9
:10126800DBB25B42DBB25AB22E4B1A702D4B93F9AC
:1012780000302D331846FFF7FDF825A3D3E90023E6
:10128800FFF78CFA02460B4610461946FFF76EFB2D
:101298000346264A1360254BD3ED007A244B1B687E
:1012A800FCEEE77A17EE902A5A6327E01D4B93F974
:1012B8000030DBB2013BDBB25AB21A4B1A70194B41
:1012C80093F900302D331846FFF7D4F810A3D3E96B
:1012D8000023FFF763FA02460B4610461946FFF74C
:1012E80045FB0346114A1360104BD3ED007A104BAF
:1012F8001B68FCEEE77A17EE902A5A630122074929
:101308000C4802F0E3FA00BF0837BD4680BD00BFB5
:101318000AD7A3703D0AB73F00100140040100201E
:101328000004024005010020000000200801002000
:1013380074000020BC00002080B400AF72B600BF6B
:1013480000BFFDE780B483B000AF00237B60104B83
:101358005B6C0F4A43F4804353640D4B5B6C03F49E
:1013680080437B607B6800233B60094B1B6C084A09
:1013780043F080531364064B1B6C03F080533B60AF
:101388003B6800BF0C37BD465DF8047B704700BF63
:101398000038024080B58AB000AF786007F11403C6
:1013A80000221A605A609A60DA601A617B681B68CA
:1013B800174A934227D100233B61164B5B6C154AB1
:1013C80043F480735364134B5B6C03F480733B6189
:1013D8003B690023FB600F4B1B6B0E4A43F0010374
:1013E80013630C4B1B6B03F00103FB60FB680223C8
:1013F8007B610323BB610023FB6107F114031946DA
:10140800054800F0F5FD00BF2837BD4680BD00BF88
:1014180000200140003802400000024080B485B03E
:1014280000AF78607B681B68B3F1804F0DD1002353
:10143800FB60094B1B6C084A43F001031364064B1D
:101448001B6C03F00103FB60FB6800BF1437BD464B
:101458005DF8047B704700BF0038024080B58AB051
:1014680000AF786007F1140300221A605A609A608E
:10147800DA601A617B681B68B3F1804F3BD10023A7
:101488003B611F4B1B6B1E4A43F0010313631C4B4C
:101498001B6B03F001033B613B690023FB60184BA6
:1014A8001B6B174A43F002031363154B1B6B03F0C6
:1014B8000203FB60FB6801237B610223BB610023FD
:1014C800FB6100233B6201237B6207F11403194689
:1014D8000C4800F08DFD08237B610223BB610023CB
:1014E800FB6100233B6201237B6207F11403194669
:1014F800054800F07DFD00BF2837BD4680BD00BF10
:1015080000380240000002400004024080B58AB062
:1015180000AF786007F1140300221A605A609A60DD
:10152800DA601A617B681B681D4A934234D1002334
:101538003B611C4B5B6C1B4A43F010035364194B13
:101548005B6C03F010033B613B690023FB60154BA8
:101558001B6B144A43F001031363124B1B6B03F01C
:101568000103FB60FB684FF4C0637B610223BB612E
:101578000023FB6103233B6207237B6207F114030B
:101588001946094800F034FD00220021252000F00A
:1015980066FC252000F07FFC00BF2837BD4680BDD3
:1015A80000100140003802400000024080B400AF43
:1015B80000BFFDE780B400AF00BFFDE780B400AF17
:1015C80000BFFDE780B400AF00BFFDE780B400AF07
:1015D80000BFFDE780B400AF00BFBD465DF8047BE7
:1015E800704780B400AF00BFBD465DF8047B70470C
:1015F80080B400AF00BFBD465DF8047B704780B57E
:1016080000AF00F09BF800BF80BD000080B500AFC0
:10161800024802F081F900BF80BD00BFBC00002075
:1016280080B400AF064BD3F88830054A43F4700302
:10163800C2F8883000BFBD465DF8047B704700BF24
:1016480000ED00E0DFF834D0FFF7EAFF0C480D4961
:101658000D4A002302E0D458C4500433C4188C4205
:10166800F9D30A4A0A4C002301E013600432A2426B
:10167800FBD303F057F8FFF775FB70470000022013
:101688000000002010000020B447000810000020CF
:1016980010010020FEE7000080B500AF0E4B1B686C
:1016A8000D4A43F4007313600B4B1B680A4A43F45A
:1016B80080631360084B1B68074A43F48073136008
:1016C800032000F0C1FB0F2000F008F8FFF73AFEF6
:1016D8000023184680BD00BF003C024080B582B0A0
:1016E80000AF7860124B1A68124B1B7819464FF4FA
:1016F8007A73B3FBF1F3B2FBF3F3184600F0D9FBAE
:101708000346002B01D001230EE07B680F2B0AD87B
:10171800002279684FF0FF3000F0A1FB064A7B6891
:101728001360002300E0012318460837BD4680BD3A
:10173800040000200C0000200800002080B400AF46
:10174800064B1B781A46064B1B681344044A136061
:1017580000BFBD465DF8047B704700BF0C00002049
:101768000C01002080B400AF034B1B681846BD462F
:101778005DF8047B704700BF0C01002080B584B081
:1017880000AF7860FFF7EEFFB8607B68FB60FB682E
:10179800B3F1FF3F05D00A4B1B781A46FB68134488
:1017A800FB6000BFFFF7DEFF0246BB68D31AFA688A
:1017B8009A42F7D800BF00BF1037BD4680BD00BFB2
:1017C8000C00002080B584B000AF78600023FB7364
:1017D8007B68002B01D1012333E07B681B6C002B55
:1017E80009D17868FFF7D6FD7B6800225A647B68C8
:1017F800002283F83C207B681B6C03F01003002B4D
:1018080018D17B681B6C23F4885323F0020343F040
:1018180002027B681A64786800F04AF97B68002243
:101828005A647B681B6C23F0030343F001027B6856
:101838001A6401E00123FB737B68002283F83C20D3
:10184800FB7B18461037BD4680BD000080B485B0CC
:1018580000AF786039600023BB607B6893F83C3048
:10186800012B01D1022313E17B68012283F83C207C
:101878003B681B68092B25D97B681B68D9683B68BE
:101888001B689BB21A4613465B0013441E3B072293
:1018980002FA03F3DA437B681B680A40DA607B6864
:1018A8001B68D9683B689A683B681B689BB21846F6
:1018B80003465B0003441E3B9A407B681B680A434F
:1018C800DA6022E07B681B6819693B681B689BB279
:1018D8001A4613465B001344072202FA03F3DA435D
:1018E8007B681B680A401A617B681B6819693B683A
:1018F8009A683B681B689BB2184603465B00034422
:101908009A407B681B680A431A613B685B68062B30
:1019180024D87B681B68596B3B685A6813469B0040
:101928001344053B1F2202FA03F3DA437B681B6862
:101938000A405A637B681B68596B3B681B689BB2FB
:1019480018463B685A6813469B001344053B00FA47
:1019580003F27B681B680A435A634CE03B685B6888
:101968000C2B24D87B681B68196B3B685A68134694
:101978009B001344233B1F2202FA03F3DA437B68DC
:101988001B680A401A637B681B68196B3B681B68F5
:101998009BB218463B685A6813469B001344233B86
:1019A80000FA03F27B681B680A431A6323E07B682A
:1019B8001B68D96A3B685A6813469B001344413B2D
:1019C8001F2202FA03F3DA437B681B680A40DA62D3
:1019D8007B681B68D96A3B681B689BB218463B68E2
:1019E8005A6813469B001344413B00FA03F27B6894
:1019F8001B680A43DA62294BFB607B681B68284A2C
:101A080093420FD13B681B68122B0BD1FB685B68B4
:101A180023F40002FB685A60FB685B6843F48002A9
:101A2800FB685A607B681B681D4A93422BD13B6850
:101A38001B681C4A934203D03B681B68112B22D1B8
:101A4800FB685B6823F48002FB685A60FB685B688C
:101A580043F40002FB685A603B681B68114A9342D2
:101A680011D1114B1B68114AA2FB03239A0C134690
:101A78009B0013445B00BB6002E0BB68013BBB609A
:101A8800BB68002BF9D17B68002283F83C20002337
:101A980018461437BD465DF8047B704700230140A3
:101AA80000200140120000100400002083DE1B43C8
:101AB80080B485B000AF7860794BFB60FB685B68E9
:101AC80023F44032FB685A60FB685A687B685B689D
:101AD8001A43FB685A607B681B685A687B681B68F6
:101AE80022F480725A607B681B6859687B681B699E
:101AF8001A027B681B680A435A607B681B685A682D
:101B08007B681B6822F040725A607B681B685968C2
:101B18007B689A687B681B680A435A607B681B6805
:101B28009A687B681B6822F400629A607B681B686D
:101B380099687B68DA687B681B680A439A607B68E7
:101B48009B6A584A934222D07B681B689A687B68D4
:101B58001B6822F070629A607B681B6899687B68D2
:101B68009A6A7B681B680A439A607B681B689A6854
:101B78007B681B6822F040529A607B681B689968F2
:101B88007B68DA6A7B681B680A439A600FE07B68A7
:101B98001B689A687B681B6822F070629A607B6891
:101BA8001B689A687B681B6822F040529A607B68C1
:101BB8001B689A687B681B6822F002029A607B683F
:101BC8001B6899687B681B7E5A007B681B680A4300
:101BD8009A607B6893F82030002B1BD07B681B68C9
:101BE8005A687B681B6842F400625A607B681B680D
:101BF8005A687B681B6822F460425A607B681B68DD
:101C080059687B685B6A013B5A037B681B680A4317
:101C18005A6007E07B681B685A687B681B6822F477
:101C280000625A607B681B68DA6A7B681B6822F46A
:101C38007002DA627B681B68D96A7B68DB69013BE2
:101C48001A057B681B680A43DA627B681B689A6816
:101C58007B681B6822F400729A607B681B6899682D
:101C68007B6893F830305A027B681B680A439A6095
:101C78007B681B689A687B681B6822F480629A609C
:101C88007B681B6899687B685B699A027B681B683C
:101C98000A439A6000BF1437BD465DF8047B70475D
:101CA800002301400100000F80B485B000AF7860C8
:101CB8007B6803F00703FB600C4BDB68BB60BA680A
:101CC8004FF6FF031340BB60FB681A02BB6813435F
:101CD80043F0BF6343F40033BB60044ABB68D3607E
:101CE80000BF1437BD465DF8047B704700ED00E087
:101CF80080B400AF044BDB681B0A03F007031846E7
:101D0800BD465DF8047B704700ED00E080B483B009
:101D180000AF0346FB7197F90730002B0BDBFB790B
:101D280003F01F02074997F907305B09012000FA01
:101D380002F241F8232000BF0C37BD465DF8047B52
:101D4800704700BF00E100E080B483B000AF0346F5
:101D58003960FB7197F90730002B0ADB3B68DAB270
:101D68000C4997F907301201D2B20B4483F80023CB
:101D78000AE03B68DAB20849FB7903F00F03043B39
:101D88001201D2B20B441A7600BF0C37BD465DF87B
:101D9800047B704700E100E000ED00E080B489B00A
:101DA80000AFF860B9607A60FB6803F00703FB6175
:101DB800FB69C3F10703042B28BF0423BB61FB693C
:101DC8000433062B02D9FB69033B00E000237B6147
:101DD8004FF0FF32BB6902FA03F3DA43BB681A40DB
:101DE8007B699A404FF0FF317B6901FA03F3D943CD
:101DF8007B680B40134318462437BD465DF8047BC7
:101E08007047000080B582B000AF78607B68013B06
:101E1800B3F1807F01D301230FE00A4A7B68013BBD
:101E280053600F214FF0FF30FFF78EFF054B002264
:101E38009A60044B07221A60002318460837BD46EB
:101E480080BD00BF10E000E080B582B000AF7860D0
:101E58007868FFF729FF00BF0837BD4680BD80B509
:101E680086B000AF0346B9607A60FB7300237B61DC
:101E7800FFF73EFF78617A68B9687869FFF78EFFE7
:101E8800024697F90F3011461846FFF75DFF00BF6D
:101E98001837BD4680BD80B582B000AF0346FB71E0
:101EA80097F907301846FFF731FF00BF0837BD46DE
:101EB80080BD80B582B000AF78607868FFF7A2FF78
:101EC800034618460837BD4680BD80B584B000AFCC
:101ED80078607B689B6DFB60FFF744FCB8607B68AB
:101EE80093F83530DBB2022B08D07B6880225A6524
:101EF8007B68002283F83420012352E07B681B684A
:101F08001A687B681B6822F016021A607B681B68D7
:101F18005A697B681B6822F080025A617B681B6CD7
:101F2800002B03D17B689B6C002B07D07B681B6858
:101F38001A687B681B6822F008021A607B681B68B5
:101F48001A687B681B6822F001021A6013E0FFF729
:101F580009FC0246BB68D31A052B0CD97B682022E2
:101F68005A657B68032283F835207B68002283F852
:101F78003420032315E07B681B681B6803F001030A
:101F8800002BE4D17B68DB6D3F229A40FB689A60A6
:101F98007B68012283F835207B68002283F834208F
:101FA800002318461037BD4680BD80B483B000AF0B
:101FB80078607B6893F83530DBB2022B04D07B68FD
:101FC80080225A6501230CE07B68052283F83520BE
:101FD8007B681B681A687B681B6822F001021A601C
:101FE800002318460C37BD465DF8047B7047000097
:101FF80080B489B000AF7860396000237B6100232A
:102008003B610023BB610023FB6159E10122FB69AD
:1020180002FA03F37B613B681B687A6913403B61F2
:102028003A697B699A4240F048813B685B6803F0F3
:102038000303012B05D03B685B6803F00303022B05
:1020480030D17B689B68BB61FB695B00032202FAA5
:1020580003F3DB43BA691340BB613B68DA68FB6989
:102068005B0002FA03F3BA691343BB617B68BA6980
:102078009A607B685B68BB610122FB6902FA03F323
:10208800DB43BA691340BB613B685B681B0903F01B
:102098000102FB6902FA03F3BA691343BB617B6867
:1020A800BA695A603B685B6803F00303032B17D0D7
:1020B8007B68DB68BB61FB695B00032202FA03F300
:1020C800DB43BA691340BB613B689A68FB695B00F4
:1020D80002FA03F3BA691343BB617B68BA69DA6031
:1020E8003B685B6803F00303022B23D1FB69DA0822
:1020F8007B68083253F82230BB61FB6903F00703A1
:102108009B000F2202FA03F3DB43BA691340BB6159
:102118003B681A69FB6903F007039B0002FA03F3A3
:10212800BA691343BB61FB69DA087B680832B9698D
:1021380043F822107B681B68BB61FB695B000322C4
:1021480002FA03F3DB43BA691340BB613B685B687F
:1021580003F00302FB695B0002FA03F3BA69134355
:10216800BB617B68BA691A603B685B6803F44033FB
:10217800002B00F0A2800023FB60574B5B6C564A93
:1021880043F480435364544B5B6C03F48043FB601B
:10219800FB68524AFB699B08023352F82330BB6143
:1021A800FB6903F003039B000F2202FA03F3DB43EE
:1021B800BA691340BB617B68494A934219D07B686E
:1021C800484A934213D07B68474A93420DD07B68B4
:1021D800464A934207D07B68454A934201D104237B
:1021E80008E0072306E0032304E0022302E00123BA
:1021F80000E00023FA6902F0030292009340BA69F2
:102208001343BB613549FB699B080233BA6941F83E
:102218002320384B9B68BB613B69DB43BA69134099
:10222800BB613B685B6803F48013002B03D0BA6979
:102238003B691343BB612F4ABB6993602D4BDB6835
:10224800BB613B69DB43BA691340BB613B685B68B0
:1022580003F40013002B03D0BA693B691343BB6135
:10226800244ABB69D360234B5B68BB613B69DB4392
:10227800BA691340BB613B685B6803F40033002B09
:1022880003D0BA693B691343BB611A4ABB695360FF
:10229800184B1B68BB613B69DB43BA691340BB61E0
:1022A8003B685B6803F48033002B03D0BA693B6951
:1022B8001343BB610F4ABB691360FB690133FB61C0
:1022C800FB690F2B7FF6A2AE00BF00BF2437BD46C7
:1022D8005DF8047B704700BF0038024000380140B9
:1022E800000002400004024000080240000C0240C6
:1022F80000100240003C014080B483B000AF786019
:102308000B467B8013467B707B78002B03D07A8842
:102318007B689A6103E07B881A047B689A6100BF36
:102328000C37BD465DF8047B7047000080B586B069
:1023380000AF78607B68002B01D1012367E27B68DE
:102348001B6803F00103002B75D0884B9B6803F0D2
:102358000C03042B0CD0854B9B6803F00C03082B53
:1023680012D1824B5B6803F48003B3F5800F0BD165
:102378007E4B1B6803F40033002B5BD07B685B68E3
:10238800002B57D1012342E27B685B68B3F5803F9D
:1023980006D1764B1B68754A43F4803313601DE001
:1023A8007B685B68B3F5A02F0CD1704B1B686F4A34
:1023B80043F4802313606D4B1B686C4A43F48033ED
:1023C80013600BE0694B1B68684A23F48033136081
:1023D800664B1B68654A23F4802313607B685B683F
:1023E800002B13D0FFF7BEF9386108E0FFF7BAF900
:1023F80002463B69D31A642B01D9032307E25B4BDE
:102408001B6803F40033002BF0D014E0FFF7AAF99F
:10241800386108E0FFF7A6F902463B69D31A642B36
:1024280001D90323F3E1514B1B6803F40033002B5C
:10243800F0D100E000BF7B681B6803F00203002BAB
:1024480063D04A4B9B6803F00C03002B0BD0474B1F
:102458009B6803F00C03082B1CD1444B5B6803F406
:102468008003002B16D1414B1B6803F00203002B9D
:1024780005D07B68DB68012B01D00123C7E13B4B0A
:102488001B6823F0F8027B681B69DB00374913439C
:102498000B603AE07B68DB68002B20D0344B0122CC
:1024A8001A60FFF75FF9386108E0FFF75BF9024649
:1024B8003B69D31A022B01D90323A8E12B4B1B68D4
:1024C80003F00203002BF0D0284B1B6823F0F8021E
:1024D8007B681B69DB00254913430B6015E0244B1F
:1024E80000221A60FFF73EF9386108E0FFF73AF971
:1024F80002463B69D31A022B01D9032387E11B4B00
:102508001B6803F00203002BF0D17B681B6803F003
:102518000803002B36D07B685B69002B16D0154B5F
:1025280001221A60FFF71EF9386108E0FFF71AF96F
:1025380002463B69D31A022B01D9032367E10B4BEF
:102548005B6F03F00203002BF0D01BE0094B002265
:102558001A60FFF707F938610EE0FFF703F9024642
:102568003B69D31A022B07D9032350E100380240F4
:1025780000004742800E4742884B5B6F03F002031E
:10258800002BEAD17B681B6803F00403002B00F0E2
:1025980097800023FB75814B1B6C03F08053002B45
:1025A8000FD10023BB607D4B1B6C7C4A43F08053EA
:1025B80013647A4B1B6C03F08053BB60BB68012328
:1025C800FB75774B1B6803F48073002B18D1744B91
:1025D8001B68734A43F480731360FFF7C3F83861CC
:1025E80008E0FFF7BFF802463B69D31A022B01D96E
:1025F80003230CE16A4B1B6803F48073002BF0D0B3
:102608007B689B68012B06D1644B1B6F634A43F0C0
:10261800010313671CE07B689B68052B0CD15F4B9B
:102628001B6F5E4A43F0040313675C4B1B6F5B4AE6
:1026380043F0010313670BE0584B1B6F574A23F015
:1026480001031367554B1B6F544A23F004031367A8
:102658007B689B68002B15D0FFF784F838610AE087
:10266800FFF780F802463B69D31A41F28832934259
:1026780001D90323CBE0494B1B6F03F00203002B66
:10268800EED014E0FFF76EF838610AE0FFF76AF859
:1026980002463B69D31A41F28832934201D9032397
:1026A800B5E03E4B1B6F03F00203002BEED1FB7D20
:1026B800012B05D1394B1B6C384A23F08053136426
:1026C8007B689B69002B00F0A180344B9B6803F06A
:1026D8000C03082B5CD07B689B69022B41D1314BE2
:1026E80000221A60FFF73EF8386108E0FFF73AF871
:1026F80002463B69D31A022B01D9032387E0274BF3
:102708001B6803F00073002BF0D17B68DA697B68E3
:102718001B6A1A437B685B6A9B011A437B689B6A46
:102728005B08013B1B041A437B68DB6A1B061B49D9
:1027380013434B601B4B01221A60FFF713F83861F3
:1027480008E0FFF70FF802463B69D31A022B01D9BC
:1027580003235CE0114B1B6803F00073002BF0D0DF
:1027680054E0104B00221A60FEF7FCFF386108E0C5
:10277800FEF7F8FF02463B69D31A022B01D903235F
:1027880045E0064B1B6803F00073002BF0D13DE0D9
:102798007B689B69012B07D1012338E00038024090
:1027A80000700040600047421B4B5B68FB607B6821
:1027B8009B69012B28D0FB6803F480027B68DB69E6
:1027C8009A4221D1FB6803F03F027B681B6A9A4258
:1027D8001AD1FA6847F6C07313407A68526A9201B0
:1027E800934211D1FB6803F440327B689B6A5B0813
:1027F800013B1B049A4207D1FB6803F070627B68B7
:10280800DB6A1B069A4201D0012300E00023184628
:102818001837BD4680BD00BF0038024080B584B07F
:1028280000AF786039607B68002B01D10123CCE0D0
:10283800684B1B6803F007033A689A420CD9654B4A
:102848003A68D2B21A70634B1B6803F007033A6800
:102858009A4201D00123B8E07B681B6803F00203A9
:10286800002B20D07B681B6803F00403002B05D0E5
:10287800594B9B68584A43F4E05393607B681B6844
:1028880003F00803002B05D0534B9B68524A43F4CE
:1028980060439360504B9B6823F0F0027B689B6811
:1028A8004D4913438B607B681B6803F00103002BC1
:1028B80044D07B685B68012B07D1474B1B6803F446
:1028C8000033002B19D101237FE07B685B68022B62
:1028D80003D07B685B68032B07D13F4B1B6803F071
:1028E8000073002B09D101236FE03B4B1B6803F0F9
:1028F8000203002B01D1012367E0374B9B6823F0CB
:1029080003027B685B68344913438B60FEF72AFF38
:10291800F8600AE0FEF726FF0246FB68D31A41F288
:102928008832934201D903234FE02B4B9B6803F075
:102938000C027B685B689B009A42EBD1254B1B68B5
:1029480003F007033A689A420CD2224B3A68D2B293
:102958001A70204B1B6803F007033A689A4201D0AB
:10296800012332E07B681B6803F00403002B08D0C6
:10297800194B9B6823F4E0527B68DB6816491343C4
:102988008B607B681B6803F00803002B09D0124B8F
:102998009B6823F460427B681B69DB000E49134384
:1029A8008B6000F021F802460B4B9B681B0903F073
:1029B8000F030A49CB5C22FA03F3094A1360094B57
:1029C8001B681846FEF78AFE002318461037BD46D6
:1029D80080BD00BF003C0240003802408C47000820
:1029E80004000020080000202DE9B04F90B000AF8F
:1029F80000237B630023FB6300233B630023BB634B
:102A0800594B9B6803F00C03082B0DD0082B00F2E0
:102A1800A180002B02D0042B03D09BE0534BBB6357
:102A28009BE0534BBB6398E04F4B5B6803F03F035D
:102A38007B634D4B5B6803F48003002B28D04A4B23
:102A48005B689B0900223B627A623B6AC3F3080019
:102A58000021474B03FB01F2002300FB03F313445F
:102A6800434AA0FB0212FA620A46BA62FA6A13449F
:102A7800FB627B6B0022BB61FA61D7E90623D7E9C9
:102A88000A01FDF7C3FF02460B461346FB6353E0FA
:102A9800354B5B689B0900223B617A613B69C3F354
:102AA800080A4FF0000B52465B464FF000004FF00B
:102AB8000001590141EAD261500102460B46B2EBCE
:102AC8000A0863EB0B094FF000024FF000034FEACE
:102AD800891343EA98634FEA8812B2EB080463EB60
:102AE80009054FF000024FF00003EB0043EA54736E
:102AF800E20014461D4614EB0A033B6045EB0B034A
:102B08007B604FF000024FF00003D7E900452946EB
:102B18008B02214643EA915321468A021046194600
:102B28007B6B0022BB60FA60D7E90223FDF76EFFDA
:102B380002460B461346FB630B4B5B681B0C03F00A
:102B4800030301335B003B63FA6B3B6BB2FBF3F3AC
:102B5800BB6302E0054BBB6300BFBB6B1846403745
:102B6800BD46BDE8B08F00BF003802400024F40025
:102B780040787D0180B400AF034B1B681846BD4602
:102B88005DF8047B704700BF0400002080B500AFEB
:102B9800FFF7F0FF0246054B9B689B0A03F007030B
:102BA8000349CB5C22FA03F3184680BD0038024083
:102BB8009C47000880B500AFFFF7DCFF0246054BD5
:102BC8009B685B0B03F007030349CB5C22FA03F312
:102BD800184680BD003802409C47000880B582B086
:102BE80000AF78607B68002B01D1012341E07B684E
:102BF80093F83D30DBB2002B06D17B68002283F8C6
:102C08003C207868FEF70AFC7B68022283F83D20A6
:102C18007B681A687B6804331946104600F0C0FACE
:102C28007B68012283F846207B68012283F83E20D6
:102C38007B68012283F83F207B68012283F84020CB
:102C48007B68012283F841207B68012283F84220B7
:102C58007B68012283F843207B68012283F84420A3
:102C68007B68012283F845207B68012283F83D2098
:102C7800002318460837BD4680BD80B582B000AF36
:102C880078607B68002B01D1012341E07B6893F8D1
:102C98003D30DBB2002B06D17B68002283F83C2054
:102CA800786800F039F87B68022283F83D207B6859
:102CB8001A687B6804331946104600F071FA7B687D
:102CC800012283F846207B68012283F83E207B6836
:102CD800012283F83F207B68012283F840207B682B
:102CE800012283F841207B68012283F842207B6817
:102CF800012283F843207B68012283F844207B6803
:102D0800012283F845207B68012283F83D200023B7
:102D180018460837BD4680BD80B483B000AF7860E0
:102D280000BF0C37BD465DF8047B704780B584B0A2
:102D380000AF786039603B68002B09D17B6893F855
:102D48003E30DBB2012B14BF01230023DBB222E0AB
:102D58003B68042B09D17B6893F83F30DBB2012B29
:102D680014BF01230023DBB215E03B68082B09D10F
:102D78007B6893F84030DBB2012B14BF012300239A
:102D8800DBB208E07B6893F84130DBB2012B14BF5B
:102D980001230023DBB2002B01D0012368E03B684C
:102DA800002B04D17B68022283F83E2013E03B68A5
:102DB800042B04D17B68022283F83F200BE03B6898
:102DC800082B04D17B68022283F8402003E07B684B
:102DD800022283F841207B681B6801223968184663
:102DE80000F090FC7B681B68234A934207D17B68FC
:102DF8001B685A6C7B681B6842F400425A647B6803
:102E08001B681D4A934218D07B681B68B3F1804F3A
:102E180013D07B681B68194A93420ED07B681B68E5
:102E2800174A934209D07B681B68164A934204D01C
:102E38007B681B68144A934211D17B681B689B68A6
:102E480003F00703FB60FB68062B10D07B681B6848
:102E58001A687B681B6842F001021A6007E07B6809
:102E68001B681A687B681B6842F001021A6000231D
:102E780018461037BD4680BD0000014000040040E0
:102E880000080040000C00400040014080B586B0BA
:102E980000AFF860B9607A600023FB75FB6893F8AF
:102EA8003C30012B01D10223AEE0FB68012283F8FC
:102EB8003C207B680C2B00F29F8001A252F823F083
:102EC800FD2E00080130000801300008013000081C
:102ED8003D2F0008013000080130000801300008CB
:102EE8007F2F000801300008013000080130000879
:102EF800BF2F0008FB681B68B968184600F0DCF9AA
:102F0800FB681B689A69FB681B6842F008029A61B3
:102F1800FB681B689A69FB681B6822F004029A61C7
:102F2800FB681B689969BB681A69FB681B680A43D8
:102F38009A6164E0FB681B68B968184600F022FAD9
:102F4800FB681B689A69FB681B6842F400629A6117
:102F5800FB681B689A69FB681B6822F480629A61A7
:102F6800FB681B689969BB681B691A02FB681B68C8
:102F78000A439A6143E0FB681B68B968184600F089
:102F88006DFAFB681B68DA69FB681B6842F0080287
:102F9800DA61FB681B68DA69FB681B6822F00402C7
:102FA800DA61FB681B68D969BB681A69FB681B682A
:102FB8000A43DA6123E0FB681B68B968184600F029
:102FC800B7FAFB681B68DA69FB681B6842F40062A1
:102FD800DA61FB681B68DA69FB681B6822F48062A7
:102FE800DA61FB681B68D969BB681B691A02FB6850
:102FF8001B680A43DA6102E00123FB7500BFFB6826
:10300800002283F83C20FB7D18461837BD4680BD5A
:1030180080B584B000AF786039600023FB737B68AB
:1030280093F83C30012B01D10223B4E07B680122E4
:1030380083F83C207B68022283F83D207B681B686C
:103048009B68BB60BB6823F07703BB60BB6823F455
:103058007F43BB607B681B68BA689A603B681B68E3
:10306800B3F5005F3ED0B3F5005F00F28780B3F59B
:10307800805F00F08680B3F5805F7FD8702B1AD010
:10308800702B7BD8602B50D0602B77D8502B3CD03E
:10309800502B73D8402B58D0402B6FD8302B64D08E
:1030A800302B6BD8202B60D0202B67D8002B5CD01E
:1030B800102B5AD062E07B6818683B6899683B68B7
:1030C8005A683B68DB6800F0FDFA7B681B689B6800
:1030D800BB60BB6843F07703BB607B681B68BA685A
:1030E8009A604FE07B6818683B6899683B685A6843
:1030F8003B68DB6800F0E6FA7B681B689A687B68C7
:103108001B6842F480429A603CE07B6818683B6820
:1031180059683B68DB681A4600F05AFA7B681B68F6
:103128005021184600F0B3FA2CE07B6818683B6819
:1031380059683B68DB681A4600F079FA7B681B68B7
:103148006021184600F0A3FA1CE07B6818683B6809
:1031580059683B68DB681A4600F03AFA7B681B68D6
:103168004021184600F093FA0CE07B681A683B6827
:103178001B681946104600F08AFA03E00123FB7326
:1031880000E000BF7B68012283F83D207B680022B5
:1031980083F83C20FB7B18461037BD4680BD0000F5
:1031A80080B485B000AF786039607B681B68FB60CD
:1031B8007B683A4A93420FD07B68B3F1804F0BD0BB
:1031C8007B68374A934207D07B68364A934203D0DC
:1031D8007B68354A934208D1FB6823F07003FB6093
:1031E8003B685B68FA681343FB607B682B4A934231
:1031F8001BD07B68B3F1804F17D07B68284A934275
:1032080013D07B68274A93420FD07B68264A9342A3
:103218000BD07B68254A934207D07B68244A9342A7
:1032280003D07B68234A934208D1FB6823F4407398
:10323800FB603B68DB68FA681343FB60FB6823F0BC
:1032480080023B685B691343FB607B68FA681A601D
:103258003B689A687B68DA623B681A687B689A629E
:103268007B680E4A934203D13B681A697B681A63EC
:103278007B6801225A617B681B6903F00103012BFB
:1032880005D17B681B6923F001027B681A6100BFC6
:103298001437BD465DF8047B704700BF000001404D
:1032A8000004004000080040000C004000400140BD
:1032B800004401400048014080B487B000AF786006
:1032C80039607B681B6A7B617B681B6A23F001029B
:1032D8007B681A627B685B683B617B689B69FB6003
:1032E800FB6823F07003FB60FB6823F00303FB60BB
:1032F8003B681B68FA681343FB607B6923F0020391
:103308007B613B689B687A6913437B617B681C4AD5
:1033180093420CD17B6923F008037B613B68DB682F
:103328007A6913437B617B6923F004037B617B68C3
:10333800134A934211D13B6923F480733B613B6983
:1033480023F400733B613B685B693A6913433B6153
:103358003B689B693A6913433B617B683A695A60E9
:103368007B68FA689A613B685A687B685A637B682D
:103378007A691A6200BF1C37BD465DF8047B704746
:103388000000014080B487B000AF786039607B6886
:103398001B6A7B617B681B6A23F010027B681A62D8
:1033A8007B685B683B617B689B69FB60FB6823F417
:1033B800E043FB60FB6823F44073FB603B681B68D9
:1033C8001B02FA681343FB607B6923F020037B61CF
:1033D8003B689B681B017A6913437B617B681E4AC3
:1033E80093420DD17B6923F080037B613B68DB68E6
:1033F8001B017A6913437B617B6923F040037B617E
:103408007B68154A934213D13B6923F480633B617F
:103418003B6923F400633B613B685B699B003A6945
:1034280013433B613B689B699B003A6913433B61CB
:103438007B683A695A607B68FA689A613B685A689F
:103448007B689A637B687A691A6200BF1C37BD463D
:103458005DF8047B704700BF0000014080B487B06E
:1034680000AF786039607B681B6A7B617B681B6A88
:1034780023F480727B681A627B685B683B617B68B7
:10348800DB69FB60FB6823F07003FB60FB6823F0DB
:103498000303FB603B681B68FA681343FB607B69A6
:1034A80023F400737B613B689B681B027A691343B2
:1034B8007B617B681D4A93420DD17B6923F40063CD
:1034C8007B613B68DB681B027A6913437B617B691C
:1034D80023F480637B617B68144A934213D13B6970
:1034E80023F480533B613B6923F400533B613B6801
:1034F8005B691B013A6913433B613B689B691B018C
:103508003A6913433B617B683A695A607B68FA6899
:10351800DA613B685A687B68DA637B687A691A62A1
:1035280000BF1C37BD465DF8047B704700000140B2
:1035380080B487B000AF786039607B681B6A3B61F4
:103548007B681B6A23F480527B681A627B685B681D
:103558007B617B68DB69FB60FB6823F4E043FB600D
:10356800FB6823F44073FB603B681B681B02FA6826
:103578001343FB603B6923F400533B613B689B6842
:103588001B033A6913433B617B68104A934209D194
:103598007B6923F480437B613B685B699B017A69A3
:1035A80013437B617B687A695A607B68FA68DA61E1
:1035B8003B685A687B681A647B683A691A6200BF7C
:1035C8001C37BD465DF8047B704700BF0000014012
:1035D80080B487B000AFF860B9607A60FB681B6A96
:1035E8007B61FB681B6A23F00102FB681A62FB68B7
:1035F8009B693B613B6923F0F0033B617B681B01DE
:103608003A6913433B617B6923F00A037B617A695A
:10361800BB6813437B61FB683A699A61FB687A6906
:103628001A6200BF1C37BD465DF8047B704780B442
:1036380087B000AFF860B9607A60FB681B6A7B618D
:10364800FB681B6A23F01002FB681A62FB689B691F
:103658003B613B6923F470433B617B681B033A6918
:1036680013433B617B6923F0A0037B61BB681B01AB
:103678007A6913437B61FB683A699A61FB687A69E6
:103688001A6200BF1C37BD465DF8047B704780B4E2
:1036980085B000AF786039607B689B68FB60FB6829
:1036A80023F07003FB603A68FB68134343F0070399
:1036B800FB607B68FA689A6000BF1437BD465DF806
:1036C800047B704780B487B000AFF860B9607A6057
:1036D8003B60FB689B687B617B6923F47F437B616C
:1036E8003B681A027B681A43BB6813437A69134321
:1036F8007B61FB687A699A6000BF1C37BD465DF83C
:10370800047B704780B487B000AFF860B9607A6016
:10371800BB6803F01F03012202FA03F37B61FB6815
:103728001A6A7B69DB431A40FB681A62FB681A6AEB
:10373800BB6803F01F03796801FA03F31A43FB68B7
:103748001A6200BF1C37BD465DF8047B7047000055
:1037580080B485B000AF786039607B6893F83C30FE
:10376800012B01D1022350E07B68012283F83C2021
:103778007B68022283F83D207B681B685B68FB60DE
:103788007B681B689B68BB60FB6823F07003FB6069
:103798003B681B68FA681343FB607B681B68FA6820
:1037A8005A607B681B681C4A934218D07B681B6868
:1037B800B3F1804F13D07B681B68184A93420ED030
:1037C8007B681B68164A934209D07B681B68154AB8
:1037D800934204D07B681B68134A93420CD1BB68A0
:1037E80023F08003BB603B685B68BA681343BB6027
:1037F8007B681B68BA689A607B68012283F83D2061
:103808007B68002283F83C20002318461437BD4605
:103818005DF8047B704700BF0000014000040040D1
:1038280000080040000C00400040014080B582B014
:1038380000AF78607B68002B01D1012342E07B68F0
:1038480093F84130DBB2002B06D17B68002283F865
:1038580040207868FDF75AFE7B68242283F84120CF
:103868007B681B68DA687B681B6822F40052DA60A0
:10387800786800F0DBFC7B681B681A697B681B684A
:1038880022F490421A617B681B685A697B681B683E
:1038980022F02A025A617B681B68DA687B681B6819
:1038A80042F40052DA607B6800225A647B68202266
:1038B80083F841207B68202283F842207B6800221D
:1038C8005A63002318460837BD4680BD80B584B0CA
:1038D80000AFF860B9601346FB80FB6893F842308C
:1038E800DBB2202B12D1BB68002B02D0FB88002B47
:1038F80001D101230BE0FB6800221A63FB881A46FA
:10390800B968F86800F0BAFA034600E002231846DE
:103918001037BD4680BD000080B5BAB000AF7860F2
:103928007B681B681B68C7F8E4307B681B68DB682A
:10393800C7F8E0307B681B685B69C7F8DC30002398
:10394800C7F8D8300023C7F8D430D7F8E43003F0EC
:103958000F03C7F8D830D7F8D830002B0FD1D7F8D5
:10396800E43003F02003002B09D0D7F8E03003F04F
:103978002003002B03D0786800F099FB5BE2D7F8AE
:10398800D830002B00F0DE80D7F8DC3003F00103DC
:10399800002B06D1D7F8E03003F49073002B00F029
:1039A800D180D7F8E43003F00103002B0BD0D7F80F
:1039B800E03003F48073002B05D07B685B6C43F028
:1039C80001027B685A64D7F8E43003F00403002B43
:1039D8000BD0D7F8DC3003F00103002B05D07B684F
:1039E8005B6C43F002027B685A64D7F8E43003F05A
:1039F8000203002B0BD0D7F8DC3003F00103002BB7
:103A080005D07B685B6C43F004027B685A64D7F886
:103A1800E43003F00803002B11D0D7F8E03003F0AE
:103A28002003002B05D1D7F8DC3003F00103002B6D
:103A380005D07B685B6C43F008027B685A647B683E
:103A48005B6C002B00F0F281D7F8E43003F0200320
:103A5800002B08D0D7F8E03003F02003002B02D069
:103A6800786800F024FB7B681B685B6903F04003FF
:103A7800402B0CBF01230023DBB2C7F8D4307B688E
:103A88005B6C03F00803002B03D1D7F8D430002B6C
:103A98004FD0786800F02CFA7B681B685B6903F0EC
:103AA8004003402B41D17B681B681433C7F89C3016
:103AB800D7F89C3053E8003FC7F89830D7F89830CB
:103AC80023F04003C7F8D0307B681B681433D7F85D
:103AD800D020C7F8A820C7F8A430D7F8A410D7F882
:103AE800A82041E80023C7F8A030D7F8A030002B61
:103AF800D9D17B68DB6B002B13D07B68DB6B7E4AEC
:103B08001A657B68DB6B1846FEF74FFA0346002BF5
:103B180016D07B68DB6B1B6D7A68D26B10469847B2
:103B28000EE0786800F094F90AE0786800F090F9FF
:103B380006E0786800F08CF97B6800225A6475E129
:103B480000BF73E17B681B6B012B40F04F81D7F8F6
:103B5800E43003F01003002B00F04881D7F8E03080
:103B680003F01003002B00F041810023BB607B6849
:103B78001B681B68BB607B681B685B68BB60BB68B5
:103B88007B681B685B6903F04003402B40F0B680FC
:103B98007B68DB6B1B685B68A7F8BE30B7F8BE3084
:103BA800002B00F045817B689B8DB7F8BE209A42B8
:103BB80080F03E817B68B7F8BE20DA857B68DB6BD6
:103BC800DB69B3F5807F00F088807B681B680C3365
:103BD800C7F88830D7F8883053E8003FC7F88430F2
:103BE800D7F8843023F48073C7F8B8307B681B6833
:103BF8000C33D7F8B820C7F89420C7F89030D7F816
:103C08009010D7F8942041E80023C7F88C30D7F8F3
:103C18008C30002BD9D17B681B6814337B677B6F92
:103C280053E8003F3B673B6F23F00103C7F8B4300C
:103C38007B681B681433D7F8B420C7F88020FB676B
:103C4800F96FD7F8802041E80023BB67BB6F002BD2
:103C5800E1D17B681B6814333B663B6E53E8003F39
:103C6800FB65FB6D23F04003C7F8B0307B681B6829
:103C78001433D7F8B020FA66BB66B96EFA6E41E81D
:103C880000237B667B6E002BE3D17B68202283F8C0
:103C980042207B6800221A637B681B680C33FB6434
:103CA800FB6C53E8003FBB64BB6C23F01003C7F800
:103CB800AC307B681B680C33D7F8AC20BA657B65E1
:103CC800796DBA6D41E800233B653B6D002BE3D16C
:103CD8007B68DB6B1846FEF7F8F87B6802225A63AC
:103CE8007B689A8D7B68DB8D9BB2D31A9BB2194691
:103CF800786800F0B7F89BE0BF3F00087B689A8DB2
:103D08007B68DB8D9BB2D31AA7F8CE307B68DB8D3E
:103D18009BB2002B00F08E80B7F8CE30002B00F05D
:103D280089807B681B680C33BB63BB6B53E8003F1F
:103D38007B637B6B23F49073C7F8C8307B681B6880
:103D48000C33D7F8C8207A643B64396C7A6C41E844
:103D58000023FB63FB6B002BE3D17B681B681433E8
:103D68007B627B6A53E8003F3B623B6A23F00103B6
:103D7800C7F8C4307B681B681433D7F8C4203A638B
:103D8800FB62F96A3A6B41E80023BB62BB6A002B0D
:103D9800E3D17B68202283F842207B6800221A63E3
:103DA8007B681B680C333B613B6953E8003FFB6051
:103DB800FB6823F01003C7F8C0307B681B680C331E
:103DC800D7F8C020FA61BB61B969FA6941E80023F4
:103DD8007B617B69002BE3D17B6802225A63B7F8C9
:103DE800CE301946786800F03DF823E0D7F8E43083
:103DF80003F08003002B09D0D7F8E03003F08003EC
:103E0800002B03D0786800F0EAF814E0D7F8E43023
:103E180003F04003002B0ED0D7F8E03003F0400346
:103E2800002B08D0786800F02AF904E000BF02E00F
:103E380000BF00E000BFE837BD4680BD80B483B056
:103E480000AF786000BF0C37BD465DF8047B704753
:103E580080B483B000AF786000BF0C37BD465DF812
:103E6800047B704780B483B000AF78600B467B80DA
:103E780000BF0C37BD465DF8047B704780B485B041
:103E880000AFF860B9601346FB80FB68BA689A62B5
:103E9800FB68FA889A85FB68FA88DA85FB6800224D
:103EA8005A64FB68222283F84220FB681B69002BB6
:103EB80007D0FB681B68DA68FB681B6842F48072ED
:103EC800DA60FB681B685A69FB681B6842F00102EC
:103ED8005A61FB681B68DA68FB681B6842F02002BD
:103EE800DA60002318461437BD465DF8047B704736
:103EF80080B495B000AF78607B681B680C337B6337
:103F08007B6B53E8003F3B633B6B23F49073FB648C
:103F18007B681B680C33FA6C3A64FB63F96B3A6C88
:103F280041E80023BB63BB6B002BE5D17B681B68B2
:103F380014333B623B6A53E8003FFB61FB6923F0A3
:103F48000103BB647B681B681433BA6CFA62BB62FA
:103F5800B96AFA6A41E800237B627B6A002BE5D1E3
:103F68007B681B6B012B19D17B681B680C33FB60CA
:103F7800FB6853E8003FBB60BB6823F010037B6419
:103F88007B681B680C337A6CBA617B617969BA69A2
:103F980041E800233B613B69002BE5D17B68202287
:103FA80083F842207B6800221A6300BF5437BD465D
:103FB8005DF8047B704780B584B000AF78607B689B
:103FC8009B6BFB60FB680022DA85FB680022DA84C1
:103FD800F868FFF73DFF00BF1037BD4680BD80B4CD
:103FE80085B000AF78607B6893F84130DBB2212B55
:103FF8003ED17B689B68B3F5805F14D17B681B69F1
:10400800002B10D17B681B6AFB60FB681B881A4673
:104018007B681B68C2F308025A607B681B6A9A1C9B
:104028007B681A6208E07B681B6A591C7A6811620F
:104038001A787B681B685A607B68DB8C9BB2013BF3
:104048009BB27A681946D184002B0FD17B681B6814
:10405800DA687B681B6822F08002DA607B681B687C
:10406800DA687B681B6842F04002DA60002300E0EF
:10407800022318461437BD465DF8047B704780B5A7
:1040880082B000AF78607B681B68DA687B681B6861
:1040980022F04002DA607B68202283F841207868A9
:1040A800FFF7CCFE002318460837BD4680BD80B513
:1040B8008CB000AF78607B6893F84230DBB2222B7B
:1040C80040F0AE807B689B68B3F5805F17D17B6852
:1040D8001B69002B13D10023FB627B689B6ABB62C0
:1040E8007B681B685B689BB2C3F308039AB2BB6A20
:1040F8001A807B689B6A9A1C7B689A6226E07B68B8
:104108009B6AFB620023BB627B689B68B3F5805F98
:1041180007D07B689B68002B0AD17B681B69002B42
:1041280006D17B681B685B68DAB2FB6A1A7008E024
:104138007B681B685B68DBB203F07F03DAB2FB6A5B
:104148001A707B689B6A5A1C7B689A627B68DB8D55
:104158009BB2013B9BB27A681946D185002B5DD191
:104168007B681B68DA687B681B6822F02002DA60CB
:104178007B681B68DA687B681B6822F48072DA60E7
:104188007B681B685A697B681B6822F001025A61C8
:104198007B68202283F842207B6800225A637B6870
:1041A8001B6B012B35D17B6800221A637B681B6867
:1041B8000C337B617B6953E8003F3B613B6923F02B
:1041C80010037B627B681B680C337A6A3A62FB6176
:1041D800F9693A6A41E80023BB61BB69002BE5D164
:1041E8007B681B681B6803F01003102B0AD100239F
:1041F800FB607B681B681B68FB607B681B685B68EF
:10420800FB60FB687B689B8D19467868FFF72AFE80
:1042180002E07868FCF784FF002302E0002300E056
:10422800022318463037BD4680BD00002DE9B04F47
:10423800C0B000AFC7F8F400D7F8F4301B681B69AA
:1042480023F44050D7F8F430D968D7F8F4301A6816
:1042580040EA01031361D7F8F4309A68D7F8F430CC
:104268001B691A43D7F8F4305B691A43D7F8F4305E
:10427800DB691343C7F8F830D7F8F4301B68DB68FC
:1042880023F4164121F00C01D7F8F4301A68D7F856
:10429800F8300B43D360D7F8F4301B685B6923F41C
:1042A8004070D7F8F4309969D7F8F4301A6840EAC2
:1042B80001035361D7F8F4301A688F4B9A4205D03E
:1042C800D7F8F4301A688D4B9A4204D1FEF772FC85
:1042D800C7F8FC0003E0FEF759FCC7F8FC00D7F864
:1042E800F430DB69B3F5004F40F00C81D7F8FC30AF
:1042F8000022C7F8E830C7F8EC20D7E93A4522464B
:104308002B469118B9655B41FB65D7E91623214611
:1043180012EB0108294643EB01094FF000024FF068
:1043280000034FEAC90343EA58734FEAC8029046AC
:104338009946234618EB0303C7F8E0302B4649EBB0
:104348000303C7F8E430D7F8F4305B680022C7F8F5
:10435800D830C7F8DC20D7E936120B46DB183B65A6
:10436800134642EB03037B65D7E91423D7E93801E9
:10437800FCF74CFB02460B46614BA3FB02235B098F
:104388001C01D7F8FC300022C7F8D030C7F8D42079
:10439800D7E9348942464B469118B9645B41FB64BE
:1043A800D7E91223414612EB010A494643EB010BB8
:1043B8004FF000024FF000034FEACB0343EA5A7371
:1043C8004FEACA0292469B4643461AEB0303C7F8D4
:1043D800C8304B464BEB0303C7F8CC30D7F8F43062
:1043E8005B680022C7F8C030C7F8C420D7E930128C
:1043F8000B46DB183B64134642EB03037B64D7E9A7
:104408001023D7E93201FCF701FB02460B4611469F
:104418003B4BA3FB01235B09642202FB03F3CB1A8A
:10442800DB0003F13202364BA3FB02235B095B007E
:1044380003F4F8731C44D7F8FC300022C7F8B830EE
:10444800C7F8BC20D7E92E8942464B469118B96374
:104458005B41FB63D7E90E2341465118396349464E
:104468004B417B634FF000024FF00003D7E90CABE0
:104478005946CB00514643EA51735146CA0010468B
:104488001946034642469B18C7F8B0304B460A46C1
:1044980042EB0303C7F8B430D7F8F4305B68002266
:1044A800C7F8A830C7F8AC20D7E92A120B46DB18A2
:1044B800BB62134642EB0303FB62D7E90A23D7E941
:1044C8002C01FCF7A3FA02460B460D4BA3FB021383
:1044D8005B09642101FB03F3D31ADB003233084A7A
:1044E800A2FB03235B0903F00702D7F8F4301B682B
:1044F80022449A6006E100BF001001400014014008
:104508001F85EB51D7F8FC300022C7F8A030C7F858
:10451800A420D7E9288942464B46911839625B4165
:104528007B62D7E9082341465418494643EB010505
:104538004FF000024FF00003EB0043EA5473E2002F
:1045480014461D464346E318C7F898304B4645EBDA
:104558000303C7F89C30D7F8F4305B680022C7F82B
:104568009030C7F894204FF000024FF00003D7E9CD
:10457800244529468B00214643EA917321468A0047
:10458800D7E92601FCF742FA02460B46604BA3FB2B
:1045980002235B091C01D7F8FC300022C7F88830D9
:1045A800C7F88C20D7E9228942464B469118B96151
:1045B8005B41FB61D7E906234146511839614946F9
:1045C8004B417B614FF000024FF00003D7E904AB89
:1045D8005946CB00514643EA51735146CA0010462A
:1045E8001946034642469B18C7F880304B460A4690
:1045F80042EB0303C7F88430D7F8F4305B68002235
:10460800BB67FA674FF000024FF00003D7E91E8935
:1046180049468B00414643EA917341468A00D7E9EF
:104628002001FCF7F3F902460B461146384BA3FB71
:1046380001235B09642202FB03F3CB1A1B0132330B
:10464800334AA2FB03235B0903F0F0031C44D7F8A9
:10465800FC3000223B677A67D7E91C8942464B4603
:104668009118B9605B41FB60D7E9022341465118B4
:10467800396049464B417B604FF000024FF0000320
:10468800D7E900AB5946CB00514643EA517351462E
:10469800CA0010461946034642469B18BB664B465D
:1046A8000A4642EB0303FB66D7F8F4305B68002246
:1046B8003B667A664FF000024FF00003D7E918898D
:1046C80049468B00414643EA917341468A00D7E93F
:1046D8001A01FCF79BF902460B460D4BA3FB02138C
:1046E8005B09642101FB03F3D31A1B013233084A27
:1046F800A2FB03235B0903F00F02D7F8F4301B6811
:1047080022449A6000BF07F58077BD46BDE8B08FA8
:104718001F85EB5102440346934200D1704703F8CA
:10472800011BF9E770B50D4D0D4C641BA410002654
:10473800A64209D10B4D0C4C00F018F8641BA410CC
:104748000026A64205D170BD55F8043B98470136AE
:10475800EEE755F8043B98470136F2E7AC47000806
:10476800AC470008AC470008B0470008F8B500BFE0
:10477800F8BC08BC9E467047F8B500BFF8BC08BC3A
:044788009E46704792
:10478C0000000000000000000102030406070809F5
:08479C0000000000010203040B
:0847A400A0C2FF7F010000002C
:0447AC00BD01000843
:0447B0009901000863
:1047B4000F0000000024F4001000000001000000BD
:040000050800164D8C
:00000001FF
