:020000040800F2
:1000000000000220D11F0008991D0008A11D000852
:10001000A91D0008B11D0008B91D0008000000005E
:10002000000000000000000000000000C11D0008EA
:10003000CF1D000800000000DD1D0008EB1D0008BA
:10004000212000082120000821200008212000088C
:10005000212000082120000821200008212000087C
:10006000212000082120000821200008212000086C
:10007000212000082120000821200008212000085C
:100080002120000821200008212000080000000095
:100090000000000000000000000000002120000817
:1000A000212000082120000821200008212000082C
:1000B000212000082120000821200008212000081C
:1000C000212000082120000821200008212000080C
:1000D00021200008F91D0008212000080000000070
:1000E0002120000821200008212000080000000035
:1000F00000000000000000000000000021200008B7
:100100000000000021200008212000082120000814
:1001100000000000000000000000000000000000DF
:1001200021200008212000082120000821200008AB
:100130002120000800000000000000000000000076
:100140000000000000000000000000000D1E00087C
:10015000212000082120000821200008212000087B
:1001600021200008212000080000000000000000FD
:10017000000000000000000000000000000000007F
:100180000000000021200008000000000000000026
:080190002120000821200008D5
:1001A00010B5054C237833B9044B13B10448AFF3B1
:1001B00000800123237010BDD40200200000000045
:1001C00010E9000808B5034B1BB103490348AFF31E
:1001D000008008BD00000000D802002010E90008DF
:1001E00001F0FF01102A2BDB10F0070F08D010F8E8
:1001F000013B013A8B422DD010F0070F42B3F6D1EC
:10020000F0B441EA012141EA014122F007047FF004
:1002100000070023F0E80256083C85EA010586EA5B
:10022000010685FA47F5A3FA87F586FA47F6A5FA97
:1002300087F68EB9EED1F0BC01F0FF0102F00702A3
:1002400032B110F8013B013A83EA010313B1F8D14E
:100250000020704701387047002D06BF354603382F
:10026000073815F0010F07D1013015F4807F02BF68
:10027000013015F4C03F0130F0BC0138704700BFB9
:10028000034613F8012B002AFBD1181A01387047D6
:1002900081F0004102E000BF83F0004330B54FEA37
:1002A00041044FEA430594EA050F08BF90EA020FA4
:1002B0001FBF54EA000C55EA020C7FEA645C7FEA37
:1002C000655C00F0E2804FEA5454D4EB5555B8BF5A
:1002D0006D420CDD2C4480EA020281EA030382EACB
:1002E000000083EA010180EA020281EA0303362D5D
:1002F00088BF30BD11F0004F4FEA01314FF4801C30
:100300004CEA113102D0404261EB410113F0004F41
:100310004FEA03334CEA133302D0524263EB4303F8
:1003200094EA050F00F0A780A4F10104D5F1200E96
:100330000DDB02FA0EFC22FA05F2801841F10001F1
:1003400003FA0EF2801843FA05F359410EE0A5F1C5
:1003500020050EF1200E012A03FA0EFC28BF4CF0F6
:10036000020C43FA05F3C01851EBE37101F00045AC
:1003700007D54FF0000EDCF1000C7EEB00006EEBB9
:100380000101B1F5801F1BD3B1F5001F0CD3490843
:100390005FEA30004FEA3C0C04F101044FEA44529A
:1003A00012F5800F80F09A80BCF1004F08BF5FEA21
:1003B000500C50F1000041EB045141EA050130BD01
:1003C0005FEA4C0C404141EB0101013C28BFB1F513
:1003D000801FE9D291F0000F04BF01460020B1FA5E
:1003E00081F308BF2033A3F10B03B3F120020CDA31
:1003F0000C3208DD02F1140CC2F10C0201FA0CF00F
:1004000021FA02F10CE002F11402D8BFC2F1200C73
:1004100001FA02F120FA0CFCDCBF41EA0C01904029
:10042000E41AA2BF01EB0451294330BD6FEA040472
:100430001F3C1CDA0C340EDC04F11404C4F120025D
:1004400020FA04F001FA02F340EA030021FA04F36F
:1004500045EA030130BDC4F10C04C4F1200220FAC6
:1004600002F001FA04F340EA0300294630BD21FA04
:1004700004F0294630BD94F0000F83F4801306BFCA
:1004800081F480110134013D4EE77FEA645C18BFBE
:100490007FEA655C29D094EA050F08BF90EA020F55
:1004A00005D054EA000C04BF1946104630BD91EA4D
:1004B000030F1EBF0021002030BD5FEA545C05D150
:1004C0004000494128BF41F0004130BD14F580048F
:1004D0003CBF01F5801130BD01F0004545F0FE4103
:1004E00041F470014FF0000030BD7FEA645C1ABF38
:1004F000194610467FEA655C1CBF0B46024650EA6F
:10050000013406BF52EA033591EA030F41F400219A
:1005100030BD00BF90F0000F04BF0021704730B520
:100520004FF4806404F132044FF000054FF00001F5
:1005300050E700BF90F0000F04BF0021704730B5B6
:100540004FF4806404F1320410F0004548BF40428B
:100550004FF000013EE700BF42004FEAE2014FEAE0
:1005600031014FEA02701FBF12F07F4393F07F4FBB
:1005700081F06051704732F07F4208BF704793F0BE
:100580007F4F04BF41F40021704730B54FF46074D1
:1005900001F0004521F000411CE700BF50EA0102D4
:1005A00008BF704730B54FF000050AE050EA01027D
:1005B00008BF704730B511F0004502D5404261EBED
:1005C00041014FF4806404F132045FEA915C3FF42E
:1005D000D8AE4FF003025FEADC0C18BF03325FEACB
:1005E000DC0C18BF033202EBDC02C2F1200300FA7C
:1005F00003FC20FA02F001FA03FE40EA0E0021FAA1
:1006000002F11444BDE600BF70B54FF0FF0C4CF48E
:10061000E06C1CEA11541DBF1CEA135594EA0C0F40
:1006200095EA0C0F00F0DEF82C4481EA030621EA7B
:100630004C5123EA4C5350EA013518BF52EA0335B6
:1006400041F4801143F4801338D0A0FB02CE4FF068
:100650000005E1FB02E506F00042E0FB03E54FF098
:100660000006E1FB03569CF0000F18BF4EF0010E90
:10067000A4F1FF04B6F5007F64F5407404D25FEA8C
:100680004E0E6D4146EB060642EAC62141EA55513F
:100690004FEAC52040EA5E504FEACE2EB4F1FD0C81
:1006A00088BFBCF5E06F1ED8BEF1004F08BF5FEAFF
:1006B000500E50F1000041EB045170BD06F00046B1
:1006C00046EA010140EA020081EA0301B4EB5C045E
:1006D000C2BFD4EB0C0541EA045170BD41F4801156
:1006E0004FF0000E013C00F3AB8014F1360FDEBF7B
:1006F000002001F0004170BDC4F10004203C35DA57
:100700000C341BDC04F11404C4F1200500FA05F3D9
:1007100020FA04F001FA05F240EA020001F000427A
:1007200021F0004110EBD37021FA04F642EB0601F0
:100730005EEA430E08BF20EAD37070BDC4F10C041A
:10074000C4F1200500FA04F320FA05F001FA04F2DE
:1007500040EA020001F0004110EBD37041F10001CA
:100760005EEA430E08BF20EAD37070BDC4F12005D5
:1007700000FA05F24EEA020E20FA04F301FA05F23D
:1007800043EA020321FA04F001F0004121FA04F2E5
:1007900020EA020000EBD3705EEA430E08BF20EAB5
:1007A000D37070BD94F0000F0FD101F000464000EF
:1007B00041EB010111F4801F08BF013CF7D041EA71
:1007C000060195F0000F18BF704703F00046520075
:1007D00043EB030313F4801F08BF013DF7D043EA46
:1007E0000603704794EA0C0F0CEA135518BF95EAFC
:1007F0000C0F0CD050EA410618BF52EA4306D1D183
:1008000081EA030101F000414FF0000070BD50EAA1
:10081000410606BF1046194652EA430619D094EA2B
:100820000C0F02D150EA013613D195EA0C0F05D115
:1008300052EA03361CBF104619460AD181EA030169
:1008400001F0004141F0FE4141F470014FF0000021
:1008500070BD41F0FE4141F4780170BD70B54FF0BC
:10086000FF0C4CF4E06C1CEA11541DBF1CEA13553C
:1008700094EA0C0F95EA0C0F00F0A7F8A4EB05041E
:1008800081EA030E52EA03354FEA013100F0888015
:100890004FEA03334FF0805545EA131343EA1263DE
:1008A0004FEA022245EA111545EA10654FEA002693
:1008B0000EF000419D4208BF964244F1FD0404F54C
:1008C000407402D25B084FEA3202B61A65EB0305A8
:1008D0005B084FEA32024FF480104FF4002CB6EB65
:1008E000020E75EB030E22BFB61A754640EA0C00E5
:1008F0005B084FEA3202B6EB020E75EB030E22BF25
:10090000B61A754640EA5C005B084FEA3202B6EB65
:10091000020E75EB030E22BFB61A754640EA9C0024
:100920005B084FEA3202B6EB020E75EB030E22BFF4
:10093000B61A754640EADC0055EA060E18D04FEAB2
:10094000051545EA16754FEA06164FEAC30343EA52
:1009500052734FEAC2025FEA1C1CC0D111F4801F1F
:100960000BD141EA00014FF000004FF0004CB6E718
:1009700011F4801F04BF01430020B4F1FD0C88BFB7
:10098000BCF5E06F3FF6AFAEB5EB030C04BFB6EBC2
:10099000020C5FEA500C50F1000041EB045170BDB5
:1009A0000EF0004E4EEA113114EB5C04C2BFD4EBE2
:1009B0000C0541EA045170BD41F480114FF0000E66
:1009C000013C90E645EA060E8DE60CEA135594EAE2
:1009D0000C0F08BF95EA0C0F3FF43BAF94EA0C0FE5
:1009E0000AD150EA01347FF434AF95EA0C0F7FF45A
:1009F00025AF104619462CE795EA0C0F06D152EAAE
:100A000003353FF4FDAE1046194622E750EA410691
:100A100018BF52EA43067FF4C5AE50EA41047FF4A2
:100A20000DAF52EA43057FF4EBAE12E74FF0FF3C07
:100A300006E000BF4FF0010C02E000BF4FF0010CD8
:100A40004DF804CD4FEA410C7FEA6C5C4FEA430C51
:100A500018BF7FEA6C5C1BD001B050EA410C0CBFA0
:100A600052EA430C91EA030F02BF90EA020F002002
:100A7000704710F1000F91EA030F58BF994208BF69
:100A800090422CBFD8176FEAE37040F00100704726
:100A90004FEA410C7FEA6C5C02D150EA013C07D17D
:100AA0004FEA430C7FEA6C5CD6D152EA033CD3D0C8
:100AB0005DF8040B704700BF8446104662468C46C2
:100AC0001946634600E000BF01B5FFF7B7FF0028F5
:100AD00048BF10F1000F01BD4DF808EDFFF7F4FF1E
:100AE0000CBF012000205DF808FB00BF4DF808EDA9
:100AF000FFF7EAFF34BF012000205DF808FB00BFCC
:100B00004DF808EDFFF7E0FF94BF012000205DF8ED
:100B100008FB00BF4DF808EDFFF7CEFF94BF0120A2
:100B200000205DF808FB00BF4DF808EDFFF7C4FF9B
:100B300034BF012000205DF808FB00BF4FEA410CE4
:100B40007FEA6C5C02D150EA013C0AD14FEA430CC7
:100B50007FEA6C5C02D152EA033C02D14FF0000004
:100B600070474FF0010070474FEA410212F5001242
:100B700015D211D56FF47873B3EB625212D94FEAE4
:100B8000C12343F0004343EA505311F0004F23FACE
:100B900002F018BF404270474FF00000704750EA23
:100BA000013005D111F0004008BF6FF000407047E0
:100BB0004FF00000704700BF4A0011D212F500123A
:100BC00011D20DD56FF47873B3EB62520ED44FEAA5
:100BD000C12343F0004343EA505323FA02F0704725
:100BE0004FF00000704750EA013002D14FF0FF3063
:100BF00070474FF0000070474FEA4102B2F1E04306
:100C000024BFB3F5001CDCF1FE5C0DD901F0004CF3
:100C10004FEAC0024CEA5070B2F1004F40EB830043
:100C200008BF20F00100704711F0804F21D113F16F
:100C30003872BCBF01F00040704741F480114FEAA8
:100C40005252C2F11802C2F1200C10FA0CF320FA31
:100C500002F018BF40F001004FEAC1234FEAD3234E
:100C600003FA0CFC40EA0C0023FA02F34FEA4303B8
:100C7000CCE77FEA625307D150EA01331EBF4FF041
:100C8000FE4040F44000704701F0004040F0FE405C
:100C900040F40000704700BF53B94AB9002908BFAB
:100CA00000281CBF4FF0FF314FF0FF3000F06AB951
:100CB000ADF1080C6DE904CE00F006F8DDF804E0B3
:100CC000DDE9022304B070472DE9F047089D0C468A
:100CD000002B4ED194468C458646B2FA82F262D9F8
:100CE0004AB1C2F12003914020FA03F30CFA02FC4E
:100CF000194300FA02FE4FEA1C471FFA8CF6B1FBBB
:100D0000F7F44FEA1E4307FB141143EA014304FBC7
:100D100006F199420AD91CEB030304F1FF3080F07D
:100D20001281994240F20F81023C6344591A1FFA22
:100D30008EF3B1FBF7F007FB101143EA014300FB10
:100D400006F69E420AD91CEB030300F1FF3180F046
:100D5000FC809E4240F2F980634402389B1B40EACB
:100D6000044000211DB1D3400022C5E90032BDE896
:100D7000F0878B4205D90DB1C5E900010021084675
:100D8000F5E7B3FA83F1002946D1A34202D390429A
:100D9000C0F0F080861A64EB03030120002DE6D03A
:100DA000C5E90063E3E7002A40F09080A1EB0C0462
:100DB0004FEA1C481FFA8CF70121B4FBF8F64FEA02
:100DC0001E4308FB164443EA044307FB06F098421F
:100DD00008D91CEB030306F1FF3402D2984200F25B
:100DE000CD8026461C1A1FFA8EF3B4FBF8F008FBE0
:100DF000104443EA044300FB07F79F4208D91CEB69
:100E0000030300F1FF3402D29F4200F2B08020467B
:100E1000DB1B40EA0640A5E7C1F120068B4022FA21
:100E200006F71F4320FA06FC04FA01F343EA0C0319
:100E3000F44000FA01F8380C4FEA1349B4FBF0FE15
:100E40001FFA87FC00FB1E4449EA04440EFB0CF920
:100E5000A14502FA01F20AD93C190EF1FF3A80F0DD
:100E60008480A14540F28180AEF1020E3C44A4EBA7
:100E700009041FFA83F9B4FBF0F300FB134449EAB9
:100E8000044403FB0CFCA44507D93C1903F1FF30D3
:100E900067D2A44565D9023B3C4443EA0E40A0FB1F
:100EA0000293A4EB0C049C42CE469C4651D34ED0F8
:100EB00055B1B8EB0E0364EB0C0404FA06F6CB4014
:100EC0001E43CC40C5E90064002150E7C2F1200375
:100ED00020FA03F10CFA02FC24FA03F394400C43C9
:100EE0004FEA1C4800FA02FE1FFA8CF7B3FBF8F039
:100EF00008FB1031230C43EA014300FB07F1994240
:100F000008D91CEB030300F1FF362CD299422AD9F1
:100F1000023863445B1AA4B2B3FBF8F108FB113347
:100F200044EA034401FB07F3A34208D91CEB040481
:100F300001F1FF3613D2A34211D902396444E41AF5
:100F400041EA004139E70446F0E6084606E7C845AD
:100F5000AED2B9EB020E63EB070C0138A8E73146BD
:100F6000EDE7034699E73046D4E7D6467FE763448A
:100F700002384DE70646234608460FE7023E634423
:100F800030E700BF704700BF80B584B002AF0B23CD
:100F90003B7101237B710E4B1B7819463A1D64236C
:100FA000009302230B4801F0CBFF09233B711D2363
:100FB0007B71074B1B7819463A1D6423009302236B
:100FC000044801F0BDFF00BF0837BD4680BD00BF2B
:100FD0000000002044030020B0B58AB004AFF860E0
:100FE000B9607A603B60424B1B78194664230293D8
:100FF0000623019307F110030093012300223D48CB
:1010000002F09CF87B7C1B021AB23B7C1BB21343A0
:101010001BB29AB2384BB3F900309BB2D31A9BB2D1
:101020001AB2FB681A80FB7C1B021AB2BB7C1BB293
:1010300013431BB29AB2314BB3F900309BB2D31AAF
:101040009BB21AB2BB681A807B7D1B021AB23B7D31
:101050001BB213431AB27B681A80BB68B3F9003025
:1010600007EE903AF8EEE77A17EE900AFFF774FA77
:1010700004460D46FB68B3F9003007EE903AF8EEEF
:10108000E77A17EE900AFFF767FA02460B4643EC41
:10109000112B45EC104B0DF0CFF951EC100B12A3B6
:1010A000D3E90023FFF7B0FA02460B461046194673
:1010B000FFF7A2FD02463B681A603B68D3ED007A59
:1010C000F5EEC07AF1EE10FA00D409E03B68D3EDFA
:1010D000007A9FED0B7A77EE877A3B68C3ED007A52
:1010E00000BF1837BD46B0BDF8C1631ADCA54C403F
:1010F0000000002044030020F0020020F202002043
:101100000000B44380B594B000AF47F6FF73A7F872
:101110004E304FF40043A7F84C3047F6FF73A7F862
:101120004A304FF40043A7F8483000F0E1FF03468F
:1011300003F51C5310337B643B1D464A402118467F
:101140000BF03AF83B1D1846FFF79AF803469AB29F
:10115000391D6423404805F0E5FA3B1D1846FFF7AA
:101160008FF803469AB23B1D1146184609F0B8FEA7
:1011700034E00023394A3A493A48FFF72DFF394B0A
:10118000B3F90030B7F94E209A4203DD354B1B8886
:10119000A7F84E30334BB3F90030B7F94C209A42E0
:1011A00003DA304B1B88A7F84C302D4BB3F90030D5
:1011B000B7F94A209A4203DD294B1B88A7F84A3029
:1011C000274BB3F90030B7F948209A4203DA244B91
:1011D0001B88A7F84830642000F096FF00F088FFD5
:1011E00002467B6C9342C4D8B7F94C20B7F94E3015
:1011F0001344DA0F13445B101AB21B4B1A80B7F971
:101200004820B7F94A301344DA0F13445B101AB27E
:10121000164B1A803B1D164A402118460AF0CCFF97
:101220003B1D1846FFF72CF803469AB2391D64237C
:10123000094805F077FA3B1D1846FFF721F80346E9
:101240009AB23B1D1146184609F04AFE00BF5037BE
:10125000BD4680BD28E90008E0030020F802002018
:10126000F6020020F4020020F0020020F20200202A
:1012700054E9000880B500AF00222021044801F0A5
:1012800001FD00221021024801F0FCFC00BF80BDDE
:101290000004024080B483B000AF7860044B1B6848
:1012A0007A685A6300BF0C37BD465DF8047B70470F
:1012B000980300200000000080B59AB002AF07F14B
:1012C000440307F14A0207F14C0107F14E00FFF712
:1012D00083FE7B6C1846FFF73FF902460B46381D2C
:1012E000CDE900233E4A40210AF066FF3B1D184627
:1012F000FEF7C6FF03469AB2391D6423394805F04C
:1013000011FA3B1D1846FEF7BBFF03469AB23B1D80
:101310001146184609F0E4FD4FF4FA7000F0F4FEAF
:101320007B6CBB65304B93ED007AD7ED167A77EE88
:10133000677AC7ED157A2D4BD3ED007A97ED157AC4
:1013400067EE277AC7ED177AD7ED177AB2EE0E7AE5
:10135000F4EEC77AF1EE10FA01DD254BFB65D7ED0F
:10136000177ABAEE0E7AF4EEC77AF1EE10FA01D5DA
:10137000204BFB65D7ED177AB2EE0E7A77EE877ABF
:1013800017EE900AFFF7E8F84FF000021A4BFFF74C
:1013900065FA02460B46104619464FF00002174BFD
:1013A000FFF732F902460B46104619460AA3D3E965
:1013B0000023FEF773FF02460B4610461946FFF75F
:1013C000FBFB03463B65386DFFF764FF00BF6037EA
:1013D000BD4680BDAFF300800000000000A0744057
:1013E0006CE90008E00300200C0000200800002049
:1013F00000007041000070C100003E400040754098
:1014000080B500AF00F00EFE00F032F800F0D4F925
:1014100000F0A8F900F094F800F012F900F0E2F8FA
:1014200009F0A0FC01220F490F4805F006FA00213F
:101430000E4804F0A7FB04210C4804F0A3FB08218C
:101440000A4804F09FFB094B1B684FF4FA725A6379
:10145000FFF710FFFFF798FDFFF754FEFFF72CFF93
:10146000FCE700BF28040020E003002098030020D0
:1014700080B594B000AF07F1200330220021184658
:101480000AF011FF07F10C0300221A605A609A60FB
:10149000DA601A610023BB60274B1B6C264A43F0BD
:1014A00080531364244B1B6C03F08053BB60BB68F8
:1014B00000237B60214B1B68204A43F440431360A8
:1014C0001E4B1B6803F440437B607B6801233B6237
:1014D0004FF480337B620223BB634FF48003FB63D2
:1014E00019233B6490237B640223BB640323FB64C6
:1014F00007F12003184603F045FE0346002B01D0F8
:1015000000F0B6FA0F23FB6002233B6100237B61EE
:101510004FF48053BB610023FB6107F10C030221F0
:10152000184604F0A7F80346002B01D000F0A0FAFB
:1015300000BF5037BD4680BD0038024000700040FB
:1015400080B584B000AF3B4600221A605A609A60B2
:10155000DA60214B214A1A601F4B00225A601E4B51
:1015600000229A601C4B00221A611B4B00221A7643
:10157000194B002283F82020174B0022DA62164B09
:10158000174A9A62144B0022DA60134B0122DA6187
:10159000114B002283F830200F4B01225A610E4874
:1015A00000F0D6FD0346002B01D000F061FA0123C4
:1015B0003B6001237B600023BB603B461946064825
:1015C00000F00AFE0346002B01D000F051FA00BFE4
:1015D0001037BD4680BD00BFFC0200200020014046
:1015E0000100000F80B500AF124B134A1A60114B77
:1015F000124A5A600F4B00229A600E4B0022DA60AA
:101600000C4B4FF480421A610A4B00225A61094B7D
:1016100000229A61074B0022DA61064B00221A620F
:10162000044801F049FB0346002B01D000F020FAEA
:1016300000BF80BD4403002000580040A086010088
:1016400080B58EB000AF07F1280300221A605A60FF
:101650009A60DA6007F1200300221A605A603B1D8D
:1016600000221A605A609A60DA601A615A619A61BF
:101670003B4B4FF080421A60394B47225A60384B3F
:1016800000229A60364B44F62062DA60344B002226
:101690001A61334B00229A61314804F0CBF90346BA
:1016A000002B01D000F0E4F94FF48053BB6207F146
:1016B000280319462A4804F0D7FB0346002B01D023
:1016C00000F0D6F9264804F004FA0346002B01D0B6
:1016D00000F0CEF900233B6200237B6207F1200378
:1016E00019461F4804F060FF0346002B01D000F0AC
:1016F000BFF960237B604FF4FA73BB600023FB608B
:1017000000237B613B1D00221946154804F0EAFACC
:101710000346002B01D000F0ABF90023BB603B1D5A
:10172000042219460E4804F0DDFA0346002B01D0CE
:1017300000F09EF94FF4FA73BB603B1D0822194676
:10174000074804F0CFFA0346002B01D000F090F9CF
:10175000034800F079FA00BF3837BD4680BD00BFAE
:101760009803002080B500AF114B124A1A60104B4D
:101770004FF416525A600E4B00229A600C4B002216
:10178000DA600B4B00221A61094B0C225A61084B9C
:1017900000229A61064B0022DA61054804F072FFCC
:1017A0000346002B01D000F063F900BF80BD00BFED
:1017B000E00300200010014080B588B000AF07F1C1
:1017C0000C0300221A605A609A60DA601A610023E2
:1017D000BB601F4B1B6B1E4A43F0800313631C4B03
:1017E0001B6B03F08003BB60BB6800237B60184B5E
:1017F0001B6B174A43F001031363154B1B6B03F07C
:1018000001037B607B6800233B60114B1B6B104A1C
:1018100043F0020313630E4B1B6B03F002033B60A8
:101820003B68002230210B4801F02CFA3023FB608A
:1018300001233B6100237B610023BB6107F10C03A3
:101840001946044801F09AF800BF2037BD4680BD14
:10185000003802400004024080B582B000AF7860DA
:101860007B681B687A4A934240F0E980794B1B7889
:101870004E2B0AD101222021774801F003FA0022E1
:101880001021754801F0FEF9D4E0724B1B78592BFA
:101890000AD100222021704801F0F4F90122102120
:1018A0006D4801F0EFF9C5E06A4B1B78452B0AD172
:1018B00000222021684801F0E5F900221021664845
:1018C00001F0E0F9B6E0634B1B78412B55D1634B37
:1018D00093F900301A46624B1B689A4224DD604B34
:1018E0001B685AB25D4B1A705C4B93F900302D3374
:1018F0001846FEF71FFE54A3D3E90023FEF7AEFF00
:1019000002460B4610461946FFF776F90346554A3C
:101910001360544BD3ED007A534B1B68FCEEE77A0F
:1019200017EE902A5A6385E04C4B93F90030DBB2F6
:101930000133DBB25AB2494B1A70484B93F900306D
:101940002D331846FEF7F6FD3FA3D3E90023FEF73B
:1019500085FF02460B4610461946FFF74DF9034630
:10196000404A13603F4BD3ED007A3F4B1B68FCEEBF
:10197000E77A17EE902A5A635CE0364B1B78422BCD
:1019800058D1364B93F900301A46354B1B685B42F1
:101990009A4227DA324B1B68DBB25B42DBB25AB2A7
:1019A0002E4B1A702D4B93F900302D331846FEF74D
:1019B000C1FD25A3D3E90023FEF750FF02460B46E5
:1019C00010461946FFF718F90346264A1360254BBF
:1019D000D3ED007A244B1B68FCEEE77A17EE902AD1
:1019E0005A6327E01D4B93F90030DBB2013BDBB2B9
:1019F0005AB21A4B1A70194B93F900302D3318460E
:101A0000FEF798FD10A3D3E90023FEF727FF024657
:101A10000B4610461946FFF7EFF80346114A1360CC
:101A2000104BD3ED007A104B1B68FCEEE77A17EEF3
:101A3000902A5A63012207490C4804F0FEFE00BFB9
:101A40000837BD4680BD00BF0AD7A3703D0AB73F27
:101A50000010014028040020000402402904002056
:101A6000040000202C04002098030020E003002044
:101A700080B400AF72B600BF00BFFDE780B483B092
:101A800000AF00237B60104B5B6C0F4A43F4804334
:101A900053640D4B5B6C03F480437B607B680023D5
:101AA0003B60094B1B6C084A43F080531364064BA0
:101AB0001B6C03F080533B603B6800BF0C37BD4696
:101AC0005DF8047B704700BF0038024080B58AB0E3
:101AD00000AF786007F1140300221A605A609A6020
:101AE000DA601A617B681B68174A934227D100238A
:101AF0003B61164B5B6C154A43F480735364134B84
:101B00005B6C03F480733B613B690023FB600F4B0C
:101B10001B6B0E4A43F0010313630C4B1B6B03F06A
:101B20000103FB60FB6802237B610323BB6100238D
:101B3000FB6107F114031946054800F01FFF00BFC1
:101B40002837BD4680BD00BF00200140003802405C
:101B50000000024080B58AB000AF786007F114033E
:101B600000221A605A609A60DA601A617B681B680A
:101B7000224A93423DD100233B61214B1B6B204AFB
:101B800043F0020313631E4B1B6B03F002033B6124
:101B90003B694FF480637B611223BB610023FB61CF
:101BA00003233B6204237B6207F1140319461548A3
:101BB00000F0E4FE4FF400737B611223BB6100234D
:101BC000FB6103233B6209237B6207F1140319467F
:101BD0000C4800F0D3FE0023FB60094B1B6C084A45
:101BE00043F480031364064B1B6C03F48003FB6017
:101BF000FB6800BF2837BD4680BD00BF00580040CD
:101C0000003802400004024080B485B000AF786024
:101C10007B681B68B3F1804F0DD10023FB60094B3B
:101C20001B6C084A43F001031364064B1B6C03F062
:101C30000103FB60FB6800BF1437BD465DF8047B01
:101C4000704700BF0038024080B58AB000AF7860AE
:101C500007F1140300221A605A609A60DA601A6170
:101C60007B681B68B3F1804F3BD100233B611F4B66
:101C70001B6B1E4A43F0010313631C4B1B6B03F0E9
:101C800001033B613B690023FB60184B1B6B174A48
:101C900043F002031363154B1B6B03F00203FB605D
:101CA000FB6805237B610223BB610023FB610023EA
:101CB0003B6201237B6207F1140319460C4800F0D4
:101CC0005DFE08237B610223BB610023FB610023CF
:101CD0003B6201237B6207F114031946054800F0BB
:101CE0004DFE00BF2837BD4680BD00BF0038024012
:101CF000000002400004024080B58AB000AF786066
:101D000007F1140300221A605A609A60DA601A61BF
:101D10007B681B681D4A934234D100233B611C4BF6
:101D20005B6C1B4A43F010035364194B5B6C03F06C
:101D300010033B613B690023FB60154B1B6B144A8E
:101D400043F001031363124B1B6B03F00103FB60B1
:101D5000FB684FF4C0637B610223BB610023FB611E
:101D600003233B6207237B6207F1140319460948EA
:101D700000F004FE00220021252000F036FD252081
:101D800000F04FFD00BF2837BD4680BD0010014068
:101D9000003802400000024080B400AF00BFFDE701
:101DA00080B400AF00BFFDE780B400AF00BFFDE727
:101DB00080B400AF00BFFDE780B400AF00BFFDE717
:101DC00080B400AF00BFBD465DF8047B704780B4AF
:101DD00000AF00BFBD465DF8047B704780B400AF24
:101DE00000BFBD465DF8047B704780B500AF00F0D2
:101DF0006BF900BF80BD000080B500AF024804F061
:101E000041FD00BF80BD00BFE003002080B500AFF2
:101E1000024802F0A9F800BF80BD00BF18190020D9
:101E200080B400AF01231846BD465DF8047B7047BF
:101E300080B582B000AF786039600AF087FA034657
:101E400016221A604FF0FF3318460837BD4680BD92
:101E500080B582B000AF78604FF0FF317868FFF74F
:101E6000E7FF00BFFDE780B586B000AFF860B9605E
:101E70007A6000237B610AE0AFF300800146BB6813
:101E80005A1CBA60CAB21A707B6901337B617A69E5
:101E90007B689A42F0DB7B6818461837BD4680BDE8
:101EA00080B586B000AFF860B9607A6000237B61CE
:101EB00009E0BB685A1CBA601B781846AFF3008073
:101EC0007B6901337B617A697B689A42F1DB7B68CD
:101ED00018461837BD4680BD80B483B000AF786027
:101EE0004FF0FF3318460C37BD465DF8047B704752
:101EF00080B483B000AF786039603B684FF4005223
:101F00005A60002318460C37BD465DF8047B7047C5
:101F100080B483B000AF7860012318460C37BD460B
:101F20005DF8047B704780B485B000AFF860B9609D
:101F30007A60002318461437BD465DF8047B70476D
:101F400080B586B000AF7860144A154BD31A7B6118
:101F50007B693B61134B1B68002B02D1114B124A6A
:101F60001A60104B1A687B6813443A699A4207D288
:101F70000AF0ECF903460C221A604FF0FF3309E037
:101F8000084B1B68FB60074B1A687B681344054AC3
:101F90001360FB6818461837BD4680BD000002205C
:101FA00000040000300400206821002080B400AF4D
:101FB000064BD3F88830054A43F47003C2F88830E2
:101FC00000BFBD465DF8047B704700BF00ED00E038
:101FD000DFF834D0FFF7EAFF0C480D490D4A002323
:101FE00002E0D458C4500433C4188C42F9D30A4ACE
:101FF0000A4C002301E013600432A242FBD30AF032
:10200000ABF9FFF7FDF97047000002200000002047
:10201000D4020020D8ED0008D4020020682100205E
:10202000FEE7000080B500AF0E4B1B680D4A43F47D
:10203000007313600B4B1B680A4A43F48063136000
:10204000084B1B68074A43F480731360032000F0B9
:10205000C1FB0F2000F008F8FFF710FD0023184621
:1020600080BD00BF003C024080B582B000AF786008
:10207000124B1A68124B1B7819464FF47A73B3FB54
:10208000F1F3B2FBF3F3184600F0D9FB0346002B43
:1020900001D001230EE07B680F2B0AD8002279685B
:1020A0004FF0FF3000F0A1FB064A7B68136000236D
:1020B00000E0012318460837BD4680BD100000200F
:1020C000180000201400002080B400AF064B1B78DD
:1020D0001A46064B1B681344044A136000BFBD46F2
:1020E0005DF8047B704700BF180000203404002016
:1020F00080B400AF034B1B681846BD465DF8047BF7
:10210000704700BF3404002080B584B000AF786011
:10211000FFF7EEFFB8607B68FB60FB68B3F1FF3F41
:1021200005D00A4B1B781A46FB681344FB6000BFBE
:10213000FFF7DEFF0246BB68D31AFA689A42F7D867
:1021400000BF00BF1037BD4680BD00BF1800002093
:1021500080B584B000AF78600023FB737B68002BF0
:1021600001D1012333E07B681B6C002B09D1786817
:10217000FFF7ACFC7B6800225A647B68002283F87E
:102180003C207B681B6C03F01003002B18D17B688C
:102190001B6C23F4885323F0020343F002027B6894
:1021A0001A64786800F04AF97B6800225A647B68F8
:1021B0001B6C23F0030343F001027B681A6401E007
:1021C0000123FB737B68002283F83C20FB7B1846CD
:1021D0001037BD4680BD000080B485B000AF786088
:1021E00039600023BB607B6893F83C30012B01D140
:1021F000022313E17B68012283F83C203B681B68C3
:10220000092B25D97B681B68D9683B681B689BB282
:102210001A4613465B0013441E3B072202FA03F3DF
:10222000DA437B681B680A40DA607B681B68D96800
:102230003B689A683B681B689BB2184603465B0084
:1022400003441E3B9A407B681B680A43DA6022E025
:102250007B681B6819693B681B689BB21A4613466A
:102260005B001344072202FA03F3DA437B681B681E
:102270000A401A617B681B6819693B689A683B6869
:102280001B689BB2184603465B0003449A407B6878
:102290001B680A431A613B685B68062B24D87B687D
:1022A0001B68596B3B685A6813469B001344053BF7
:1022B0001F2202FA03F3DA437B681B680A405A6361
:1022C0007B681B68596B3B681B689BB218463B6870
:1022D0005A6813469B001344053B00FA03F27B68DF
:1022E0001B680A435A634CE03B685B680C2B24D89C
:1022F0007B681B68196B3B685A6813469B00134444
:10230000233B1F2202FA03F3DA437B681B680A406F
:102310001A637B681B68196B3B681B689BB2184685
:102320003B685A6813469B001344233B00FA03F2B0
:102330007B681B680A431A6323E07B681B68D96AC1
:102340003B685A6813469B001344413B1F2202FA24
:1023500003F3DA437B681B680A40DA627B681B6818
:10236000D96A3B681B689BB218463B685A6813469B
:102370009B001344413B00FA03F27B681B680A434D
:10238000DA62294BFB607B681B68284A93420FD1B5
:102390003B681B68122B0BD1FB685B6823F40002BF
:1023A000FB685A60FB685B6843F48002FB685A6014
:1023B0007B681B681D4A93422BD13B681B681C4AF3
:1023C000934203D03B681B68112B22D1FB685B68EA
:1023D00023F48002FB685A60FB685B6843F40002E8
:1023E000FB685A603B681B68114A934211D1114B3C
:1023F0001B68114AA2FB03239A0C13469B0013444B
:102400005B00BB6002E0BB68013BBB60BB68002BAC
:10241000F9D17B68002283F83C200023184614374A
:10242000BD465DF8047B7047002301400020014059
:10243000120000101000002083DE1B4380B485B022
:1024400000AF7860794BFB60FB685B6823F4403237
:10245000FB685A60FB685A687B685B681A43FB68D4
:102460005A607B681B685A687B681B6822F480721C
:102470005A607B681B6859687B681B691A027B6815
:102480001B680A435A607B681B685A687B681B6834
:1024900022F040725A607B681B6859687B689A68B2
:1024A0007B681B680A435A607B681B689A687B6874
:1024B0001B6822F400629A607B681B6899687B68DD
:1024C000DA687B681B680A439A607B689B6A584A93
:1024D000934222D07B681B689A687B681B6822F055
:1024E00070629A607B681B6899687B689A6A7B68EF
:1024F0001B680A439A607B681B689A687B681B6844
:1025000022F040529A607B681B6899687B68DA6A9F
:102510007B681B680A439A600FE07B681B689A68B7
:102520007B681B6822F070629A607B681B689A68FF
:102530007B681B6822F040529A607B681B689A682F
:102540007B681B6822F002029A607B681B689968AE
:102550007B681B7E5A007B681B680A439A607B6815
:1025600093F82030002B1BD07B681B685A687B686F
:102570001B6842F400625A607B681B685A687B687B
:102580001B6822F460425A607B681B6859687B684C
:102590005B6A013B5A037B681B680A435A6007E089
:1025A0007B681B685A687B681B6822F400625A606B
:1025B0007B681B68DA6A7B681B6822F47002DA6247
:1025C0007B681B68D96A7B68DB69013B1A057B68FD
:1025D0001B680A43DA627B681B689A687B681B6821
:1025E00022F400729A607B681B6899687B6893F894
:1025F00030305A027B681B680A439A607B681B680C
:102600009A687B681B6822F480629A607B681B680A
:1026100099687B685B699A027B681B680A439A60C9
:1026200000BF1437BD465DF8047B704700230140AE
:102630000100000F80B485B000AF78607B6803F0C4
:102640000703FB600C4BDB68BB60BA684FF6FF0307
:102650001340BB60FB681A02BB68134343F0BF63BF
:1026600043F40033BB60044ABB68D36000BF143737
:10267000BD465DF8047B704700ED00E080B400AF1C
:10268000044BDB681B0A03F007031846BD465DF8E0
:10269000047B704700ED00E080B483B000AF0346D8
:1026A000FB7197F90730002B0BDBFB7903F01F025E
:1026B000074997F907305B09012000FA02F241F857
:1026C000232000BF0C37BD465DF8047B704700BF78
:1026D00000E100E080B483B000AF03463960FB71D5
:1026E00097F90730002B0ADB3B68DAB20C4997F9FF
:1026F00007301201D2B20B4483F800230AE03B6892
:10270000DAB20849FB7903F00F03043B1201D2B29D
:102710000B441A7600BF0C37BD465DF8047B70474A
:1027200000E100E000ED00E080B489B000AFF860A7
:10273000B9607A60FB6803F00703FB61FB69C3F1D2
:102740000703042B28BF0423BB61FB690433062B5A
:1027500002D9FB69033B00E000237B614FF0FF32AD
:10276000BB6902FA03F3DA43BB681A407B699A40FB
:102770004FF0FF317B6901FA03F3D9437B680B40CB
:10278000134318462437BD465DF8047B70470000AC
:1027900080B582B000AF78607B68013BB3F1807F89
:1027A00001D301230FE00A4A7B68013B53600F21EC
:1027B0004FF0FF30FFF78EFF054B00229A60044B6D
:1027C00007221A60002318460837BD4680BD00BFA7
:1027D00010E000E080B582B000AF78607868FFF765
:1027E00029FF00BF0837BD4680BD80B586B000AF69
:1027F0000346B9607A60FB7300237B61FFF73EFFFD
:1028000078617A68B9687869FFF78EFF024697F9B0
:102810000F3011461846FFF75DFF00BF1837BD4661
:1028200080BD80B582B000AF0346FB7197F90730D9
:102830001846FFF731FF00BF0837BD4680BD80B5A1
:1028400082B000AF78607868FFF7A2FF03461846B1
:102850000837BD4680BD80B584B000AF78607B6826
:102860009B6DFB60FFF744FCB8607B6893F83530E4
:10287000DBB2022B08D07B6880225A657B6800227D
:1028800083F83420012352E07B681B681A687B6858
:102890001B6822F016021A607B681B685A697B6805
:1028A0001B6822F080025A617B681B6C002B03D1ED
:1028B0007B689B6C002B07D07B681B681A687B6861
:1028C0001B6822F008021A607B681B681A687B6824
:1028D0001B6822F001021A6013E0FFF709FC0246B0
:1028E000BB68D31A052B0CD97B6820225A657B68FC
:1028F000032283F835207B68002283F834200323E9
:1029000015E07B681B681B6803F00103002BE4D112
:102910007B68DB6D3F229A40FB689A607B680122EE
:1029200083F835207B68002283F834200023184682
:102930001037BD4680BD80B483B000AF78607B683F
:1029400093F83530DBB2022B04D07B6880225A65C5
:1029500001230CE07B68052283F835207B681B6827
:102960001A687B681B6822F001021A60002318466F
:102970000C37BD465DF8047B7047000080B489B019
:1029800000AF7860396000237B6100233B61002346
:10299000BB610023FB6159E10122FB6902FA03F3E9
:1029A0007B613B681B687A6913403B613A697B69CC
:1029B0009A4240F048813B685B6803F00303012BB7
:1029C00005D03B685B6803F00303022B30D17B68C2
:1029D0009B68BB61FB695B00032202FA03F3DB43E4
:1029E000BA691340BB613B68DA68FB695B0002FAB5
:1029F00003F3BA691343BB617B68BA699A607B6869
:102A00005B68BB610122FB6902FA03F3DB43BA692D
:102A10001340BB613B685B681B0903F00102FB6963
:102A200002FA03F3BA691343BB617B68BA695A605F
:102A30003B685B6803F00303032B17D07B68DB68FC
:102A4000BB61FB695B00032202FA03F3DB43BA6953
:102A50001340BB613B689A68FB695B0002FA03F3B1
:102A6000BA691343BB617B68BA69DA603B685B682B
:102A700003F00303022B23D1FB69DA087B680832D9
:102A800053F82230BB61FB6903F007039B000F2260
:102A900002FA03F3DB43BA691340BB613B681A696E
:102AA000FB6903F007039B0002FA03F3BA691343BF
:102AB000BB61FB69DA087B680832B96943F8221008
:102AC0007B681B68BB61FB695B00032202FA03F3AE
:102AD000DB43BA691340BB613B685B6803F00302E8
:102AE000FB695B0002FA03F3BA691343BB617B68BD
:102AF000BA691A603B685B6803F44033002B00F04E
:102B0000A2800023FB60574B5B6C564A43F4804322
:102B10005364544B5B6C03F48043FB60FB68524A84
:102B2000FB699B08023352F82330BB61FB6903F059
:102B300003039B000F2202FA03F3DB43BA6913403D
:102B4000BB617B68494A934219D07B68484A9342EB
:102B500013D07B68474A93420DD07B68464A934224
:102B600007D07B68454A934201D1042308E007233C
:102B700006E0032304E0022302E0012300E0002337
:102B8000FA6902F0030292009340BA691343BB61F1
:102B90003549FB699B080233BA6941F82320384B59
:102BA0009B68BB613B69DB43BA691340BB613B680F
:102BB0005B6803F48013002B03D0BA693B691343AD
:102BC000BB612F4ABB6993602D4BDB68BB613B69DE
:102BD000DB43BA691340BB613B685B6803F40013D5
:102BE000002B03D0BA693B691343BB61244ABB691C
:102BF000D360234B5B68BB613B69DB43BA6913401D
:102C0000BB613B685B6803F40033002B03D0BA69F7
:102C10003B691343BB611A4ABB695360184B1B687D
:102C2000BB613B69DB43BA691340BB613B685B68CE
:102C300003F48033002B03D0BA693B691343BB61B3
:102C40000F4ABB691360FB690133FB61FB690F2B02
:102C50007FF6A2AE00BF00BF2437BD465DF8047BFF
:102C6000704700BF003802400038014000000240B9
:102C70000004024000080240000C02400010024024
:102C8000003C014080B483B000AF78600B467B808D
:102C900013467B707B78002B03D07A887B689A611F
:102CA00003E07B881A047B689A6100BF0C37BD463D
:102CB0005DF8047B7047000080B584B000AF786099
:102CC0007B68002B01D101232BE17B6893F83D3019
:102CD000DBB2002B06D17B68002283F83C207868A9
:102CE000FEF738FF7B68242283F83D207B681B6851
:102CF0001A687B681B6822F001021A607B681B68F7
:102D00001A687B681B6842F400421A607B681B6883
:102D10001A687B681B6822F400421A6002F062FEA7
:102D2000F8607B685B68814A934207D8FB68804AF9
:102D3000934294BF01230023DBB206E0FB687D4A87
:102D4000934294BF01230023DBB2002B01D0012367
:102D5000E7E0FB68784AA2FB03239B0CBB607B681F
:102D60001B685B6823F03F017B681B68BA680A43F5
:102D70005A607B681B681B6A23F03F017B685B68B5
:102D80006A4A934202D8BB68013309E0BB684FF43A
:102D9000967202FB03F3694AA2FB03239B090133EA
:102DA0007A6812680B4313627B681B68DB6923F443
:102DB0004F4222F0FF027B685B685C498B4219D866
:102DC000FB68591E7B685B685B00B1FBF3F3591C21
:102DD00040F6FC730B40002B0AD0FB68591E7B6841
:102DE0005B685B00B1FBF3F30133C3F30B0351E00A
:102DF00004234FE07B689B68002B11D1FB68581EB1
:102E00007B6859680B465B000B44B0FBF3F301335E
:102E1000C3F30B03002B0CBF01230023DBB212E032
:102E2000FB68581E7B6859680B469B000B44990051
:102E30000B44B0FBF3F30133C3F30B03002B0CBFC4
:102E400001230023DBB2002B01D0012322E07B68A9
:102E50009B68002B0ED1FB68581E7B6859680B4697
:102E60005B000B44B0FBF3F30133C3F30B0343F4F8
:102E700000430FE0FB68581E7B6859680B469B00B7
:102E80000B4499000B44B0FBF3F30133C3F30B0382
:102E900043F44043796809681343CB617B681B683E
:102EA0001B6823F0C0017B68DA697B681B6A1A43E0
:102EB0007B681B680A431A607B681B689B6823F465
:102EC000034323F0FF037A6811697A68D2681143DB
:102ED0007A6812680B4393607B681B68DB6823F099
:102EE000FF017B685A697B689B691A437B681B6892
:102EF0000A43DA607B681B681A687B681B6842F0CB
:102F000001021A607B6800221A647B68202283F821
:102F10003D207B6800221A637B68002283F83E20F4
:102F2000002318461037BD4680BD00BFA0860100B3
:102F30007F841E00FF083D0083DE1B43D34D6210DB
:102F400080B588B002AFF8607A601A460B467B8184
:102F500013463B81FFF7CCF87861FB6893F83D306E
:102F6000DBB2202B40F0E0807B6900931923012223
:102F70007049F86800F07EFC0346002B01D0022364
:102F8000D3E0FB6893F83C30012B01D10223CCE065
:102F9000FB68012283F83C20FB681B681B6803F078
:102FA0000103012B07D0FB681B681A68FB681B68CC
:102FB00042F001021A60FB681B681A68FB681B6814
:102FC00022F400621A60FB68212283F83D20FB682E
:102FD000102283F83E20FB6800221A64FB687A689E
:102FE0005A62FB683A895A85FB685B8D9AB2FB6826
:102FF0001A85FB68504ADA6279897B693A6AF8680F
:1030000000F0CEFA0346002B01D001238DE000230F
:103010003B61FB681B685B693B61FB681B689B69E4
:103020003B613B6966E07A69396AF86800F03CFD0B
:103030000346002B0DD0FB681B6C042B07D1FB68EB
:103040001B681A68FB681B6842F400721A6001234F
:103050006BE0FB685B6A1A78FB681B681A61FB68A7
:103060005B6A5A1CFB685A62FB685B8D9BB2013B32
:103070009AB2FB685A85FB681B8D013B9AB2FB68CC
:103080001A85FB681B685B6903F00403042B1BD1E2
:10309000FB681B8D002B17D0FB685B6A1A78FB68F6
:1030A0001B681A61FB685B6A5A1CFB685A62FB6802
:1030B0005B8D9BB2013B9AB2FB685A85FB681B8D06
:1030C000013B9AB2FB681A857A69396AF86800F0A0
:1030D00033FD0346002B0DD0FB681B6C042B07D17E
:1030E000FB681B681A68FB681B6842F400721A6070
:1030F00001231AE0FB681B8D002B94D1FB681B6831
:103100001A68FB681B6842F400721A60FB68202290
:1031100083F83D20FB68002283F83E20FB680022F4
:1031200083F83C20002300E0022318461837BD46F0
:1031300080BD00BF020010000000FFFF80B58CB012
:1031400002AFF860084611461A4603467B810B46DB
:103150003B811346FB80FEF7CBFF7862FB6893F858
:103160003D30DBB2202B40F014827B6A00931923A0
:1031700001227B49F86800F07DFB0346002B01D05B
:10318000022307E2FB6893F83C30012B01D10223B4
:1031900000E2FB68012283F83C20FB681B681B6887
:1031A00003F00103012B07D0FB681B681A68FB685A
:1031B0001B6842F001021A60FB681B681A68FB6812
:1031C0001B6822F400621A60FB68222283F83D200B
:1031D000FB68402283F83E20FB6800221A64FB68EB
:1031E0003A6B5A62FB68BA8E5A85FB685B8D9AB25D
:1031F000FB681A85FB685B4ADA62F8883A89798944
:103200007B6A0193BB6B00930346F86800F04AFAAF
:103210000346002B01D00123BCE1FB681B8D002B72
:1032200013D100233B62FB681B685B693B62FB6850
:103230001B689B693B623B6AFB681B681A68FB68FA
:103240001B6842F400721A6090E1FB681B8D012B31
:103250001BD1FB681B681A68FB681B6822F480623C
:103260001A600023FB61FB681B685B69FB61FB68FC
:103270001B689B69FB61FB69FB681B681A68FB683C
:103280001B6842F400721A6070E1FB681B8D022B10
:103290001BD1FB681B681A68FB681B6822F48062FC
:1032A0001A60FB681B681A68FB681B6842F40062BE
:1032B0001A600023BB61FB681B685B69BB61FB682C
:1032C0001B689B69BB61BB6950E100237B61FB68A4
:1032D0001B685B697B61FB681B689B697B617B6921
:1032E00044E1FB681B8D032B00F2F180FB681B8D12
:1032F000012B23D17A6AB96BF86800F065FC0346AC
:10330000002B01D0012345E1FB681B681A69FB68AB
:103310005B6AD2B21A70FB685B6A5A1CFB685A621D
:10332000FB681B8D013B9AB2FB681A85FB685B8DBD
:103330009BB2013B9AB2FB685A8517E1FB681B8D73
:10334000022B4ED17B6A0093BB6B00220649F868C2
:1033500000F090FA0346002B08D001231AE100BFC9
:10336000020010000000FFFF04000100FB681B6862
:103370001A68FB681B6842F400721A60FB681B68DD
:103380001A69FB685B6AD2B21A70FB685B6A5A1CE6
:10339000FB685A62FB681B8D013B9AB2FB681A8579
:1033A000FB685B8D9BB2013B9AB2FB685A85FB6858
:1033B0001B681A69FB685B6AD2B21A70FB685B6AA9
:1033C0005A1CFB685A62FB681B8D013B9AB2FB6872
:1033D0001A85FB685B8D9BB2013B9AB2FB685A85EC
:1033E000C4E07B6A0093BB6B00226C49F86800F074
:1033F00041FA0346002B01D00123CBE0FB681B6898
:103400001A68FB681B6822F480621A60FB681B68FC
:103410001A69FB685B6AD2B21A70FB685B6A5A1C55
:10342000FB685A62FB681B8D013B9AB2FB681A85E8
:10343000FB685B8D9BB2013B9AB2FB685A857B6A45
:103440000093BB6B00225549F86800F013FA03465D
:10345000002B01D001239DE0FB681B681A68FB6804
:103460001B6842F400721A60FB681B681A69FB68EB
:103470005B6AD2B21A70FB685B6A5A1CFB685A62BC
:10348000FB681B8D013B9AB2FB681A85FB685B8D5C
:103490009BB2013B9AB2FB685A85FB681B681A69AC
:1034A000FB685B6AD2B21A70FB685B6A5A1CFB68E5
:1034B0005A62FB681B8D013B9AB2FB681A85FB6858
:1034C0005B8D9BB2013B9AB2FB685A854EE07A6AEB
:1034D000B96BF86800F078FB0346002B01D001239C
:1034E00058E0FB681B681A69FB685B6AD2B21A7005
:1034F000FB685B6A5A1CFB685A62FB681B8D013BC8
:103500009AB2FB681A85FB685B8D9BB2013B9AB24D
:10351000FB685A85FB681B685B6903F00403042B96
:1035200024D1FB681B8D032B07D1FB681B681A682D
:10353000FB681B6822F480621A60FB681B681A69CA
:10354000FB685B6AD2B21A70FB685B6A5A1CFB6844
:103550005A62FB681B8D013B9AB2FB681A85FB68B7
:103560005B8D9BB2013B9AB2FB685A85FB681B8D51
:10357000002B7FF4B6AEFB68202283F83D20FB6869
:10358000002283F83E20FB68002283F83C200023C1
:1035900000E0022318462837BD4680BD0400010024
:1035A00080B588B002AFF8607A603B600B467B81E3
:1035B000FB68DB6A7B617B69082B06D07B69012B8A
:1035C00003D07B6913F5803F08D1FB681B681A683C
:1035D000FB681B6842F480721A600BE0FB681B6B8F
:1035E000122B07D1FB681B681A68FB681B6842F442
:1035F00080721A603B6800937B6800224FF00111D3
:10360000F86800F037F90346002B0DD0FB681B6803
:103610001B6803F48073B3F5807F03D1FB684FF41C
:1036200000721A64032335E0FB681B69B3F5804F11
:1036300008D17B89DBB21A46FB681B6802F0FE02E8
:103640001A611BE07B89DB11DBB203F00603DBB2FE
:1036500063F00F03DAB2FB681B681A613B687A6893
:103660000E49F86800F080F90346002B01D00123D1
:1036700010E07B89DAB2FB681B681A613B687A68E4
:103680000749F86800F070F90346002B01D00123C8
:1036900000E0002318461837BD4680BD0800010031
:1036A0000200010080B588B002AFF86008461146FC
:1036B0001A4603467B810B463B811346FB80FB6821
:1036C0001B681A68FB681B6842F480621A60FB681A
:1036D0001B681A68FB681B6842F480721A607B6A78
:1036E00000933B6A00224FF00111F86800F0C2F825
:1036F0000346002B0DD0FB681B681B6803F4807326
:10370000B3F5807F03D1FB684FF400721A64032382
:10371000AAE07B89DBB21A46FB681B6802F0FE0256
:103720001A617B6A3A6A5249F86800F01DF903464B
:10373000002B01D0012397E000237B61FB681B680D
:103740005B697B61FB681B689B697B617B697A6A4B
:10375000396AF86800F0A8F90346002B0DD0FB6821
:103760001B6C042B07D1FB681B681A68FB681B687D
:1037700042F400721A60012376E0FB88012B05D128
:103780003B89DAB2FB681B681A6121E03B891B0A9E
:103790009BB2DAB2FB681B681A617A6A396AF86808
:1037A00000F082F90346002B0DD0FB681B6C042B44
:1037B00007D1FB681B681A68FB681B6842F400723B
:1037C0001A60012350E03B89DAB2FB681B681A617A
:1037D0007A6A396AF86800F067F90346002B0DD061
:1037E000FB681B6C042B07D1FB681B681A68FB681D
:1037F0001B6842F400721A60012335E0FB681B6805
:103800001A68FB681B6842F480721A607B6A009336
:103810003B6A00224FF00111F86800F02BF80346D4
:10382000002B0DD0FB681B681B6803F48073B3F595
:10383000807F03D1FB684FF400721A64032313E006
:103840007B89DBB243F00103DAB2FB681B681A61C3
:103850007B6A3A6A0649F86800F086F80346002B4E
:1038600001D0012300E0002318461837BD4680BD73
:103870000200010080B584B000AFF860B9603B6021
:103880001346FB7148E03B68B3F1FF3F44D0FEF7BD
:103890002FFC0246BB69D31A3A689A4202D33B68AE
:1038A000002B39D1BB681B0CDBB2012B0DD1FB689F
:1038B0001B685B69DA43BB6813409BB2002B0CBFEB
:1038C00001230023DBB21A460CE0FB681B689B69EE
:1038D000DA43BB6813409BB2002B0CBF01230023CB
:1038E000DBB21A46FB799A4216D1FB6800221A63B2
:1038F000FB68202283F83D20FB68002283F83E20ED
:10390000FB681B6C43F02002FB681A64FB68002212
:1039100083F83C20012323E0BB681B0CDBB2012BA6
:103920000DD1FB681B685B69DA43BB6813409BB22F
:10393000002B0CBF01230023DBB21A460CE0FB680E
:103940001B689B69DA43BB6813409BB2002B0CBF1A
:1039500001230023DBB21A46FB799A4293D000235D
:1039600018461037BD4680BD80B584B000AFF86002
:10397000B9607A603B6071E0FB681B685B6903F4C7
:103980008063B3F5806F23D1FB681B681A68FB68FE
:103990001B6842F400721A60FB681B686FF4806257
:1039A0005A61FB6800221A63FB68202283F83D20DD
:1039B000FB68002283F83E20FB681B6C43F0040286
:1039C000FB681A64FB68002283F83C20012367E04F
:1039D0007B68B3F1FF3F41D0FEF78AFB02463B68AC
:1039E000D31A7A689A4202D37B68002B36D1BB681F
:1039F0001B0CDBB2012B0CD1FB681B685B69DA4343
:103A0000BB6813409BB2002B14BF01230023DBB221
:103A10000BE0FB681B689B69DA43BB6813409BB2F1
:103A2000002B14BF01230023DBB2002B16D0FB6850
:103A300000221A63FB68202283F83D20FB680022E5
:103A400083F83E20FB681B6C43F02002FB681A647D
:103A5000FB68002283F83C20012321E0BB681B0C9B
:103A6000DBB2012B0CD1FB681B685B69DA43BB68D6
:103A700013409BB2002B14BF01230023DBB20BE0E9
:103A8000FB681B689B69DA43BB6813409BB2002B41
:103A900014BF01230023DBB2002B7FF46DAF0023A2
:103AA00018461037BD4680BD80B584B000AFF860C1
:103AB000B9607A6034E0F86800F0E3F80346002B60
:103AC00001D0012334E0BB68B3F1FF3F28D0FEF7FB
:103AD0000FFB02467B68D31ABA689A4202D3BB68CE
:103AE000002B1DD1FB681B685B6903F08003802BF2
:103AF00016D0FB6800221A63FB68202283F83D2061
:103B0000FB68002283F83E20FB681B6C43F0200218
:103B1000FB681A64FB68002283F83C20012307E05D
:103B2000FB681B685B6903F08003802BC3D1002313
:103B300018461037BD4680BD80B584B000AFF86030
:103B4000B9607A6034E0F86800F09BF80346002B17
:103B500001D0012334E0BB68B3F1FF3F28D0FEF76A
:103B6000C7FA02467B68D31ABA689A4202D3BB6886
:103B7000002B1DD1FB681B685B6903F00403042B59
:103B800016D0FB6800221A63FB68202283F83D20D0
:103B9000FB68002283F83E20FB681B6C43F0200288
:103BA000FB681A64FB68002283F83C20012307E0CD
:103BB000FB681B685B6903F00403042BC3D100237B
:103BC00018461037BD4680BD80B584B000AFF860A0
:103BD000B9607A6049E0FB681B685B6903F0100319
:103BE000102B19D1FB681B686FF010025A61FB683B
:103BF00000221A63FB68202283F83D20FB68002224
:103C000083F83E20FB681A6CFB681A64FB6800228C
:103C100083F83C20012330E0FEF76AFA02467B6815
:103C2000D31ABA689A4202D3BB68002B1DD1FB6835
:103C30001B685B6903F04003402B16D0FB68002231
:103C40001A63FB68202283F83D20FB68002283F87A
:103C50003E20FB681B6C43F02002FB681A64FB6883
:103C6000002283F83C20012307E0FB681B685B69A6
:103C700003F04003402BAED1002318461037BD4659
:103C800080BD80B483B000AF78607B681B685B69DF
:103C900003F48063B3F5806F1BD17B681B686FF4FE
:103CA00080625A617B6800221A637B68202283F855
:103CB0003D207B68002283F83E207B681B6C43F02C
:103CC00004027B681A647B68002283F83C2001238D
:103CD00000E0002318460C37BD465DF8047B7047B2
:103CE00080B586B002AF78607B68002B01D10123DC
:103CF00001E17B681B68BB607B6893F89534DBB29D
:103D0000002B06D17B68002283F89424786807F0A2
:103D10002FFA7B68032283F89524BB68B3F1A04F88
:103D200002D17B6800229A717B681B68184603F0F9
:103D300016FE7B6818687B681A7C8DF800200433B7
:103D40000ECB03F0F5FC0346002B05D07B68022266
:103D500083F895240123CEE07B681B680021184678
:103D600003F00EFE0346002B05D07B68022283F889
:103D700095240123BFE00023FB734AE0FA7B7968B6
:103D80001346DB0013449B000B44153301221A70C9
:103D9000FA7B79681346DB0013449B000B44143311
:103DA000FA7B1A70FA7BFB7B98B279681346DB00CA
:103DB00013449B000B442E3302461A80FA7B796829
:103DC0001346DB0013449B000B44183300221A7087
:103DD000FA7B79681346DB0013449B000B441C33C9
:103DE00000221A60FA7B79681346DB0013449B00BB
:103DF0000B44203300221A60FA7B79681346DB00FB
:103E000013449B000B44243300221A60FB7B0133D4
:103E1000FB737B681B79FA7B9A42AFD30023FB7359
:103E200044E0FA7B79681346DB0013449B000B44A3
:103E300003F2552300221A70FA7B79681346DB00DF
:103E400013449B000B4403F51573FA7B1A70FA7B3D
:103E500079681346DB0013449B000B4403F516738B
:103E600000221A70FA7B79681346DB0013449B002A
:103E70000B4403F5177300221A60FA7B7968134626
:103E8000DB0013449B000B4403F5187300221A60F7
:103E9000FA7B79681346DB0013449B000B4403F55F
:103EA000197300221A60FB7B0133FB737B681B795B
:103EB000FA7B9A42B5D37B6818687B681A7C8DF8C8
:103EC000002004330ECB03F0A7FD0346002B05D0E2
:103ED0007B68022283F8952401230CE07B68002292
:103EE0005A747B68012283F895247B681B68184606
:103EF00004F0F1FD002318461037BD4680BD80B5A3
:103F000084B000AF78607B681B68FB607B6893F8C7
:103F10009434012B01D1022322E07B68012283F833
:103F20009424FB68DB6803F04003002B09D07B6816
:103F30005B7B012B05D1FB689B6B43F48032FB68F4
:103F40009A637B681B68184603F0F8FC7B681B6863
:103F5000184604F09FFD7B68002283F89424002318
:103F600018461037BD4680BD90B58DB000AF786063
:103F70007B681B683B623B6AFB617B681B68184679
:103F800004F05DFE0346002B40F08C847B681B68C8
:103F9000184604F0C1FD0346002B00F08284FB6943
:103FA00003F500639B681B0AC3F30D027B68C3F82B
:103FB000D4247B681B68184604F0AEFD034603F06A
:103FC0000203022B07D17B681B685A697B681B6858
:103FD00002F002025A617B681B68184604F09CFDDF
:103FE000034603F01003102B61D17B681B689A69AC
:103FF0007B681B6822F010029A613B6A1B6ABB61F6
:10400000BB6903F00F021346DB0013449B0003F56A
:1040100014737A68134404337B61BB695B0C03F04F
:104020000F03022B24D1BA6947F6F0731340002B1B
:1040300035D07B69D968BB691B099BB2C3F30A03FE
:104040009BB21A46386A04F0D3FB7B69DA68BB6915
:104050001B09C3F30A031A447B69DA607B695A6956
:10406000BB691B09C3F30A031A447B695A6116E052
:10407000BB695B0C03F00F03062B10D17B6803F2C6
:104080009C4308221946386A04F0B2FB7B695A69DE
:10409000BB691B09C3F30A031A447B695A617B6835
:1040A0001B689A697B681B6842F010029A617B6802
:1040B0001B68184604F030FD034603F40023B3F5F3
:1040C000002F40F0A78000237B627B681B681846A6
:1040D00004F035FDB86299E0BB6A03F00103002BE0
:1040E00000F08E807B681B687A6AD2B2114618464F
:1040F00004F059FD38613B6903F00103002B0CD03B
:104100007B6A5A01FB69134403F530631A460123A5
:104110009360796A786800F0A3FE3B6903F00803B6
:10412000002B0CD07B6A5A01FB69134403F5306302
:104130001A4608239360796A786800F079FF3B6932
:1041400003F01003002B08D07B6A5A01FB6913446B
:1041500003F530631A46102393603B6903F00203B2
:10416000002B30D03B6A5B6903F08003802B09D1C0
:10417000FB6903F500635B68FA6902F5006243F4CA
:10418000806353607A6A1346DB0013449B0003F597
:1041900014737A68134404337B617B69DB78012BE9
:1041A00008D17B690022DA707B6ADBB21946786835
:1041B00007F0DAF87B6A5A01FB69134403F53063B0
:1041C0001A46022393603B6903F02003002B08D0BA
:1041D0007B6A5A01FB69134403F530631A462023B6
:1041E00093603B6903F40053002B09D07B6A5A01AA
:1041F000FB69134403F530631A464FF40053936090
:104200007B6A01337B62BB6A5B08BB62BB6A002BC3
:104210007FF462AF7B681B68184604F07DFC0346A0
:1042200003F48023B3F5802F40F0DB807B681B68AC
:10423000184604F09EFCB86200237B62CDE0BB6AA6
:1042400003F00103002B00F0C2807B681B687A6AD0
:10425000D2B21146184604F0C4FC38613B6903F041
:104260000103002B57D07B6A03F00F03012202FAEF
:1042700003F3FB60FB6903F500635A6BFB68DB43E8
:10428000F96901F5006113404B637B6A5A01FB69D0
:10429000134403F510631A46012393607B689B79EE
:1042A000012B32D179687A6A1346DB0013449B00F4
:1042B0000B442033196878687A6A1346DB0013448C
:1042C0009B0003441C331B68194478687A6A1346C0
:1042D000DB0013449B000344203319607B6A002BEE
:1042E00013D179687A6A1346DB0013449B000B44B0
:1042F00024331B68002B08D17B6818687B6803F2A5
:104300009C431A46012104F0CBFC7B6ADBB21946C0
:10431000786806F0AEFF3B6903F00803002B08D075
:104320007B6A5A01FB69134403F510631A4608239C
:1043300093603B6903F01003002B08D07B6A5A019D
:10434000FB69134403F510631A46102393603B691D
:1043500003F04003002B08D07B6A5A01FB69134429
:1043600003F510631A46402393603B6903F0020390
:10437000002B23D0796A386A03F0B2FC7A6A1346BC
:10438000DB0013449B0010337A68134404337B61D1
:104390007B69DB78012B08D17B690022DA707B6AAC
:1043A000DBB21946786806F0F1FF7B6A5A01FB69B7
:1043B000134403F510631A46022393603B6903F02C
:1043C0008003002B03D0796A786800F0BDFC7B6A1B
:1043D00001337B62BB6A5B08BB62BB6A002B7FF464
:1043E0002EAF7B681B68184604F096FB034603F06B
:1043F0000043B3F1004F22D1FB6903F500635B6812
:10440000FA6902F5006223F0010353607B6893F8B8
:10441000CC34012B08D17B68002283F8CC24002106
:10442000786800F0A3FE02E0786806F08FFF7B68F2
:104430001B685A697B681B6802F000425A617B68FE
:104440001B68184604F068FB034603F40063B3F5E9
:10445000006F12D1FB6903F500639B6803F0010351
:10446000012B02D1786806F04BFF7B681B685A6904
:104470007B681B6802F400625A617B681B681846FF
:1044800004F04AFB034603F48053B3F5805F40F029
:10449000B780FB6903F500635B68FA6902F50062A7
:1044A00023F0010353607B681B681021184603F05A
:1044B00017FC0023FB6246E0FB6A5A01FB691344C8
:1044C00003F510631A464FF67F339360FB6A5A0177
:1044D000FB69134403F510631B68FA6A5101FA691A
:1044E0000A4402F5106223F400131360FB6A5A01B8
:1044F000FB69134403F530631A464FF67F3393602C
:10450000FB6A5A01FB69134403F530631B68FA6ABE
:104510005101FA690A4402F5306223F40013136072
:10452000FB6A5A01FB69134403F530631B68FA6A9E
:104530005101FA690A4402F5306243F000631360E6
:10454000FB6A0133FB627B681B791A46FB6A934264
:10455000B2D3FB6903F50063DB69FA6902F5006217
:1045600043F00113D3617B68DB7B002B16D0FB6922
:1045700003F50063D3F88430FA6902F5006243F072
:104580000B03C2F88430FB6903F500635B6CFA69C6
:1045900002F5006243F00B03536415E0FB6903F579
:1045A00000635B69FA6902F5006243F4005343F06B
:1045B0002B035361FB6903F500631B69FA6902F57C
:1045C000006243F00B031361FB6903F500631B6892
:1045D000FA6902F5006223F4FE6313607B681868D1
:1045E0007B6899797B6803F29C431A4604F058FB78
:1045F0007B681B685A697B681B6802F480525A61A9
:104600007B681B68184604F087FA034603F40053DE
:10461000B3F5005F23D17B681B68184604F01DFBCF
:104620007B681B68184603F0D4FB03461A467B6878
:10463000DA717B681C6801F0C9F901467B68DB7997
:104640001A46204603F0D8F8786806F03AFE7B68F0
:104650001B685A697B681B6802F400525A617B68C8
:104660001B68184604F058FA034603F00803082BA9
:104670000AD1786806F017FE7B681B685A697B6868
:104680001B6802F008025A617B681B68184604F038
:1046900043FA034603F08003802B23D13B6A9B69D6
:1046A00023F080023B6A9A6101237B6214E07968FF
:1046B0007A6A1346DB0013449B000B4403F2572332
:1046C0001B78012B05D17B6ADBB21946786800F0B4
:1046D0000AFB7B6A01337B627B681B791A467B6A23
:1046E0009342E4D37B681B68184604F015FA03462E
:1046F00003F48013B3F5801F3CD101237B622BE0D0
:104700007B6A5A01FB69134403F510631B68BB61A4
:1047100079687A6A1346DB0013449B000B44183314
:104720001B78012B15D1BB69002B12DA79687A6AE4
:104730001346DB0013449B000B44173301221A700D
:104740007B6ADBB263F07F03DBB21946786800F066
:10475000CAFA7B6A01337B627B681B791A467B6AE3
:104760009342CDD37B681B685A697B681B6802F44F
:1047700080125A617B681B68184604F0CDF9034625
:1047800003F40013B3F5001F56D101237B6245E00B
:104790007B6A5A01FB69134403F530631B68BB61F4
:1047A00079687A6A1346DB0013449B000B4403F5D7
:1047B00016731B78012B2ED1BB69002B2BDABB693A
:1047C00003F480327B68D3F8D43403F001039A42B7
:1047D00021D179687A6A1346DB0013449B000B44AD
:1047E00003F2572301221A703B6A9B6943F080024F
:1047F0003B6A9A613B6A5B6903F08003002B0AD134
:10480000FB6903F500635B68FA6902F5006243F433
:104810000073536008E07B6A01337B627B681B791D
:104820001A467B6A9342B3D37B681B685A697B68DC
:104830001B6802F400125A617B681B68184604F07A
:104840006BF9034603F08043B3F1804F0AD17868D7
:1048500006F0AEFD7B681B685A697B681B6802F036
:1048600080425A617B681B68184604F055F903467C
:1048700003F00403042B15D17B681B685B68BB61E4
:10488000BB6903F00403002B02D0786806F09EFD9C
:104890007B681B6859687B681B68BA690A435A6061
:1048A00000E000BF3437BD4690BD80B582B000AF98
:1048B00078600B46FB707B6893F89434012B01D130
:1048C000022312E07B68012283F894247B68FA7843
:1048D0005A747B681B68FA781146184604F0B4F8DD
:1048E0007B68002283F89424002318460837BD46CD
:1048F00080BD80B584B000AF7860084611461A4686
:104900000346FB700B463B801346BB700023FB72D3
:1049100097F90330002B0FDAFB7803F00F021346F0
:10492000DB0013449B0010337A6813440433FB60AC
:10493000FB6801225A700FE0FB7803F00F02134668
:10494000DB0013449B0003F514737A6813440433AB
:10495000FB60FB6800225A70FB7803F00F03DAB2A9
:10496000FB681A703B88C3F30A02FB689A60FB6815
:10497000BA781A71FB685B78002B04D0FB681B784F
:104980001A46FB685A83BB78022B02D1FB680022CF
:104990005A717B6893F89434012B01D102230EE005
:1049A0007B68012283F894247B681B68F9681846A9
:1049B00003F034FA7B68002283F89424FB7A1846CB
:1049C0001037BD4680BD80B584B000AF78600B461F
:1049D000FB7097F90330002B0FDAFB7803F00F021E
:1049E0001346DB0013449B0010337A6813440433EE
:1049F000FB60FB6801225A700FE0FB7803F00F02A6
:104A00001346DB0013449B0003F514737A681344C8
:104A10000433FB60FB6800225A70FB7803F00F033D
:104A2000DAB2FB681A707B6893F89434012B01D1D9
:104A300002230EE07B68012283F894247B681B68C4
:104A4000F968184603F072FA7B68002283F8942410
:104A5000002318461037BD4680BD80B586B000AF34
:104A6000F8607A603B600B46FB72FB7A03F00F0242
:104A70001346DB0013449B0003F51473FA681344D8
:104A800004337B617B697A68DA607B693A681A6112
:104A90007B6900225A617B6900225A70FB7A03F01D
:104AA0000F03DAB27B691A70FB689B79012B02D184
:104AB0007A687B69DA61FB681868FB689B791A463B
:104AC000796903F00FFB002318461837BD4680BDF7
:104AD00080B483B000AF78600B46FB70FB7803F0C6
:104AE0000F0279681346DB0013449B000B4403F567
:104AF0001A731B6818460C37BD465DF8047B704777
:104B000080B586B000AFF8607A603B600B46FB7200
:104B1000FB7A03F00F021346DB0013449B001033B3
:104B2000FA68134404337B617B697A68DA607B69D5
:104B30003A681A617B6900225A617B6901225A70C6
:104B4000FB7A03F00F03DAB27B691A70FB689B797A
:104B5000012B02D17A687B69DA61FB681868FB680F
:104B60009B791A46796903F0BDFA00231846183775
:104B7000BD4680BD80B584B000AF78600B46FB7049
:104B8000FB7803F00F037A681279934201D901236D
:104B90004FE097F90330002B0FDAFB7803F00F0298
:104BA0001346DB0013449B0010337A68134404332C
:104BB000FB60FB6801225A700DE0FA781346DB00B7
:104BC00013449B0003F514737A6813440433FB60A9
:104BD000FB6800225A70FB6801229A70FB7803F090
:104BE0000F03DAB2FB681A707B6893F89434012BD8
:104BF00001D102231DE07B68012283F894247B68A5
:104C00001B68F968184603F04BFEFB7803F00F03AE
:104C1000002B09D17B6818687B6899797B6803F25F
:104C20009C431A4604F03CF87B68002283F89424E5
:104C3000002318461037BD4680BD80B584B000AF54
:104C400078600B46FB70FB7803F00F037A681279EB
:104C5000934201D9012342E097F90330002B0FDA88
:104C6000FB7803F00F021346DB0013449B00103364
:104C70007A6813440433FB60FB6801225A700FE02A
:104C8000FB7803F00F021346DB0013449B0003F58F
:104C900014737A6813440433FB60FB6800225A7073
:104CA000FB6800229A70FB7803F00F03DAB2FB680E
:104CB0001A707B6893F89434012B01D102230EE023
:104CC0007B68012283F894247B681B68F968184686
:104CD00003F054FE7B68002283F8942400231846D6
:104CE0001037BD4680BD80B584B000AF78600B46FC
:104CF000FB7097F90330002B0CDAFB7803F00F02FE
:104D00001346DB0013449B0010337A6813440433CA
:104D1000FB600CE0FB7803F00F021346DB0013444A
:104D20009B0003F514737A6813440433FB607B68BB
:104D30001B68F968184603F073FC0346FB72FB7AA4
:104D400018461037BD4680BD80B58AB002AF786086
:104D500039607B681B687B617B693B613A681346FD
:104D6000DB0013449B0010337A6813440433FB6068
:104D7000FB685A69FB681B699A4201D901236BE001
:104D8000FB681A69FB685B69D31AFB61FB689B6867
:104D9000FA699A4202D9FB689B68FB61FB6903339D
:104DA0009B08BB612AE0FB681A69FB685B69D31A40
:104DB000FB61FB689B68FA699A4202D9FB689B68B1
:104DC000FB61FB6903339B08BB61FB68D9683B68E7
:104DD000DAB2FB6998B27B689B79009303467869E5
:104DE00003F0C8FCFB68DA68FB691A44FB68DA6008
:104DF000FB685A69FB691A44FB685A613B685A01AF
:104E00003B69134403F510639B699BB2BA699A42EC
:104E100009D8FB685A69FB681B699A4203D2FB6890
:104E20001B69002BBFD1FB681A69FB685B699A425A
:104E300011D83B6803F00F03012202FA03F3BB60B1
:104E40003B6903F500635A6BBB68DB43396901F5C5
:104E5000006113404B63002318462037BD4680BDD8
:104E600080B588B000AF786039607B681B68FB61F3
:104E7000FB69BB61FB693C3304331B687B613B68A6
:104E80005A01BB69134403F530639B683B617B683F
:104E90009B79012B7BD13B6903F00803002B15D0D4
:104EA0007B69614A934240F2B9803B6903F4004355
:104EB000002B00F0B3803B685A01BB69134403F533
:104EC00030631A464FF400439360A7E03B6903F058
:104ED0002003002B09D03B685A01BB69134403F53A
:104EE00030631A462023936098E03B6903F028035F
:104EF000002B40F093807B694B4A93420FD93B696A
:104F000003F40043002B0AD03B685A01BB691344E9
:104F100003F530631A464FF4004393607EE03A682D
:104F20001346DB0013449B0003F514737A681344A3
:104F30000433FB60FB681A6A3B685901BB690B4488
:104F400003F530631B69C3F31203D21AFB685A617D
:104F50003B68002B14D1FB681B69002B09D17B68CF
:104F600018687B6803F29C431A46012103F098FEFF
:104F700006E0FB68DA68FB685B691A44FB68DA6084
:104F80003B68DBB21946786806F058F946E07B6961
:104F9000264A934224D13B6903F40043002B0AD0F4
:104FA0003B685A01BB69134403F530631A464FF45A
:104FB0000043936032E03B6903F02003002B08D0EC
:104FC0003B685A01BB69134403F530631A4620233A
:104FD00093603B68DBB21946786806F02FF91DE054
:104FE0003B68002B14D179683A681346DB00134400
:104FF0009B000B4403F519731B68002B08D17B68D9
:1050000018687B6803F29C431A46002103F048FEAF
:105010003B68DBB21946786806F010F900231846A1
:105020002037BD4680BD00BF0A30544F0A31544F6F
:1050300080B586B000AF786039607B681B687B61A3
:105040007B693B617B693C3304331B68FB603B68D5
:105050005A013B69134403F530639B68BB60FB68EE
:10506000154A93420ED9BB6803F40043002B09D0C4
:105070003B685A013B69134403F530631A464FF409
:1050800000439360786806F0C7F8FB680A4A9342C9
:105090000CD97B689B79012B08D17B6818687B68E9
:1050A00003F29C431A46012103F0FAFD002318463F
:1050B0001837BD4680BD00BF0A30544F80B485B05C
:1050C00000AF78600B46FB7013463B807B681B6823
:1050D0005B6ABB60FB78002B07D13B8819047B68B7
:1050E0001B68BA680A439A6228E07B681B689B6A5F
:1050F0001B0CBA681344BB600023FB730DE07B6894
:105100001A68FB7B40339B0013445B681B0CBA6836
:105110001344BB60FB7B0133FB73FA7BFB78013BE1
:105120009A42ECD33B8818047B681968FB78013BF2
:10513000BA68024340339B000B445A600023184670
:105140001437BD465DF8047B704780B483B000AF70
:1051500078600B467B807B681B687A885A620023E4
:1051600018460C37BD465DF8047B704780B483B0A9
:1051700000AF78600B46FB7000BF0C37BD465DF892
:10518000047B704780B586B000AF78607B68002BE9
:1051900001D1012367E27B681B6803F00103002B48
:1051A00075D0884B9B6803F00C03042B0CD0854B07
:1051B0009B6803F00C03082B12D1824B5B6803F44D
:1051C0008003B3F5800F0BD17E4B1B6803F40033D3
:1051D000002B5BD07B685B68002B57D1012342E238
:1051E0007B685B68B3F5803F06D1764B1B68754AD8
:1051F00043F4803313601DE07B685B68B3F5A02F38
:105200000CD1704B1B686F4A43F4802313606D4BC5
:105210001B686C4A43F4803313600BE0694B1B68D6
:10522000684A23F480331360664B1B68654A23F495
:10523000802313607B685B68002B13D0FCF758FF5A
:10524000386108E0FCF754FF02463B69D31A642B2F
:1052500001D9032307E25B4B1B6803F40033002BE7
:10526000F0D014E0FCF744FF386108E0FCF740FFA1
:1052700002463B69D31A642B01D90323F3E1514B56
:105280001B6803F40033002BF0D100E000BF7B6803
:105290001B6803F00203002B63D04A4B9B6803F0AA
:1052A0000C03002B0BD0474B9B6803F00C03082B1F
:1052B0001CD1444B5B6803F48003002B16D1414B97
:1052C0001B6803F00203002B05D07B68DB68012B11
:1052D00001D00123C7E13B4B1B6823F0F8027B6838
:1052E0001B69DB00374913430B603AE07B68DB68DE
:1052F000002B20D0344B01221A60FCF7F9FE3861F4
:1053000008E0FCF7F5FE02463B69D31A022B01D9EF
:105310000323A8E12B4B1B6803F00203002BF0D002
:10532000284B1B6823F0F8027B681B69DB002549CA
:1053300013430B6015E0244B00221A60FCF7D8FEE3
:10534000386108E0FCF7D4FE02463B69D31A022B11
:1053500001D9032387E11B4B1B6803F00203002BD9
:10536000F0D17B681B6803F00803002B36D07B6804
:105370005B69002B16D0154B01221A60FCF7B8FEB2
:10538000386108E0FCF7B4FE02463B69D31A022BF1
:1053900001D9032367E10B4B5B6F03F00203002B82
:1053A000F0D01BE0094B00221A60FCF7A1FE386127
:1053B0000EE0FCF79DFE02463B69D31A022B07D98B
:1053C000032350E10038024000004742800E47426C
:1053D000884B5B6F03F00203002BEAD17B681B68EC
:1053E00003F00403002B00F097800023FB75814B32
:1053F0001B6C03F08053002B0FD10023BB607D4B4F
:105400001B6C7C4A43F0805313647A4B1B6C03F093
:105410008053BB60BB680123FB75774B1B6803F4AB
:105420008073002B18D1744B1B68734A43F480734C
:105430001360FCF75DFE386108E0FCF759FE024698
:105440003B69D31A022B01D903230CE16A4B1B6879
:1054500003F48073002BF0D07B689B68012B06D18E
:10546000644B1B6F634A43F0010313671CE07B68C6
:105470009B68052B0CD15F4B1B6F5E4A43F0040306
:1054800013675C4B1B6F5B4A43F0010313670BE030
:10549000584B1B6F574A23F001031367554B1B6F83
:1054A000544A23F0040313677B689B68002B15D0D4
:1054B000FCF71EFE38610AE0FCF71AFE02463B6963
:1054C000D31A41F28832934201D90323CBE0494BEE
:1054D0001B6F03F00203002BEED014E0FCF708FE74
:1054E00038610AE0FCF704FE02463B69D31A41F238
:1054F0008832934201D90323B5E03E4B1B6F03F082
:105500000203002BEED1FB7D012B05D1394B1B6C27
:10551000384A23F0805313647B689B69002B00F0AA
:10552000A180344B9B6803F00C03082B5CD07B6894
:105530009B69022B41D1314B00221A60FCF7D8FD48
:10554000386108E0FCF7D4FD02463B69D31A022B10
:1055500001D9032387E0274B1B6803F00073002B5E
:10556000F0D17B68DA697B681B6A1A437B685B6AE7
:105570009B011A437B689B6A5B08013B1B041A432F
:105580007B68DB6A1B061B4913434B601B4B0122E4
:105590001A60FCF7ADFD386108E0FCF7A9FD024692
:1055A0003B69D31A022B01D903235CE0114B1B6822
:1055B00003F00073002BF0D054E0104B00221A606F
:1055C000FCF796FD386108E0FCF792FD02463B6966
:1055D000D31A022B01D9032345E0064B1B6803F0C5
:1055E0000073002BF0D13DE07B689B69012B07D154
:1055F000012338E00038024000700040600047425C
:105600001B4B5B68FB607B689B69012B28D0FB68A8
:1056100003F480027B68DB699A4221D1FB6803F0C6
:105620003F027B681B6A9A421AD1FA6847F6C07338
:1056300013407A68526A9201934211D1FB6803F4D5
:1056400040327B689B6A5B08013B1B049A4207D18E
:10565000FB6803F070627B68DB6A1B069A4201D02C
:10566000012300E0002318461837BD4680BD00BF67
:105670000038024080B584B000AF786039607B6844
:10568000002B01D10123CCE0684B1B6803F007031A
:105690003A689A420CD9654B3A68D2B21A70634B99
:1056A0001B6803F007033A689A4201D00123B8E06F
:1056B0007B681B6803F00203002B20D07B681B680B
:1056C00003F00403002B05D0594B9B68584A43F460
:1056D000E05393607B681B6803F00803002B05D040
:1056E000534B9B68524A43F460439360504B9B6812
:1056F00023F0F0027B689B684D4913438B607B6805
:105700001B6803F00103002B44D07B685B68012B0E
:1057100007D1474B1B6803F40033002B19D1012339
:105720007FE07B685B68022B03D07B685B68032BA0
:1057300007D13F4B1B6803F00073002B09D10123F5
:105740006FE03B4B1B6803F00203002B01D10123E8
:1057500067E0374B9B6823F003027B685B68344942
:1057600013438B60FCF7C4FCF8600AE0FCF7C0FC54
:105770000246FB68D31A41F28832934201D90323CF
:105780004FE02B4B9B6803F00C027B685B689B002F
:105790009A42EBD1254B1B6803F007033A689A4203
:1057A0000CD2224B3A68D2B21A70204B1B6803F01D
:1057B00007033A689A4201D0012332E07B681B68F4
:1057C00003F00403002B08D0194B9B6823F4E0522C
:1057D0007B68DB68164913438B607B681B6803F0AA
:1057E0000803002B09D0124B9B6823F460427B68AE
:1057F0001B69DB000E4913438B6000F021F8024661
:105800000B4B9B681B0903F00F030A49CB5C22FA80
:1058100003F3094A1360094B1B681846FCF724FC84
:10582000002318461037BD4680BD00BF003C024033
:1058300000380240CCE900081000002014000020CD
:105840002DE9B04F90B000AF00237B630023FB63D2
:1058500000233B630023BB63594B9B6803F00C039D
:10586000082B0DD0082B00F2A180002B02D0042BB6
:1058700003D09BE0534BBB639BE0534BBB6398E06F
:105880004F4B5B6803F03F037B634D4B5B6803F456
:105890008003002B28D04A4B5B689B0900223B62A7
:1058A0007A623B6AC3F308000021474B03FB01F215
:1058B000002300FB03F31344434AA0FB0212FA62E5
:1058C0000A46BA62FA6A1344FB627B6B0022BB6130
:1058D000FA61D7E90623D7E90A01FBF7DDF90246A9
:1058E0000B461346FB6353E0354B5B689B09002274
:1058F0003B617A613B69C3F3080A4FF0000B5246E3
:105900005B464FF000004FF00001590141EAD261BF
:10591000500102460B46B2EB0A0863EB0B094FF04D
:1059200000024FF000034FEA891343EA98634FEAFD
:105930008812B2EB080463EB09054FF000024FF048
:105940000003EB0043EA5473E20014461D4614EBD7
:105950000A033B6045EB0B037B604FF000024FF006
:105960000003D7E9004529468B02214643EA9153BB
:1059700021468A02104619467B6B0022BB60FA6002
:10598000D7E90223FBF788F902460B461346FB636F
:105990000B4B5B681B0C03F0030301335B003B63A1
:1059A000FA6B3B6BB2FBF3F3BB6302E0054BBB63EB
:1059B00000BFBB6B18464037BD46BDE8B08F00BF87
:1059C000003802400024F40040787D0180B400AF2C
:1059D000034B1B681846BD465DF8047B704700BF4B
:1059E0001000002080B500AFFFF7F0FF0246054B26
:1059F0009B689B0A03F007030349CB5C22FA03F37D
:105A0000184680BD00380240DCE9000880B500AFD0
:105A1000FFF7DCFF0246054B9B685B0B03F00703B7
:105A20000349CB5C22FA03F3184680BD00380240DC
:105A3000DCE9000880B582B000AF78607B68002B9D
:105A400001D1012341E07B6893F83D30DBB2002BAC
:105A500006D17B68002283F83C207868FCF7D4F8F4
:105A60007B68022283F83D207B681A687B680433D8
:105A70001946104600F0C0FA7B68012283F84620E0
:105A80007B68012283F83E207B68012283F83F2057
:105A90007B68012283F840207B68012283F8412043
:105AA0007B68012283F842207B68012283F843202F
:105AB0007B68012283F844207B68012283F845201B
:105AC0007B68012283F83D20002318460837BD4635
:105AD00080BD80B582B000AF78607B68002B01D1BB
